S0150000457073696C6F6D657465725F76312E73333750
S113000000800020B1010000DD010000DD010000DE
S1130010DD010000DD010000DD010000DD01000064
S1130020DD010000DD010000DD010000DD01000054
S1130030DD010000DD010000DD010000DD01000044
S1130040DD010000DD010000DD010000DD01000034
S1130050DD010000DD010000DD0100009508000065
S1130060DD010000DD010000DD010000392E00008B
S1130070DD010000DD010000DD010000DD01000004
S113008045320000DD010000DD010000DD0100005B
S1130090DD010000DD010000DD010000DD010000E4
S11300A0DD010000DD010000DD010000DD010000D4
S11300B0DD010000DD010000150A0000DD01000083
S11300C0A9220000DD010000DD010000DD010000C7
S11300D0DD010000DD010000DD010000DD010000A4
S11300E010B5054C237833B9044B13B10448AFF36E
S11300F000800123237010BDC00200200000000016
S1130100D8590000084B10B51BB108480849AFF393
S113011000800848036803B910BD074B002BFBD0CF
S1130120BDE81040184700BF00000000D859000087
S1130130C4020020BC02002000000000154B002B6C
S113014008BF134B9D46A3F5803A00218B460F460A
S11301501348144A121A03F00FFF0F4B002B00D060
S113016098470E4B002B00D0984700200021040034
S11301700D000D48002802D00C48AFF3008003F0B6
S1130180DFFD2000290003F0CBF803F0C5FD00BF1C
S113019000000800008000200000000000000000B3
S11301A0C0020020680300200000000000000000DE
S11301B0064880470649074A074B9A42BEBF51F892
S11301C0040B42F8040BF8E7FFF7B8FF5D030000E7
S11301D00C5A000000000020C0020020FEE700BF0F
S11301E080B400AF044BDB6C1B0EDBB21846BD467B
S11301F05DF8047B704700BFB081E00F80B582B02A
S113020000AF00F01FF87860074B5B6803F00F0342
S11302101A467B68D3407B60044A7B6813607B6822
S113022018460837BD4680BD00800C404C030020B2
S113023080B400AF024B1846BD465DF8047B70479E
S1130240003FAB0180B582B000AF334BDB6A03F4EF
S11302507053B3F5805F0AD0B3F5005F03D0B3F5F4
S1130260006F08D00BE02D4B1B687B6047E04FF418
S113027000437B6043E02A4B1B687B603FE0264BD6
S1130280DB6803F4E063B3F5007F1BD0B3F5007FB4
S113029005D8002B24D0B3F5807F16D02BE0B3F51E
S11302A0806F09D0B3F5A06F03D0B3F5407F06D0BB
S11302B021E01C4B7B6021E01B4B7B601EE01B4B51
S11302C07B601BE01A4B7B6018E0FFF789FF034655
S11302D0122B02D9174B7B6010E0174B7B600DE0AB
S11302E0FFF77EFF0346122B02D9144B7B6005E017
S11302F0134B7B6002E000237B6000BF00BF064B12
S11303001B6803F4E0339B0B01337A68B2FBF3F30D
S113031018460837BD4680BD00800C40040000200C
S113032000000020003FAB01406F4001809FD500DA
S1130330C0D8A70040B56400C0CF6A00804F120047
S113034040420F0080B400AF034B1B681846BD4603
S11303505DF8047B704700BF0000002080B400AF4C
S1130360054A054BD3F8883043F47003C2F888304B
S1130370BD465DF8047B704700ED00E080B400AF3B
S11303804FF400431846BD465DF8047B704700BF38
S113039080B400AF4FF47A731846BD465DF8047B11
S11303A0704700BF80B400AF034B1B681846BD46BE
S11303B05DF8047B704700BF0400002080B483B064
S11303C000AF0346FB71084997F907305B09FA79D6
S11303D002F01F02012000FA02F241F823200C3738
S11303E0BD465DF8047B704700E100E080B483B053
S11303F000AF78607B685B6A18460C37BD465DF8D1
S1130400047B704780B483B000AF786039607B6848
S11304103A681A620C37BD465DF8047B704700BF2A
S113042080B483B000AF786039607B685A693B68F8
S11304301A437B685A610C37BD465DF8047B7047EC
S113044080B483B000AF78600B46FB70FA787B68A9
S11304505A600C37BD465DF8047B704780B400AF2A
S1130460054A054B1B6923F00403136130BFBD46E5
S11304705DF8047B704700BF00ED00E080B400AF7E
S113048072B6084B1B68B3F1FF3F04D0054B1B68E1
S11304900133044A1360034B1B681846BD465DF8DC
S11304A0047B70470403002080B483B000AF0C4B7E
S11304B01B68002B0DD00A4B1B68013B084A1360D4
S11304C0074B1B687B607B68002B00D162B67B689E
S11304D000E0002318460C37BD465DF8047B7047E6
S11304E00403002080B485B000AF78601B4B1B6808
S11304F0FB601B4B1B681B4A126802FB03F2FB6880
S11305001344FB60184B1B68002B0CD0144B1B6866
S1130510154A126802FB03F3144A1288B3FBF2F281
S1130520FB681344FB60124B5B68104A1288B3FBF0
S1130530F2F2FB681344FB600E4B1B68FA68134429
S1130540FB607B68002B02D07B68FA681A60FB684A
S113055018461437BD465DF8047B7047E00200205E
S1130560E4020020E8020020EC020020DC0200206B
S113057000000840F402002080B582B000AF78602B
S11305807B685B6A9AB2154B1A807B689B6A1A4631
S1130590134B1A60134B00221A60104B1B881A4627
S11305A04FF0807393FBF2F31A460F4B1A600B4B18
S11305B01B881A464FF0807393FBF2F102FB01F2A1
S11305C09B1A1A46094B1A607B68184600F010F80B
S11305D000F02EF80837BD4680BD00BFDC020020C5
S11305E0F8020020E4020020E8020020EC020020CF
S11305F080B582B000AF7860786803F09BFD024656
S1130600024B1A600837BD4680BD00BFE0020020DF
S113061080B400AF054B1B680133044A1360034BDD
S11306201B681846BD465DF8047B7047E402002051
S113063080B586B000AF2A4B1B6803F47F031B0C04
S1130640DAB2284B1A70264BDB681B0D9AB2264B84
S11306501A802648012100F095FE00233B740023F4
S11306607B740023BB741F23FB7400233B7500239E
S11306707B7500233B7100237B710023BB71002336
S1130680FB7100233B7200237B720023BB720023A7
S1130690FB7200233B73002000F038FB0346FB741D
S11306A01348002100F000FB03463B7507F11003DB
S11306B01048194600F066FA0023BB7108233B7208
S11306C03B1D0C48194600F0A1FA0A480121FFF726
S11306D0A7FE0720FFF772FE1837BD4680BD00BF96
S11306E0B081E00FF0020020F202002000020500B9
S11306F0801A0600002000402DE9B04384B000AF0A
S11307002B480121FFF79CFE05E0FFF7B7FEFFF73A
S1130710A5FEFFF7C9FE264B9B6803F48033002B2C
S1130720F3D02348FFF762FEF860224B1B7818468B
S113073002F0E0FF04460D461F4B1B88184602F0EA
S1130740C9FF80468946F86802F0C4FF02460B469A
S11307504046494602F080FE02460B4610461946C2
S113076011A3D3E9002303F055F902460B462046B2
S1130770294602F073FE02460B46C7E90023D7E977
S1130780000103F077FA02460B461046194603F0BF
S113079029FA0346DBB25BB218461037BD46BDE802
S11307A0B08300BFAFF300803333333333331940A6
S11307B000200040F0020020F202002080B582B048
S11307C000AFFFF799FF0346BB7197F90630193B59
S11307D0184603F09DFA0346FB71FB79462B01D9B9
S11307E04623FB71FB79254A32F813301BB2244AA5
S11307F0126802FB03F2234B1B681344214A136063
S11308000FE0214B1B881A46204B03FB02F21D4BC1
S11308101B6813441B4A13601D4B1B68013B1C4A95
S11308201360194B1B881A464FF47A7303FB02F2C8
S1130830144B1B689A42E4DB10E0134B1B881A46E6
S11308404FF47A7303FB02F20E4B1B6813440D4AF8
S113085013600F4B1B6801330D4A13600A4B1B884E
S11308601A460A4B03FB02F2064B1B689A42E4DC6D
S1130870074B1B6818460837BD4680BD4456000028
S1130880F8020020FC020020DC02002018FCFFFF1C
S1130890F402002080B500AF02480121FFF7B2FD49
S11308A080BD00BF0020004080B483B000AF034689
S11308B0FB71084997F907305B09FA7902F01F02C6
S11308C0012000FA02F241F823200C37BD465DF8FE
S11308D0047B704700E100E080B483B000AF0346BE
S11308E0FB71094997F907305B09FA7902F01F0295
S11308F0012000FA02F2603341F823200C37BD4690
S11309005DF8047B704700BF00E100E080B483B071
S113091000AF7860034A7B6893610C37BD465DF88D
S1130920047B70470000084080B483B000AF786057
S11309300549054BDA697B681343CB610C37BD4627
S11309405DF8047B704700BF0000084080B400AF2E
S1130950034B1B691846BD465DF8047B704700BF16
S113096000000840B0B58CB000AF0D4B3C1D1D46D7
S11309700FCD0FC40FCD0FC495E8070084E807001E
S11309804FF40043BB623C23FB623B1D1846FFF758
S1130990F3FD00F007F8012318463037BD46B0BD1B
S11309A0D456000080B582B000AF1748032100F090
S11309B0C9FE1648012100F0E5FC1448012100F0AD
S11309C0CBFB1348012100F0DDFC00237B710023E5
S11309D0BB7100233B713B1D184601F0F1F9002067
S11309E04FF4F01101F0B6F90320FFF79DFF1E202C
S11309F0FFF772FF1E20FFF757FF012001F0D0F927
S1130A000837BD4680BD00BF02001A006016100002
S1130A100043020080B500AFFFF798FF034603F0E0
S1130A200203002B0DD00D4B9B6803F5F01300203F
S1130A30194601F08FF90220FFF768FF084B0122E5
S1130A401A70FFF783FF034603F00103002B04D061
S1130A50FFF7DEFD0120FFF759FF80BD00000840CD
S1130A600800002080B487B000AF78600B46FB70AC
S1130A701346BB70BB78002B04D01023FB603E4BA5
S1130A803B6103E00023FB603C4B3B617B685A6B9A
S1130A903B691340BB6000237B61FB78062B5BD86A
S1130AA001A252F823F000BFC50A0000E30A0000C7
S1130AB0070B0000250B0000590B0000590B000028
S1130AC0490B00002E4B5B6803F4FE437A69134321
S1130AD07B612B4B5B6803F07F037A6913437B6173
S1130AE03DE0274B5B6803F0FE431B0E1B027A6953
S1130AF013437B61224B5B6803F4FE031B0C7A698E
S1130B0013437B612BE01E4B9B6803F4FE437A691D
S1130B1013437B611A4B9B6803F07F037A69134389
S1130B207B611CE0164B9B6803F0FE431B0E1B020B
S1130B307A6913437B61124B9B6803F4FE031B0C1D
S1130B407A6913437B610AE00D4BDB6803F07F0392
S1130B507A6913437B6102E000237B6100BFFB6879
S1130B607A699A40BB681A437B685A631C37BD464E
S1130B705DF8047B704700BFFFFF80808080FFFF2B
S1130B80B081E00F80B584B000AF786039603B6815
S1130B901B79FB72FB7A002B06D11B48002100F065
S1130BA083F80346FB7208E01748002100F07CF844
S1130BB04FF4FA40002100F077F87B680A225A606B
S1130BC03B681B781A063B68DB781B0403F4FE03BE
S1130BD01A43FB7A1B0203F4FE431A433B685B7817
S1130BE01B0113433A6892781343FB603B685B79BB
S1130BF0002B03D0FB6843F00803FB607B68FA68B2
S1130C001A601037BD4680BD405DC60080B584B013
S1130C1000AF786039607B6802225A603B689B7839
S1130C20786819460022FFF71DFF3B681B781A07F6
S1130C303B685B781B051A433B681B791B02134313
S1130C401A463B68DB781B011343FB603B689B79C6
S1130C50002B03D0FB6843F08073FB603B68DB79B7
S1130C60002B03D0FB6843F00403FB603B685B7913
S1130C70002B03D0FB6843F00203FB603B681B7A44
S1130C80002B03D0FB6843F00103FB603B689B78B7
S1130C901B041A46FB681343FB607B68FA68DA603E
S1130CA01037BD4680BD00BF80B584B000AF78600A
S1130CB039607B68134A934202D9124B7B6006E089
S1130CC07B68B3F5FA4F02D24FF4FA437B603B687A
S1130CD0002B03D10C4800F0BFFB38603A687B68F6
S1130CE013445A1E7B68B2FBF3F3FB60FB68002BD2
S1130CF002D0FB68013BFB60FB68DBB2184610378F
S1130D00BD4680BD405DC6004081040080B582B010
S1130D1000AF78607B68002B08D1114800F09CFB81
S1130D2078607B68002B01D101237B607B680D4ACE
S1130D30934201D90B4B7B607B6803F5742303F268
S1130D403F237B607B68084AA2FB03239B0C7B60E8
S1130D507B68DBB2013BDBB218460837BD4680BD79
S1130D60408104000048E80183DE1B4380B487B05F
S1130D7000AFF860B9607A60FB6803F10473DA00CD
S1130D80BB6813449B007B617B697A681A601C37DB
S1130D90BD465DF8047B704780B485B000AF7860D1
S1130DA039607B6803F10473DA003B6813449B00E9
S1130DB0FB60FB681B6818461437BD465DF8047B6E
S1130DC0704700BF80B485B000AF78607B68002BAB
S1130DD004D07B68B3F5004F00D800BF7B68B3FA3A
S1130DE083F3C3F11F03FB60FB6818461437BD4649
S1130DF05DF8047B704700BF80B400AF044BDB6C2C
S1130E001B0EDBB21846BD465DF8047B704700BF7D
S1130E10B081E00F80B584B000AF786039607A6843
S1130E203B689A428CBF01230023DBB2FB60064877
S1130E301E21FA68FFF79AFF04480821FA68FFF7B1
S1130E4095FF1037BD4680BD00800C4004800C40E7
S1130E5080B582B000AF07481E21FFF79DFF786080
S1130E6005480821FFF798FF38607B681846083763
S1130E70BD4680BD00800C4004800C4080B582B02B
S1130E8000AF214B5B6903F4E063B3F5007F1CD032
S1130E90B3F5007F05D8002B25D0B3F5807F1FD094
S1130EA02AE0B3F5C06F24D0B3F5E06F1ED0B3F5DC
S1130EB0407F21D1FFF7A0FF0346122B02D9134B29
S1130EC07B601CE0124B7B6019E0FFF795FF034643
S1130ED0122B02D90F4B7B6011E00F4B7B600EE0AD
S1130EE00E4B7B600BE00E4B7B6008E00D4B7B6090
S1130EF005E00D4B7B6002E000237B6000BF7B6854
S1130F0018460837BD4680BD00800C40804F120053
S1130F1040420F0040B56400C0CF6A00C0D8A700AB
S1130F20809FD500406F4001003FAB0180B582B087
S1130F3000AF0D4800F074FB0346FB70FB78072BF1
S1130F4005D0082B07D1FFF77DF9786006E0FFF79D
S1130F5095FF786002E000237B6000BF7B68184641
S1130F600837BD4680BD00BF06000C0080B485B0C4
S1130F7000AF7860284BDB6B002B14BF01230023E8
S1130F80BB72254B41F67132DA63234B5B6803F085
S1130F900703FB60FB68012B01D9042B02D100235A
S1130FA0FB7202E00123FB7200BF7B681B4A934281
S1130FB007D9FB7A002B01D0052300E00423FB6052
S1130FC016E07B68154A93420BD87B68144A934217
S1130FD007D9FB7A002B01D0032300E00123FB6037
S1130FE006E0FB7A002B01D0022300E00023FB6023
S1130FF00949094B5B6823F00702FB6813434B6004
S1131000BB7A002B02D0044B0022DA631437BD46AE
S11310105DF8047B704700BF00000C400048E80105
S11310200024F40080B500AFFFF702F90346184628
S1131030FFF79CFF80BD00BF90B585B000AF78601E
S11310400023BB607B68344A934203D0334A934203
S113105000D000E000BF786800F0E2FA0346FB60CD
S11310607B682D4A934203D02C4A934206D00CE06D
S11310702B4B9B6A03F00303FB6006E0284B9B6A3F
S113108003F00C039B08FB6000BFFB68032B3AD8FA
S113109001A252F823F000BFCF100000A9100000F5
S11310A0B1100000B9100000FFF768F9B8602DE036
S11310B0FFF778F9B86029E0FFF7A0F80446FFF7D6
S11310C0C7FE0346013324FA03F3BB601EE000238A
S11310D0BB607B68104A934203D07B680F4A9342FB
S11310E010D10F4B9A6A7B680B498B4201D11023B4
S11310F000E0142322FA03F3002B03D0FFF748F98E
S1131100B86003E002E00023BB6000BFBB68184680
S11311101437BD4690BD00BF02001A0003001C0036
S113112000800C4080B483B000AF7860094B5B6DE5
S113113003F00103002B00D006E000BF054B1A6D3D
S11311407B681340002BF9D10C37BD465DF8047B56
S1131150704700BF00800C40B0B584B000AF786029
S113116039607B681B0903F00F03FB60FB68013BDC
S1131170062B00F2F38001A252F823F0991100002B
S11311805D1300005D130000CD110000F711000095
S113119045120000091300003B68002B03D03B6894
S11311A0082B00D800BFFFF73DFF6E496D4B1B684D
S11311B023F4E0323B68013B9B0313430B60FFF7CE
S11311C01DF8B860B868FFF7D1FEC8E03B68002B93
S11311D004D03B68B3F5007F00D800BF3868FFF740
S11311E0F1FD38605F495F4B9B6823F00F023B6859
S11311F013438B60B3E03B68002B04D03B68B3F52A
S1131200007F00D800BFFFF70DFFFFF71BF8024671
S11312103B68B2FBF3F318465349FFF7FBFD38680C
S1131220FFF7D0FD38604F494E4B5B6823F00F0247
S11312303B6813434B60FEF7E1FFB860B868FFF703
S113124095FE8CE07B68494A93421ED0474A9342FC
S113125003D8474A934207D055E0464A934225D0E3
S1131260454A93423FD04EE00420FFF75BFF3868C5
S1131270FFF7A8FD38603B493A4B9B6E23F0F00220
S11312803B681B0113438B663DE00420FFF74AFFD4
S11312903868FFF797FD38603249324B9B6E23F470
S11312A070623B681B0213438B662CE03B680F2B78
S11312B003D93B68802B00D800BF0420FFF732FF1E
S11312C03868FFF77FFD3860264D264B9B6E23F46C
S11312D040541020FFF776FD02463B689B1A1B031F
S11312E02343AB660FE00420FFF71CFF3868FFF7C9
S11312F069FD38601B491B4B9B6E23F003023B685E
S113130013438B6600BF2AE07B681C4A934203D0D8
S11313101B4A934210D020E04020FFF703FF3868B7
S1131320FFF750FD38600F490E4B1B6F23F003028B
S11313303B6813430B6710E04020FFF7F3FE386867
S1131340FFF740FD38600749064B1B6F23F030025E
S11313503B681B0113430B6700BF00E000BF10375D
S1131360BD46B0BD00800C4000366E0160261400FE
S1131370601610006000260060062A007007160040
S11313807017180080B586B000AF78600B46FB700C
S113139000233B617B681B0A03F00F03013B092B0D
S11313A046D801A252F823F0E7130000ED13000021
S11313B0D11300003114000031140000F3130000B5
S11313C0FD13000031140000311400000714000064
S11313D0194B7B61194800F03FF803461846184939
S11313E0FFF718FD12E0174B7B610FE0164B7B6192
S11313F00CE0164B7B6101233B6107E0144B7B61DE
S113140010233B6102E0134B7B6100BF7B681B0B25
S113141003F01F03FB603B69002B02D03869FFF720
S113142081FEFB787869F9681A46FFF79FFC00E0B3
S113143000BF1837BD4680BD40800C400043020009
S113144000366E0108800C4044800C4058800C40EB
S113145060800C4078800C4090B585B000AF786017
S11314607B6803F47813B3F5A01F5DD0B3F5A01F18
S113147017D8B3F5802F34D0B3F5802F05D8002BBF
S11314802BD0B3F5003F38D0BBE0B3F5602F00F0AC
S1131490B480B3F5801F39D0B3F5402F00F0A98094
S11314A0AFE0B3F5E01F00F08480B3F5E01F0AD885
S11314B0B3F5C01F00F08F80B3F5D01F21D0B3F572
S11314C0B01F7BD09DE0B3F5201F4ED0B3F5281F8D
S11314D062D0B3F5181F35D093E0FEF7B3FEF86081
S11314E092E0FEF7AFFEF8604A4B9B6803F00F03EF
S11314F01A46FB68D340FB6086E0FEF77FFEF86087
S113150082E04548FFF798FDF8607DE04248FFF728
S113151093FDF8603F4B9B6E03F0F0031B091A46E2
S1131520FB68D340FB606FE03B48FFF785FDF86044
S1131530384B9B6E03F470631B0A1A46FB68D34056
S1131540FB6061E03448FFF777FDF860314B9B6E38
S113155003F440531C0B1020FFF734FC03462344D0
S11315601A46FB68D340FB604EE02B48FFF764FD4E
S1131570F860284B9B6E03F440531B0B1A46FB6820
S1131580D340FB60234BDB6F03F007030133FA689E
S1131590B2FBF3F3FB6037E01F48FFF74DFDF86043
S11315A01C4B9B6E03F003031A46FB68D340FB609D
S11315B02AE01A48FFF740FDF86025E01748FFF7D6
S11315C03BFDF860134B1B6F03F003031A46FB68E3
S11315D0D340FB6018E01148FFF72EFDF8600D4B77
S11315E01B6F03F030031B091A46FB68D340FB60F2
S11315F00AE0FFF79BFCF86006E0FFF73FFCF860A9
S113160002E00023FB6000BFFB6818461437BD46A8
S113161090BD00BF00800C4002001A0003001C00B3
S113162080B485B000AF78600123FB737B6803F05E
S11316300F03BB60BB68013B052B77D801A252F8AE
S113164023F000BF5D16000093160000CF160000C3
S11316502D1700002D1700000B170000384BDB6A14
S113166003F47053B3F5805F09D0B3F5005F03D082
S1131670B3F5006F06D008E00223FB7308E00323F0
S1131680FB7305E00423FB7302E00523FB7300BF37
S11316904FE02B4B9B6A03F00303022B06D0032B72
S11316A007D0012B08D10323FB730FE00223FB7344
S11316B00CE00623FB7309E0214B9B6A03F480339F
S11316C0002B02D00923FB7300E000BF31E01C4B68
S11316D09B6A03F00C03082B06D00C2B07D0042BB9
S11316E008D10323FB730FE00223FB730CE00623F2
S11316F0FB7309E0124B9B6A03F48013002B02D0A6
S11317000923FB7300E000BF13E00D4B1B6803F0DB
S11317108053002B03D0B3F1805F03D009E007238B
S1131720FB7302E00823FB7300BF02E00023FB739A
S113173000BFFB7B18461437BD465DF8047B704739
S113174000800C4080B588B000AF78600B46FB7019
S11317500323FB610323FB7600233B617B6803F0D7
S11317600F03FB60FB68013B052B00F2E98001A23B
S113177052F823F08D170000571800005718000086
S1131780411900004119000017190000FB78023BC1
S1131790072B00F2D98001A252F823F0BD170000F4
S11317A0C7170000D11700000D18000049190000E8
S11317B04919000049190000491900000423FB617C
S11317C00023FB762BE00323FB610123FB7626E059
S11317D00223FB610223FB765E485F49FFF71AFB95
S11317E0FEF7B0FD02465D4B9A4206D95C4A5C4B5B
S11317F01B6843F06003136011E0594A584B1B689F
S113180023F0600343F02003136008E00123FB612D
S11318100323FB764F485049FFF7FCFA00BFFB7ED9
S113182018460121012200F0A1F8FFF7FBFB4C4A06
S1131830FB6953624B48FFF70FFE034618464649BF
S1131840FFF7E8FA00F0F2F8FEF7D8FCB860B868E1
S1131850FFF78CFB75E0FB78013B082B76D801A2DF
S113186052F823F0891800008F1800009F18000018
S11318704D1900004D190000AF1800004D1900006B
S11318804D190000CD18000000237B6123E00020E7
S11318900121012200F06AF802237B611BE0012090
S11318A00121012200F062F801237B6113E0FEF7BD
S11318B0A5FCB860B8682849FFF7ACFA2A480421A7
S11318C00122FFF753FA03237B6104E000237B61C9
S11318D001233B6100BFFB68022B0DD12049204B43
S11318E09B6A23F4803323F003037A691A433B6928
S11318F01B0413438B6224E01949194B9B6A23F49C
S1131900801323F00C037A6992001A433B691B0588
S113191013438B6215E0FB78072B02D0082B07D00A
S113192015E00F4A0E4B1B6823F08053136006E04A
S11319300B4A0B4B1B6843F08053136000BF00E05D
S113194000BFFFF785FA02E000BF00E000BF2037C8
S1131950BD4680BD01366E0100366E010048E801C7
S113196000800C400043020040800C4080B586B0EB
S113197000AF0346FB710B46BB7113467B71FB79C9
S1131980042B4AD801A252F823F000BFD919000051
S1131990CB190000AF190000A1190000BD19000007
S11319A001233B610223FB6001237B611DE00423CF
S11319B03B610823FB6003237B6116E010233B613A
S11319C02023FB6005237B610FE040233B618023E0
S11319D0FB6007237B6108E04FF480733B614FF4A5
S11319E00073FB6009237B6100BFBB79002B0ED021
S11319F00C4A3B6913627B79002B0BD000BF0A4869
S1131A007969FFF7C9F90346002BF8D002E0054ACB
S1131A10FB68136200F00AF800E000BF1837BD4607
S1131A2080BD00BF00800C402C800C4080B400AF0F
S1131A30034BDB6A034A1360BD465DF8047B7047C1
S1131A4000800C400003002080B487B000AFF86031
S1131A50B9607A60FB6803F10473DA00BB6813446D
S1131A609B007B617B697A681A601C37BD465DF810
S1131A70047B704780B485B000AFF860B9607A60C9
S1131A80FB681A68BB68DB431A407B681A43FB682F
S1131A901A601437BD465DF8047B704780B483B088
S1131AA000AF03463960FB71FB79002B0DD0FB7945
S1131AB0012B0AD0FB79022B07D0FB79032B04D02E
S1131AC0FB79042B01D0FB79052B0949FA793B6892
S1131AD0012000FA03F318461346DB0013449B006D
S1131AE00B44103358600C37BD465DF8047B7047D7
S1131AF00060004080B483B000AF03463960FB71DE
S1131B00FB79002B0DD0FB79012B0AD0FB79022B3A
S1131B1007D0FB79032B04D0FB79042B01D0FB798C
S1131B20052B0949FA793B68012000FA03F31846AA
S1131B301346DB0013449B000B44103318600C372E
S1131B40BD465DF8047B70470060004080B586B0F8
S1131B5000AFB9607A601A460346FB731346BB7341
S1131B60FB7B002B0DD0FB7B012B0AD0FB7B022BD4
S1131B7007D0FB7B032B04D0FB7B042B01D0FB7B26
S1131B80052B7B68072B0ED87B689B001A4607231E
S1131B9003FA02F1FB7B7A689200934019481A46D3
S1131BA0FFF768FF10E07B68083B7B617B699B0063
S1131BB01A46072303FA02F1FB7B7A6992009340E9
S1131BC011481A46FFF756FFBB7B104879681A463E
S1131BD0FFF73AFF97F820300D4879681A46FFF767
S1131BE033FF0C4A7B68012101FA03F3C2F81C316C
S1131BF097F82430084879681A46FFF725FF183704
S1131C00BD4680BD006100400461004008610040A1
S1131C100C610040006000401061004090B585B048
S1131C2000AFB9607B600346FB731346BB73FB7B59
S1131C30002B0DD0FB7B012B0AD0FB7B022B07D0A2
S1131C40FB7B032B04D0FB7B042B01D0FB7B052BFC
S1131C50BB7B002B0DD07B68002B05D0FB7B18468B
S1131C60B968FFF747FF04E0FB7B1846B968FFF744
S1131C7015FFBB68072B1CD82A4CFA7B2948F97B33
S1131C800B46DB000B449B0003445B68B968890086
S1131C9008460F218140C9430B40B97BB8688000D6
S1131CA0814019431346DB0013449B0023445960CD
S1131CB024E01C4CFA7B1B48F97B0B46DB000B44ED
S1131CC09B00034408331968BB6803F18043083B55
S1131CD09B0018460F238340DB431940B87BBB6845
S1131CE003F18043083B9B0000FA03F319431346B6
S1131CF0DB0013449B00234408331960BB7B002B97
S1131D000DD17B68002B05D0FB7B1846B968FFF723
S1131D10F1FE04E0FB7B1846B968FFF7BFFE1437F9
S1131D20BD4690BD0060004080B487B000AFF8604D
S1131D30B9607A60FB6803F10473DA00BB6813448A
S1131D409B007B617B697A681A601C37BD465DF82D
S1131D50047B704780B485B000AF786039607B68DD
S1131D60012B05D83B6803F07F43002B00D100BF53
S1131D707B68002B02D0012B03D008E0064BFB60EC
S1131D8002E0064BFB6000BFFB683A681A60143738
S1131D90BD465DF8047B7047080008400C0008400D
S1131DA080B582B000AF0346FB71FB790348002184
S1131DB01A46FFF7B9FF0837BD4680BD000008404A
S1131DC080B485B000AF78607B681B78002B02D0AC
S1131DD00123FB6001E00023FB607B685B78002B40
S1131DE003D0FB6843F00203FB607B689B78002B05
S1131DF003D0FB6843F00403FB60044AFB681360F0
S1131E001437BD465DF8047B704700BF00000840EE
S1131E1080B485B000AFF860B9607A60FB681A6876
S1131E20BB68DB431A407B681A43FB681A601437AB
S1131E30BD465DF8047B704780B586B000AFF8609E
S1131E40B9607A60FB70BB68002B03D12448FFF7AC
S1131E5003FBB860FB78202B0CD0202B02DC002B7A
S1131E6005D03AE0402B08D0602B09D035E0102390
S1131E707B6108E008237B6105E006237B6102E0C7
S1131E8004237B6100BFBB689A007B69796801FB0E
S1131E9003F35B0813443B617B697A6802FB03F339
S1131EA03A69B2FBF3F33B613B69043B3B613B6939
S1131EB09B013B613A690B4B13403B61FB681B6818
S1131EC023F06002FB681A60FB681A68FB781A4307
S1131ED0FB681A60FB683A695A611837BD4680BDD1
S1131EE040810400C0FF1F0080B586B000AFF860D9
S1131EF0B9607A60BB68002B03D11648FFF7ACFACF
S1131F00B860BB685B007B617A687B691344013B02
S1131F107B617A697B68B2FBF3F37B617B69043B89
S1131F207B617B699B017B617B69C0337B617B69DE
S1131F3023F0FF037B617A69074B13407B61FB68E5
S1131F401433184604497A69FFF762FF1837BD460F
S1131F5080BD00BF40810400C0FF1F0080B485B075
S1131F6000AF78600B46FB707B680F4A934207D042
S1131F707B680E4A934203D07B680D4A934200D19A
S1131F8000BFFB78DB43FB60FB6803F00503FB60E9
S1131F90FB685A007B68DA60FA787B68DA60143789
S1131FA0BD465DF8047B704700C0004000C400409B
S1131FB000C8004080B582B000AF786039607B68AB
S1131FC0204A934207D07B681F4A934203D07B6820
S1131FD01E4A934200D100BF786800F09FF83B6826
S1131FE09B7C002B05D07B681B6843F080427B6898
S1131FF01A603B68DB7C002B07D03B681B7D43F0F9
S11320001003DBB21A467B689A653B685B7B1A4611
S11320103B681B8A13433A68D2891A437B685A6027
S11320203B6859683B689A683B681B7B7868FFF794
S113203003FF3B681B781A467B68DA600837BD46A5
S113204080BD00BF00C0004000C4004000C8004084
S113205080B582B000AF786039607B682C4A9342C7
S113206007D07B682B4A934203D07B682A4A934269
S113207000D100BF786800F051F87B681A683B68AB
S11320801B8A43F001039BB219463B689B7B002BE0
S113209002D04FF4806300E000230B431A437B68B3
S11320A01A607B681A683B681B7D002B02D04FF0D6
S11320B0005300E000231A437B681A603B689B7C52
S11320C0002B07D03B68DB7C43F01003DBB21A46DD
S11320D07B689A653B681B7B43F480527B685A603B
S11320E03B685A683B689B68786811461A46FFF754
S11320F0FBFE3B685B7B002B02D07B681022DA601E
S11321003B681B781A467B68DA600837BD4680BD99
S113211000C0004000C4004000C8004080B483B048
S113212000AF78607B68204A934207D07B681F4ADF
S1132130934203D07B681E4A934200D100BF7B6860
S113214040F6AA62DA607B6800221A607B6841F27A
S113215005025A607B6800229A607B6800225A61FB
S11321607B680022DA647B6841F6F9729A647B68C2
S113217000225A657B680C4A934202D17B68002294
S11321801A657B6800229A657B68084A934203D0EB
S11321907B68074A934202D17B680022DA650C37D8
S11321A0BD465DF8047B704700C0004000C4004099
S11321B000C8004080B483B000AF78600B46FB7069
S11321C000BF7B681B6903F04003002BF9D0FA7849
S11321D07B685A6300BF7B681B6903F02003002BF4
S11321E0F9D07B68DB69DBB218460C37BD465DF875
S11321F0047B704780B483B000AF78600B46FB70FB
S113220000BF7B681B6903F04003002BF9D0FA7808
S11322107B685A630C37BD465DF8047B704700BF8A
S113222080B483B000AF0346FB71084997F90730C7
S11322305B09FA7902F01F02012000FA02F241F868
S113224023200C37BD465DF8047B704700E100E0B5
S113225080B483B000AF7860034A7B6893630C3723
S1132260BD465DF8047B704700800C4080B483B0A9
S113227000AF78600549054BDA6B7B681343CB6389
S11322800C37BD465DF8047B704700BF00800C40EE
S113229080B400AF034B1B6B1846BD465DF8047B4E
S11322A0704700BF00800C4080B582B000AFFFF7DC
S11322B0EFFF78600320FFF7CBFF7B6803F0020396
S11322C0002B0BD011200421FFF73CFA032000213E
S11322D00022FFF74BFB034B01221A600837BD466F
S11322E080BD00BF0803002080B500AF1120052188
S11322F0FFF728FA1A480121FFF744F81948012189
S1132300FFF740F818480121FFF73CF802200121AB
S11323100022FFF72BFB0220FFF7A8FF2020FFF786
S11323207FFF00BF114B1B68012BFBD1104A104BE0
S11323301B6823F0030343F0020313600C4A0C4BA5
S11323401B6823F4E00343F480131360084A084B2A
S1132350D3F8803043F00103C2F8803080BD00BF61
S113236000D20400005204000062040008030020AC
S113237000800C4080B582B000AF04200D210422FF
S11323800123FFF74BFC0520032104220123FFF75F
S113239045FC0520042104220023FFF73FFC05200F
S11323A0052104220123FFF739FC00200221042225
S11323B00123FFF733FC0120072104220123FFF747
S11323C02DFC04200C2104220123FFF727FC02200A
S11323D00D2104220123FFF721FC00237B600AE086
S11323E0084A7B6852F823301846012100F086FC25
S11323F07B6801337B607B68072BF1DD0837BD46C2
S113240080BD00BFE001002080B483B000AF7860DD
S11324103960584A574B1B6823F440331360554ABC
S1132420544B1B6823F070631360524A514B1B6872
S113243023F0030313604F4A4E4BDB696FEA1343E7
S11324406FEA0343D3614B494A4BDB691B0C1B0402
S11324507A681343CB61474A464B1B6D23F0030351
S113246043F002031365434A424B1B6D23F440734C
S113247043F4807313653F4A3E4B5B6D1B0C1B0496
S113248053653C4A3B4B1B6D43F0040313653949C8
S1132490384B5B6D1B0C1B043A6813434B65354A80
S11324A0344B9B6A23F4E0239362324A314B9B6A98
S11324B023F0071323F4E06343F0040393622E4AEA
S11324C02D4B1B6823F0030313602B4A2A4B1B6814
S11324D043F010031360284A274B1B6823F00803BA
S11324E01360254A244B1B6823F4403343F4003320
S11324F01360214A204B1B6843F0100313601E4AEB
S11325001D4B1B6B23F0030343F0020313631A4AAE
S1132510194B1B6B43F004031363174A164B1B6BD5
S113252023F4407343F480731363134A124B1B6BFD
S113253023F480131363104A0F4BDB691B0C1B0439
S113254043F01303D3610C4A0B4B9B6A23F007132C
S113255023F4E06343F001039362074A064B9B6A4A
S113256023F4E02343F4403393620C37BD465DF813
S1132570047B7047000001400004014080B483B034
S113258000AF0346FB71084997F907305B09FA79F4
S113259002F01F02012000FA02F241F823200C3756
S11325A0BD465DF8047B704700E100E080B483B071
S11325B000AF0346FB71094997F907305B09FA79C3
S11325C002F01F02012000FA02F2603341F82320D6
S11325D00C37BD465DF8047B704700BF00E100E0A6
S11325E080B483B000AF7860044A7B68C2F81C31C1
S11325F00C37BD465DF8047B704700BF00600040A7
S113260080B483B000AF78600649064BD3F810213C
S11326107B68DB431340C1F810310C37BD465DF8CD
S1132620047B70470060004080B483B000AF7860E2
S11326300649064BD3F810217B681343C1F81031C7
S11326400C37BD465DF8047B704700BF0060004056
S113265080B483B000AF786039607B68DA6C3B6823
S11326601A437B68DA640C37BD465DF8047B704717
S113267080B489B000AFF860084611461A46034694
S11326807B810B463B811346FB807B89FB820023C5
S1132690FB61FB88BB6128E0FB681B8899B20122BF
S11326A0BB6902FA03F39BB2DB439BB20A461340B5
S11326B09BB29AB2FB681A80FB681B8899B2FA8AAB
S11326C0FB6942FA03F303F00102BB6902FA03F364
S11326D09BB20A4613439BB29AB2FB681A80FB6909
S11326E00133FB61BB690133BB613A89FB699A42DF
S11326F0D2DC2437BD465DF8047B7047F0B5CDB01D
S113270008AFDE4B07F1E0041D460FCD0FC40FCD1B
S11327100FC495E8070084E807004FF40463C7F882
S1132720F43007F1E0031C331846012101220B2386
S1132730FFF79EFF07F1E0031C3318460021022235
S11327400923FFF795FF07F1E0031C331846022124
S113275002220323FFF78CFF07F1E0031C33184622
S1132760002103220023FFF783FF07F1E003023374
S11327701846012101220923FFF77AFF07F1E0033C
S113278002331846022102220623FFF771FF07F1E4
S1132790E00302331846002104220223FFF768FFF6
S11327A007F1E00302331846012101220823FFF751
S11327B05FFF07F1E00302331846022102220023DF
S11327C0FFF756FFAE4BC7F8003107F1B40407F129
S11327D0E0050FCD0FC40FCD0FC495E8070084E8C2
S11327E0070007F1B4031A331846012101220F230D
S11327F0FFF73EFF07F1B4031A3318460021052200
S11328000523FFF735FF07F1B4031A3318460121F6
S113281005220023FFF72CFF07F1880407F1E005E8
S11328200FCD0FC40FCD0FC495E8070084E807004F
S113283007F188031A331846012101220F23FFF7F9
S113284017FF07F188031A331846002105220523D0
S1132850FFF70EFF07F188031A33184601210522FA
S11328600023FFF705FF07F188031C3318460121F5
S113287001220B23FFF7FCFE07F188031C331846E3
S1132880012103220023FFF7F3FE07F15C0407F1A3
S1132890E0050FCD0FC40FCD0FC495E8070084E801
S11328A0070007F15C031A331846012101220F23A4
S11328B0FFF7DEFE07F15C031A33184600210522F8
S11328C00523FFF7D5FE07F15C031A3318461121DF
S11328D005220023FFF7CCFE07F15C031C331846E6
S11328E0002101220B23FFF7C3FE07F15C031C3315
S11328F01846002102220323FFF7BAFE07F1300431
S113290007F1E0050FCD0FC40FCD0FC495E8070004
S113291084E8070007F130031A3318460121012225
S11329200F23FFF7A5FE07F130031A3318460021E1
S113293005220523FFF79CFE07F130031A331846DE
S1132940012105220023FFF793FE3B1D4B4A1C4641
S113295015460FCD0FC40FCD0FC495E8070084E8CA
S113296007003B1D02331846032102220623FFF70A
S11329707FFE4FF6FF73C7F80C3100BFD7F80C3158
S11329805A1EC7F80C21002BF8D13E4B1E686D4629
S113299007F1C0040FCC0FC594E80F0085E80F00C1
S11329A007F1B4030ECB304600F04AF9354B5E68AC
S11329B06D4607F1C0040FCC0FC594E80F0085E8FD
S11329C00F0007F1B4030ECB304600F039F92D4B5C
S11329D09E686D4607F194040FCC0FC594E80F0070
S11329E085E80F0007F188030ECB304600F028F984
S11329F0244BDE686D4607F194040FCC0FC594E8B0
S1132A000F0085E80F0007F188030ECB304600F075
S1132A1017F91C4B1E696D4607F13C040FCC0FC51A
S1132A2094E80F0085E80F0007F130030ECB304621
S1132A3000F006F9134B5E696D4607F168040FCC8C
S1132A400FC594E80F0085E80F0007F15C030ECB77
S1132A50304600F0F5F80B4B9E696D4607F16804AB
S1132A600FCC0FC594E80F0085E80F0007F15C0355
S1132A700ECB304600F0E4F806E000BF005700003B
S1132A803C000600E00100200A4BDE696D4607F1B8
S1132A9068040FCC0FC594E80F0085E80F0007F118
S1132AA05C030ECB304600F0CBF807F58A77BD46C1
S1132AB0F0BD00BFE001002080B586B000AFF86033
S1132AC07A601A460B46FB721346BB7200233B61C5
S1132AD0FB7A3B740123FB7510E0FB7DB97AFA7D28
S1132AE08A1AD200796821FA02F2D2B207F11801E7
S1132AF00B4403F8082CFB7D0133FB75FA7DBB7A8C
S1132B009A42EAD9F868002100F0F8F8BB7A013358
S1132B1007F11002104600211A46002300F002F9C2
S1132B20F868012100F0EAF81837BD4680BD00BFFF
S1132B3080B586B000AF78600B46FB701346BB705F
S1132B400023BB810023BB7300237B61FB7843F02C
S1132B504003DBB2BB747868002100F0CFF8BB7887
S1132B6007F1120107F10C0208461146012200F098
S1132B70D9F87868012100F0C1F80023FB7414E04F
S1132B80FB7C07F11802134413F80C3C1946BA787D
S1132B90FB7CD31A013BDB0001FA03F31A467B6981
S1132BA013447B61FB7C0133FB74FA7CBB789A424F
S1132BB0E6D37B6918461837BD4680BD80B582B020
S1132BC000AFFF233B70FF237B70FF23BB70FF2309
S1132BD0FB70FF233B71FF237B71FF23BB71FF233A
S1132BE0FB713B46184600210822002300F09AF8A6
S1132BF00837BD4680BD00BF80B582B000AF7860A5
S1132C000C4A0C4B5B6843F0010353600A4A0A4BBD
S1132C105B6843F0010353607868002100F06EF8AC
S1132C20064B1B681B691846FFF7FEFC0837BD46B8
S1132C3080BD00BF00000140000401403C000020B2
S1132C4084B080B582B000AF786007F1140080E8EA
S1132C500E00BB6A786807211A460323FFF72CFF8E
S1132C60786807210322FFF763FF02467B689A61B5
S1132C70FB8D786809211A460223FFF71DFF786847
S1132C8009210222FFF754FF03469AB27B68DA83D4
S1132C903B8E786819211A460223FFF70DFF7868E6
S1132CA019210222FFF744FF03469AB27B681A8473
S1132CB0FB8A786801211A460223FFF7FDFE786833
S1132CC001210222FFF734FF03469AB27B68DA80BF
S1132CD07B6B786821211A460323FFF7EDFE7868A1
S1132CE021210322FFF724FF02467B685A6208373A
S1132CF0BD46BDE8804004B0704700BF80B582B0D7
S1132D0000AF786039607B6893F830207B6893F873
S1132D10313019463B6810460422FEF77FFF08371E
S1132D20BD4680BD80B584B000AFF860B9607A60FC
S1132D303B600BE0FB681B7810481946FFF73AFA32
S1132D40FB680133FB607B68013B7B607B68002B85
S1132D50F0DC0DE009480021FFF72CFA03461A467F
S1132D60BB681A70BB680133BB603B68013B3B60C6
S1132D703B68002BEEDC1037BD4680BD00C0004030
S1132D80B0B586B000AF1A4B3C461D460FCD0FC4FC
S1132D9095E8030084E8030016480121FEF7F2FADF
S1132DA00420072104220023FEF738FF0420062113
S1132DB001220023FEF732FF04200521042201230F
S1132DC0FEF72CFF0C4B1B685B6ABB600123BB73D3
S1132DD04FF440733B823B4608481946FFF738F9E5
S1132DE0064B40F20B125A651837BD46B0BD00BF02
S1132DF02C570000000204003C00002000C00040EA
S1132E0080B582B002AF0420092102220123FEF71B
S1132E1005FF0123009300230193042009210922C3
S1132E200023FEF793FE0B20FFF7C0FB0B20FFF7F8
S1132E30A5FBBD4680BD00BF90B587B000AF964BE3
S1132E401B681B691846FFF7DBFB4223FB73934B9C
S1132E50D3F81421904B1B681B699A4240F01981E6
S1132E608F4B1B68012B02D18E4B00221A608A4BB8
S1132E701B681B691846FFF7C3FB00237B616DE0E9
S1132E80894A7B6952F8233018460021FFF736FF40
S1132E90FB7B86481946FFF78DF900233B614FE021
S1132EA0834B19687F4B1B68824A126802FB03F04C
S1132EB07A6913465B001344C2183B6913447E4A83
S1132EC01268B3FBF2F002FB00F29B1ACC187748AD
S1132ED00021FFF76FF9034623707B690A2B2CD17D
S1132EE0704B1A68754BA3FB02135B094FF4FA711C
S1132EF001FB03F3D31A3B603B46BB606C4B196880
S1132F00684B1B686B4A126802FB03F07A6913462C
S1132F105B001344C2183B691344674A1268B3FB4D
S1132F20F2F002FB00F29B1A0B443A69C2F102026E
S1132F301146BA680A4412781A703B6901333B613E
S1132F403B69022BACDD584A7B6952F823301846A2
S1132F500121FFF7D3FE7B6901337B617A694E4B14
S1132F601B685B689A428BD34B4B1B68DB6A002B54
S1132F7074D0534B5B687B604D4B1968494B1B689D
S1132F804C4A126802FB03F0434B1B685A68134611
S1132F905B0013440344484A1268B3FBF2F002FB9B
S1132FA000F29B1A0B447A68D2B21A70404B19682B
S1132FB03C4B1B683F4A126802FB03F0364B1B680C
S1132FC05A6813465B001344034401333A4A1268B7
S1132FD0B3FBF2F002FB00F29B1A0B447A6802F492
S1132FE07F42120AD2B21A70314B19682D4B1B68FA
S1132FF0304A126802FB03F0274B1B685A681346D9
S11330005B001344034402332B4A1268B3FBF2F00F
S113301002FB00F29B1A0B447A6802F47F02120C42
S1133020D2B21A70224B19681E4B1B68214A1268CF
S113303002FB03F0184B1B685A6813465B001344E9
S1133040034403331C4A1268B3FBF2F002FB00F2A0
S11330509B1A0B447A68120ED2B21A70114B1B6879
S11330600133104A1360104B1B6818460021FFF708
S113307045FE14480221FFF7EBFA074B1B681B6956
S11330801846FFF7ADFA044B1B681B691846FFF797
S1133090CBFA1C37BD4690BD3C00002000600040C8
S11330A0140300200C030020E001002000C00040B5
S11330B0580300205C03002054030020D34D621009
S11330C00000084000C4004080B483B000AF034651
S11330D0FB71084997F907305B09FA7902F01F027E
S11330E0012000FA02F241F823200C37BD465DF8B6
S11330F0047B704700E100E080B483B000AF034676
S1133100FB71094997F907305B09FA7902F01F024C
S1133110012000FA02F2603341F823200C37BD4647
S11331205DF8047B704700BF00E100E080B483B029
S113313000AF03463960FB7197F90730002B0BDAB7
S11331400D49FB7903F00F03043B3A68D2B25201F4
S1133150D2B20B441A7609E0084997F907303A6865
S1133160D2B25201D2B20B4483F800230C37BD46CD
S11331705DF8047B704700BF00ED00E000E100E073
S113318080B483B000AF786039607B68DA6C3B68E8
S1133190DB431A407B68DA640C37BD465DF8047B78
S11331A0704700BF80B586B000AF23480121FEF709
S11331B0E9F80320072104220123FEF72FFD032051
S11331C0062101220023FEF729FD3B4600221A6056
S11331D0043300221A60043300221A6004330022EC
S11331E01A60043300221A60043300221A60043384
S11331F0124B1B689B6ABB6005237B734FF480539F
S11332003B823B460E481946FEF7D4FE0C4B40F277
S113321003225A651020FFF76FFF1020FFF754FFB9
S113322007480521FEF79AFE10200121FFF77EFFD3
S11332301837BD4680BD00BF001204003C000020CA
S113324000C4004080B582B000AF2B4B1B682B4AF2
S1133250126802FB03F22A4B1B68D31A294A136033
S1133260284B1B68002B02D0012B09D020E02648F4
S11332700221FFF785FF24481E21FEF7BBFF38E03B
S1133280224B19681E4B1B68214A1268B3FBF2F0EB
S113329002FB00F29B1A0B441B78DBB21A48194656
S11332A0FEF7A8FF164B1B680133154A136020E094
S11332B000237B6019E0154B1968114B1B68144AF5
S11332C01268B3FBF2F002FB00F29B1A0B441B786A
S11332D0DBB20D481946FEF78DFF094B1B6801331D
S11332E0074A13607B6801337B607B68012BE2DD56
S11332F000BF0837BD4680BD0C0300205C030020DE
S1133300100300206003002000C400405803002084
S11333105403002080B400AFBD465DF8047B7047C1
S113332080B58EB000AFFFF7F5FFFEF7DDFFFFF7C6
S113333021F8FFF725FDFFF741FCFFF761FDFFF7DB
S1133340DDF9FDF70FFB3A4B1B685A68384B1B68D5
S1133350DB6A1344374A1360354B1B685A681346BB
S11333605B001A44324B1B68DB6A9B001344324AED
S113337013602F4B1B689B682F4A126802FB03F3F0
S11333802E4A13602A4B1B681A68294B1B68DB6999
S1133390B2FBF3F35B08013B7B63786B00F09AF9B3
S11333A002460B46104619464FF00002244B00F02B
S11333B007FA02460B461046194600F03BFC03464A
S11333C03B631E4B1B68184600F0C6FD02461D4BAE
S11333D01A60786B396BFFF717F8FFF7E3FE0020EC
S11333E0FDF780F80346BB6007F1080207F10C0300
S11333F01046194600F0CAFC134B1B681846FFF729
S1133400FBFB0020FDF76EF803467B603A1D07F1D5
S11334100C031046194600F0B9FC0C4B1B78DBB2C8
S1133420002B04D0094B00221A70FDF7C7F9E8E716
S11334303C000020500300205C03002054030020C3
S11334400000E03F58030020E001002008000020B5
S113345081F0004102E000BF83F0004330B54FEA41
S113346041044FEA430594EA050F08BF90EA020FAE
S11334701FBF54EA000C55EA020C7FEA645C7FEA41
S1133480655C00F0E2804FEA5454D4EB5555B8BF64
S11334906D420CDD2C4480EA020281EA030382EAD5
S11334A0000083EA010180EA020281EA0303362D67
S11334B088BF30BD11F0004F4FEA01314FF4801C3A
S11334C04CEA113102D0404261EB410113F0004F4C
S11334D04FEA03334CEA133302D0524263EB430303
S11334E094EA050F00F0A780A4F10104D5F1200EA1
S11334F00DDB02FA0EFC22FA05F2801841F10001FC
S113350003FA0EF2801843FA05F359410EE0A5F1CF
S113351020050EF1200E012A03FA0EFC28BF4CF000
S1133520020C43FA05F3C01851EBE37101F00045B6
S113353007D54FF0000EDCF1000C7EEB00006EEBC3
S11335400101B1F5801F1BD3B1F5001F0CD349084D
S11335505FEA30004FEA3C0C04F101044FEA4452A4
S113356012F5800F80F09A80BCF1004F08BF5FEA2B
S1133570500C50F1000041EB045141EA050130BD0B
S11335805FEA4C0C404141EB010111F4801FA4F1AE
S11335900104E9D191F0000F04BF01460020B1FA03
S11335A081F308BF2033A3F10B03B3F120020CDA3B
S11335B00C3208DD02F1140CC2F10C0201FA0CF019
S11335C021FA02F10CE002F11402D8BFC2F1200C7E
S11335D001FA02F120FA0CFCDCBF41EA0C01904034
S11335E0E41AA2BF01EB0451294330BD6FEA04047D
S11335F01F3C1CDA0C340EDC04F11404C4F1200268
S113360020FA04F001FA02F340EA030021FA04F379
S113361045EA030130BDC4F10C04C4F1200220FAD0
S113362002F001FA04F340EA0300294630BD21FA0E
S113363004F0294630BD94F0000F83F4801306BFD4
S113364081F480110134013D4EE77FEA645C18BFC8
S11336507FEA655C29D094EA050F08BF90EA020F5F
S113366005D054EA000C04BF1946104630BD91EA57
S1133670030F1EBF0021002030BD5FEA545C05D15A
S11336804000494128BF41F0004130BD14F5800499
S11336903CBF01F5801130BD01F0004545F0FE410D
S11336A041F470014FF0000030BD7FEA645C1ABF42
S11336B0194610467FEA655C1CBF0B46024650EA79
S11336C0013406BF52EA033591EA030F41F40021A5
S11336D030BD00BF90F0000F04BF0021704730B52B
S11336E04FF4806404F132044FF000054FF0000100
S11336F050E700BF90F0000F04BF0021704730B5C1
S11337004FF4806404F1320410F0004548BF404295
S11337104FF000013EE700BF42004FEAE2014FEAEA
S113372031014FEA02701FBF12F07F4393F07F4FC5
S113373081F06051704792F0000F14BF93F07F4FF7
S1133740704730B54FF4607401F0004521F000413A
S113375020E700BF50EA010208BF704730B54FF0C0
S113376000050AE050EA010208BF704730B511F0C5
S1133770004502D5404261EB41014FF4806404F1FD
S113378032045FEA915C3FF4DCAE4FF003025FEA7F
S1133790DC0C18BF03325FEADC0C18BF033202EB07
S11337A0DC02C2F1200300FA03FC20FA02F001FA61
S11337B003FE40EA0E0021FA02F11444C1E600BF00
S11337C070B54FF0FF0C4CF4E06C1CEA11541DBFB3
S11337D01CEA135594EA0C0F95EA0C0F00F0DEF87E
S11337E02C4481EA030621EA4C5123EA4C5350EA63
S11337F0013518BF52EA033541F4801143F48013B4
S113380038D0A0FB02CE4FF00005E1FB02E506F044
S11338100042E0FB03E54FF00006E1FB03569CF099
S1133820000F18BF4EF0010EA4F1FF04B6F5007F9F
S113383064F5407404D25FEA4E0E6D4146EB060611
S113384042EAC62141EA55514FEAC52040EA5E509A
S11338504FEACE2EB4F1FD0C88BFBCF5E06F1ED844
S1133860BEF1004F08BF5FEA500E50F1000041EB7B
S1133870045170BD06F0004646EA010140EA020028
S113388081EA0301B4EB5C04C2BFD4EB0C0541EA4A
S1133890045170BD41F480114FF0000E013C00F35F
S11338A0AB8014F1360FDEBF002001F0004170BD83
S11338B0C4F10004203C35DA0C341BDC04F114049C
S11338C0C4F1200500FA05F320FA04F001FA05F228
S11338D040EA020001F0004221F0004110EBD370F5
S11338E021FA04F642EB06015EEA430E08BF20EA21
S11338F0D37070BDC4F10C04C4F1200500FA04F3C4
S113390020FA05F001FA04F240EA020001F0004155
S113391010EBD37041F100015EEA430E08BF20EAC8
S1133920D37070BDC4F1200500FA05F24EEA020E10
S113393020FA04F301FA05F243EA020321FA04F03F
S113394001F0004121FA04F220EA020000EBD370F6
S11339505EEA430E08BF20EAD37070BD94F0000FF6
S11339600FD101F00046400041EB010111F4801F2A
S113397008BF013CF7D041EA060195F0000F18BFDB
S1133980704703F00046520043EB030313F4801F17
S113399008BF013DF7D043EA0603704794EA0C0FD1
S11339A00CEA135518BF95EA0C0F0CD050EA4106E7
S11339B018BF52EA4306D1D181EA030101F0004164
S11339C04FF0000070BD50EA410606BF104619468C
S11339D052EA430619D094EA0C0F02D150EA013698
S11339E013D195EA0C0F05D152EA03361CBF1046D9
S11339F019460AD181EA030101F0004141F0FE4178
S1133A0041F470014FF0000070BD41F0FE4141F4FB
S1133A10780170BD70B54FF0FF0C4CF4E06C1CEAFB
S1133A2011541DBF1CEA135594EA0C0F95EA0C0FB0
S1133A3000F0A7F8A4EB050481EA030E52EA03356B
S1133A404FEA013100F088804FEA03334FF080558C
S1133A5045EA131343EA12634FEA022245EA1115B9
S1133A6045EA10654FEA00260EF000419D4208BF6A
S1133A70964244F1FD0404F5407402D25B084FEA17
S1133A803202B61A65EB03055B084FEA32024FF4C3
S1133A9080104FF4002CB6EB020E75EB030E22BF20
S1133AA0B61A754640EA0C005B084FEA3202B6EBE0
S1133AB0020E75EB030E22BFB61A754640EA5C008F
S1133AC05B084FEA3202B6EB020E75EB030E22BF1F
S1133AD0B61A754640EA9C005B084FEA3202B6EB20
S1133AE0020E75EB030E22BFB61A754640EADC00DF
S1133AF055EA060E18D04FEA051545EA16754FEA41
S1133B0006164FEAC30343EA52734FEAC2025FEA5E
S1133B101C1CC0D111F4801F0BD141EA00014FF0ED
S1133B2000004FF0004CB6E711F4801F04BF0143BE
S1133B300020B4F1FD0C88BFBCF5E06F3FF6AFAEDA
S1133B40B5EB030C04BFB6EB020C5FEA500C50F16A
S1133B50000041EB045170BD0EF0004E4EEA1131ED
S1133B6014EB5C04C2BFD4EB0C0541EA045170BDF4
S1133B7041F480114FF0000E013C90E645EA060E38
S1133B808DE60CEA135594EA0C0F08BF95EA0C0F66
S1133B903FF43BAF94EA0C0F0AD150EA01347FF4AE
S1133BA034AF95EA0C0F7FF425AF104619462CE785
S1133BB095EA0C0F06D152EA03353FF4FDAE1046E8
S1133BC0194622E750EA410618BF52EA43067FF439
S1133BD0C5AE50EA41047FF40DAF52EA43057FF4C9
S1133BE0EBAE12E74FEA410212F5001215D211D5DD
S1133BF06FF47873B3EB625212D94FEAC12343F0E6
S1133C00004343EA505311F0004F23FA02F018BF67
S1133C10404270474FF00000704750EA013005D130
S1133C2011F0004008BF6FF0004070474FF00000F3
S1133C30704700BF4A0011D212F5001211D20DD5FF
S1133C406FF47873B3EB62520ED44FEAC12343F09E
S1133C50004343EA505323FA02F070474FF0000048
S1133C60704750EA013002D14FF0FF3070474FF0F7
S1133C7000007047F8B5C1F30A56A6F2FF35132DBC
S1133C8002460B460C46864610DC002D2EDB0F4602
S1133C901E492941194226D04FF400242C413C44AA
S1133CA024EA0104002321461846F8BD332D05DD1E
S1133CB0B5F5806F20D010461946F8BDA6F2134022
S1133CC04FF0FF31C1401142F5D0C6F58666023689
S1133CD00122B24012EB0E0222EA010328BF013492
S1133CE021461846F8BD0028D6D1E4E7013501F095
S1133CF0004404D00023D6E7FFF7B0FBF8BD44F03E
S1133D007F5444F440140023CDE700BFFFFF0F00AD
S1133D100028B8BF4042704708B5074B044613B1AA
S1133D200021AFF30080054B1868836A03B19847FC
S1133D30204601F079FC00BF000000004857000055
S1133D4070B50E4B0E4CE41AA41000251E46A54275
S1133D5004D056F8253098470135F8E701F066FCA1
S1133D60084C094BE41AA41000251E46A54204D0B1
S1133D7056F8253098470135F8E770BDB4020020A5
S1133D80B4020020B8020020B40200202DE9F04162
S1133D900C46804600F07CFE21460746404600F073
S1133DA07BFE466906F26C76B307044605D16422AD
S1133DB096FBF2F302FB13634BB94FF4C87596FB01
S1133DC0F5F305FB1365B5FA85F35B0900E0012300
S1133DD05F4A302505FB032500F078FC00F078FCF1
S1133DE05C4B1B68F3B17B689E4205D13968D8F8F7
S1133DF00030FA6941B90AE0304600F0C1FB0028FE
S1133E00F4D14FF0FF330DE0934208DB01E093421D
S1133E1007DABA6B9342ACBF0023012302E000230C
S1133E2000E001232362236A012B0CBFF96B396A7A
S1133E304FF461633C2091FBF3F603FB16136168B6
S1133E4093FBF0F200FB12302368891AA2686160C8
S1133E501B1A921B3B2B2360A26003DD01316160BE
S1133E603C3B04E0002B03DA013961603C332360FE
S1133E7063683B2B03DD0132A2603C3B04E0002B72
S1133E8003DA013AA2603C336360A368172B22DD96
S1133E90E2690132E261A2690132062AC8BF002246
S1133EA0A261E268183B0132A3602369E26055F81D
S1133EB023108A4246DD01330C2B0CBF6369236156
S1133EC0A2EB0102E26001BF0133002222616361BF
S1133ED008BFE26136E0002B34DAE269013AE261BC
S1133EE0A269013A48BF0622A261E2681833013A86
S1133EF0E260A36032BB2369013B01D423611DE06E
S1133F000B23236163695A1E12F0030F626103F2EB
S1133F106B7305D1642193FBF1F201FB12324AB9B0
S1133F204FF4C87193FBF1F201FB1233B3FA83F33C
S1133F305B0900E0012303F5B673E361236955F8D7
S1133F402330E36000F0C3FB2046BDE8F08100BFEE
S1133F50AC5700003C030020024B0146186800F0F7
S1133F60A9BA00BF60020020024B0146186800F0A5
S1133F705DBA00BF6002002002440346934202D0AF
S1133F8003F8011BFAE7704737B501683B2904467B
S1133F9011D93C22684600F023FD019A6168009B18
S1133FA0002A0B446360BBBF3C3203F1FF33226041
S1133FB02260B8BF636061683B2911D93C2268461E
S1133FC000F00EFD019AA168009B002A0B44A36037
S1133FD0BBBF3C3203F1FF3362606260B8BFA360D1
S1133FE0A168172911D91822684600F0F9FC019A32
S1133FF0E168009B002A0B44E360BBBF183203F165
S1134000FF33A260A260B8BFE36021690B2911D914
S11340100C22684600F0E4FC019A6169009B002AC6
S11340200B446361BBBF0C3203F1FF332261226195
S1134030B8BF636163699D0712D1642193FBF1F2F8
S113404001FB123272B903F26C734FF4C87193FB23
S1134050F1F201FB1233002B14BF1C231D2302E0D9
S11340601C2300E01D23E268002A37DCE568002DEC
S11340705CDC21690139216101311CD16369591E5C
S11340800B2288076161226112D1642291FBF2F054
S113409002FB101171B903F26B734FF4C87293FBF6
S11340A0F2F102FB1133002B14BF1C231D2302E089
S11340B01C2300E01D232269012A1ABF1C4951F860
S11340C022201A462A44E260D0E799422EDD18469F
S11340D00132091A0C2AE160226109D02269E168DF
S11340E0012AF2D0124850F822008142F0DC1DE08F
S11340F0636900215A1C21619107626112D1642015
S113410092FBF0F100FB112272B903F26D734FF4CC
S1134110C87193FBF1F201FB1233002B14BF1C2373
S11341201D23DBE71C23D9E71D23D7E703B030BDEC
S11341307C5700002DE9F047804600F0A9FC814639
S11341404046FFF721FF98E80C003C2000FB0323C6
S1134150D8F80820D8F80C404FF4616707FB023008
S1134160D8F81030AE4A52F82320013C012B1444F5
S1134170D8F8143011DD9A070FD1642193FBF1F2C2
S113418001FB123242B903F26C754FF4C87295FB0D
S1134190F2F102FB115202B9013403F51C52103240
S11341A044F620618A42C8F81C401E4600F233815E
S11341B0462B21DD46218F0714D1642591FBF5F2AE
S11341C005FB12128AB901F26C774FF4C87297FB9F
S11341D0F2F502FB1572002A40F26D1208BF4FF48B
S11341E0B77204E040F26D1201E04FF4B77201318E
S11341F099421444DFD143E042D0452199421EDD67
S11342008E0714D1642591FBF5F205FB12128AB9CD
S113421001F26C764FF4C87296FBF2F502FB15625C
S1134220002A40F26D1208BF4FF4B77204E040F266
S11342306D1201E04FF4B772A41A0139DEE7452B81
S1134240A8BF45239D071E4614D1642293FBF2F3B5
S113425002FB13638BB906F26C714FF4C87391FBC4
S1134260F3F203FB1213002B40F26D1308BF4FF45B
S1134270B77304E040F26D1301E04FF4B773E41A2E
S1134280684F07FB040700F021FA00F021FA664B9F
S11342901D68002D00F0AA80D8F82030D8F814004A
S11342A0012BA8BF01239A46D9F8043000F26C70A0
S11342B098420DD1D9F83820D9F82030D9F83C00EB
S11342C0D9F81C10D51AAF42A1EB000105DA07E0BA
S11342D000F056F90028EDD17BE0121A974278DB02
S11342E0D9F8002012B18F427BDB01E08F4207DA5C
S11342F0AF42ACBF00250125BAF1000F04DA69E032
S1134300BAF1000F68DB012585EA0A0ABAF1010F48
S113431060D11B1A05B95B42D8F80020D8F80CA06C
S11343201A44C8F8002040461F44FFF72DFED8F871
S11343300C30B3EB0A034DD0012B03DC981CD8BF1F
S1134340012301E04FF0FF33D8F81C201C449B18D4
S11343501DD5731E990714D1642193FBF1F201FB5F
S113436012338BB906F26B764FF4C87296FBF2F3F4
S113437002FB1366002E40F26D1318BF4FF4B673A0
S113438024E04FF4B67321E040F26D131EE0B2074F
S113439014D1642196FBF1F201FB12628AB906F290
S11343A06C764FF4C87196FBF1F201FB1266002E95
S11343B040F26D1208BF4FF4B77204E040F26D1280
S11343C001E04FF4B7729A42D8BF9B1AC8F81C3068
S11343D000E05546012D09D1D9F83C0001253E18CD
S11343E007E0BAF1000F4FF000058DDAD9F820008C
S11343F03E1800F06CF90434072394FBF3F3C3EB89
S1134400C303E41A48BF0734C8F82050C8F818405A
S11344103046BDE8F0874FF0FF30BDE8F08700BFBD
S11344204C570000805101003C03002030B50029A6
S11344303DD051F8042C0B1F1D49002AB8BF9B180E
S11344400A680C4612B95A600B6030BD93420DD213
S113445019685818904201BF5A5852181A60426895
S11344605A60236030BD994203D80A465168002936
S1134470F9D1146815199D420AD11B682344D01838
S11344808842136013D10868034413604B680DE03D
S113449002D90C23036030BD1C681819884204BF7C
S11344A008684968596004BF00191860536030BD3A
S11344B01C03002070B5CC1C24F0030408340C2C1D
S11344C038BF0C24002C064603DA0C23336000208A
S11344D070BD8C42F9D3204A136810461946A1B125
S11344E00A68121B0ED40B2A03D90A608B188C504D
S11344F01FE08B420DBF5A684A685A60026018BFB9
S11345000B4616E00B464968E9E7144D2B681BB9C6
S1134510304600F025F828603046214600F020F8A7
S1134520421C0346D1D0C51C25F0030585420AD19F
S11345301C6003F10B001A1D20F00700821A0AD038
S11345405142995070BD3046E91A00F009F8013023
S1134550BBD02B46ECE770BD1C03002018030020E1
S113456038B5064C002305460846236001F04EF892
S1134570431C02D1236803B12B6038BD64030020BF
S11345802DE9F047044600F083FA40F2B1739C42EF
S113459040F394806FF4F66E04EB0E03A4F2B2724F
S11345A09B1040F26D1606FB02366FF4C86C6FF078
S11345B06303A4F26D7292FBF3F2B3184FF4C8755F
S11345C004EB0C0696FBF5F61E446423446094FB4E
S11345D0F3FE014603FB1E4E00F1380C94FBF5F389
S11345E005FB1345B5FA85F56D090B7A4A2B11D1F4
S11345F04B69A70706EB030202D1BEF1000F00D1FD
S113460025B13B2BD4BF0023012300E02B461344E8
S1134610013B3FE0442B02D14B6933443AE0A2070B
S113462005D1BEF1000F0CBF2B46012300E02B4641
S1134630244A4FF0300909FB0329CA68A9F1040789
S1134640B2460123934204DA57F8048F0133C2447B
S1134650F8E7012AB8BF0122904607270AF10402AD
S113466092FBF7F7C7EBC707D71B4A69D21B0F6941
S113467008F1804807F1FF3708F1FF3848BF0732D7
S1134680C7EBC707BB1859F82820934201DB073B47
S1134690FBE753448A690C4F07FB03230F6A3B442F
S11346A041F81C3F6145A0D1C369826B9342ACBF02
S11346B00023012303600120BDE8F0870020BDE84A
S11346C0F08700BFAC57000080510100704770476D
S11346D0014B186800F002B8600200202DE9F04F89
S11346E08DB0074600F0D4F9B149B24E04463846BD
S11346F000F0C6F9054660B9AF4BB04A1860B04B3C
S11347001860B04B30681A605A60FFF72DFC3560B2
S11347104BE1316879B93068FFF726FC284600F090
S11347208FFA411C3846FFF7C5FE306048B1294670
S113473000F07EFA05E000F071FA002800F03581FF
S1134740E9E72B78A049A14A3A2B08BF01350AAE04
S11347502846334600F036FA002840F326810A9BA7
S1134760EF18EB5C2D2B03D101374FF0FF3804E039
S11347702B2B08BF01374FF001080DF11E0A0DF174
S1134780200B0025CDF800A00196CDF808B00396C3
S113479038468F49ADF81E5007AA3346ADF820506D
S11347A000F010FAA84240F30081BDF81E20BDF8C5
S11347B02030DFF828923C2101FB0233BDF81C2095
S11347C04FF4616101FB023303FB08F3DFF8F4816A
S11347D023627E4BC8F800300A9B7B491F4438464D
S11347E04A46334600F0EEF9A84209DCD8F8003016
S11347F0C8F80430704B226A1A60714B1D60D4E013
S11348000A9BC8F80490FD18FB5C2D2B03D10135DD
S11348104FF0FF3703E02B2B08BF0135012700239E
S11348206B49ADF81C3007AAADF81E30ADF8203046
S11348300A9328463346CDF800A00196CDF808B077
S1134840039600F0BFF90028C5BFBDF82030BDF8BD
S11348501E20236A3C21C1BF01FB0233BDF81C208A
S11348604FF4616101FB0233CCBF7B43A3F5616369
S1134870E3630A9B27461D444FF000092B782C2B39
S113488008BF013595F80080B8F14D0F26D109AB6A
S11348908DE848000DF126030293039628464D49FE
S11348A00DF12202334600F08DF903287DD1BDF8C5
S11348B022104B1E0B2B78D8BDF82420531E042B3A
S11348C073D8BDF82630062B6FD887F80880F960B6
S11348D03A617B610A9B05EB03082AE0B8F14A0FB1
S11348E006BF01354346442328460BA90A220593F3
S11348F000F044FADDF82C80ADF82600A845059BAD
S113490014D14D23B9F1000F07D123720323E360BF
S113491002232361C4F814900BE084F824300B23A1
S1134920A3620123E3620023236302E080B23B72AB
S113493078610223ADF81C300023ADF81E30ADF8C9
S113494020300A9398F800302F2B0BD1CDF800A01B
S11349500196CDF808B0039640461F4907AA33468E
S113496000F030F9BDF81E20BDF820303C2101FBD9
S11349700233BDF81C204FF4616101FB0233BB61BB
S11349800A9D1C374544B9F1000F02D14FF00109CB
S113499074E76068FFF7F4FD074A236A1360E26B6B
S11349A09B1A074A18BF012313600DB0BDE8F08FAE
S11349B00C58000038030020400300200F5800006A
S11349C03C03002064020020135800002B03002045
S11349D036580000225800003558000020030020FB
S11349E0002910B591FBF2F402FB141304DB002B35
S11349F007DA01349B1A04E0002BC4BF04F1FF342E
S1134A009B180460436010BD2DE9F84F06468A46A2
S1134A10174600F0C1F9194B1C68994634B1534646
S1134A20984613F8012B3AB13D2AF9D1304600F0EB
S1134A30B4F90020BDE8F88FCAEB0808A34654F87F
S1134A40040B0028F2D05146424600F001F9002838
S1134A50F4D154F8043C03EB080513F808303D2B5B
S1134A60ECD1D9F80030C3EB0B039B1030463B600C
S1134A7000F093F9681CBDE8F88F00BFB002002075
S1134A8007B501AAFFF7C0FF03B05DF804FB0000FF
S1134A90004870476C0200200068464A90FBF2F31D
S1134AA002FB13000028B8BF00F5A830F0B5B8BF6A
S1134AB000F5C0704FF4616403F52F2390FBF4F20A
S1134AC004FB12004FF03C04ACBF03F66C2303F666
S1134AD06B238A6090FBF4F204FB12004A600860C6
S1134AE00722D81C90FBF2F2C2EBC202821A8A613E
S1134AF0314A324E93FBF6F602FB063248F6AC64BA
S1134B00B2FBF4F4A51840F2B450B2FBF0F02C1A46
S1134B102B4BB2FBF3F34FF0640EE01A40F26D142A
S1134B20B0FBF4F3B3FBFEF73A4404FB1322A2EB0D
S1134B309302992002EB8205023502F1010CB5FBC8
S1134B40F0F50A2D00FB05F000F102044FF005001A
S1134B50B4FBF0F0C0EB0C0434BF02206FF009008A
S1134B6005444FF4C87000FB0636012D98BF01368A
S1134B70B2F5997F02D3A2F5997211E0980702D198
S1134B800EFB17374FB94FF4C877B3FBF7F007FBA9
S1134B901033B3FA83F35B0900E001233B321A4478
S1134BA0A6F26C760023CA614E610D61CC600B6283
S1134BB00846F0BD805101004FC5FDFFB13A020027
S1134BC0B03A02000EB430B59CB01FAC4FF4017281
S1134BD054F8045BADF814200290069000F030F80D
S1134BE00B4B0B9300230F9314934FF6FF73ADF805
S1134BF01630084B0390079002A9186801942A46BE
S1134C00234600F025F91CB0BDE8304003B07047DE
S1134C10194C0000600200200020704710F8012B9E
S1134C2011F8013B012A28BF9A42F7D0D01A7047E5
S1134C30034611F8012B03F8012B002AF9D1704720
S1134C40034613F8012B002AFBD1181A01387047C8
S1134C5070B5AAB1451E01396B7811F8014FA34212
S1134C6005F1010606D16FF00104641B1444E0420F
S1134C7002D11C46181B70BD3546002BECD1F8E759
S1134C80104670BD2DE9F0473B4CD4F800900E4619
S1134C90354615F801EB09EB0E04677807F00804B4
S1134CA004F0FF070CB12E46F2E774462D2C03D115
S1134CB0B51C7478012703E02B2C04BF7478B51C51
S1134CC013B1102B0AD151E0302C4DD12C7804F0C3
S1134CD0DF04582C43D16C78102302354FF0FF3891
S1134CE00026B8FBF3F803FB08FA6FEA0A0AB64693
S1134CF009EB040C9CF801C01CF0040F01D0303CFB
S1134D000BE01CF0030C1BD0BCF1010F0CBF4FF0E7
S1134D10370C4FF0570CCCEB04049C4210DAB6F17C
S1134D20FF3F0AD0C64506D801D1544503DC03FB36
S1134D300E4E012601E04FF0FF3615F8014BD7E780
S1134D40741C734603D122230360334602E00FB17F
S1134D50CEF100036AB106B1691E116009E0302486
S1134D60002BBBD10823B9E70A23B7E7302CB5D110
S1134D70ACE71846BDE8F087AC02002030B5134616
S1134D80044A05460C46106829462246BDE83040D0
S1134D90FFF778BF600200207047704738B54B1C9E
S1134DA0144602D14FF0FF3038BD938923F020031D
S1134DB09381536B5268CDB283B1A36B9A4207DAE5
S1134DC023685A1E226003F8015C636801331FE004
S1134DD0214600F095FB0028F2D0E3E7216923681F
S1134DE051B18B4208D913F8010CA84204D1013BFC
S1134DF001322360626038BDE36304F144036363FA
S1134E000323A3632346226403F8465F236001233C
S1134E106360284638BD10B50C46496B69B104F18E
S1134E204403994201D0FFF701FB236C6360002027
S1134E30606313B1E36B236010BD23692360002317
S1134E406360A38943F02003A3814FF0FF3010BDBA
S1134E502DE9F047ADF5247D0DF10C0A01930023F3
S1134E60469347939C4BA2939C4BCDF820A10746B5
S1134E700C469046A39398F80050002D00F024812E
S1134E8097490B682B4489465B7803F0080303F0C9
S1134E90FF02EBB16368002B10DD2368D9F8001022
S1134EA01A780A44527815070ED5479A0132479268
S1134EB062680133013A62602360EBE7A39B3846E2
S1134EC0214698470028E8D008F10106B046D2E709
S1134ED0252D08F101064FD14592439298F80130EF
S1134EE02A2B03D11023439308F102063178A1F150
S1134EF03003092B354606F1010606D8459B0A22E4
S1134F0002FB0313303B4593F0E7DFF8DC81032217
S1134F10404600F030FB40B10123C8EB000003FA27
S1134F2000F2439B1343439335466E1C2D78672D43
S1134F300FD8652D78D25B2D54D005D8002D00F004
S1134F40C580252D18D071E0632D57D0642D3FD036
S1134F506CE0702D32D007D86E2D55D03AD8692D1B
S1134F6064D1002344933BE0752D31D0782D29D0B2
S1134F70732D5BD102233FE06368002B0DDD2368B2
S1134F801A78AA4240F0A080013362682360479BEC
S1134F90013A01336260479398E7A39B3846214660
S1134FA098470028EBD04698002800F08F80A3890A
S1134FB013F0400F18BF4FF0FF3089E0439B43F0DC
S1134FC020034393439B43F400734393102302E071
S1134FD00A2300E008236E2D449301DD04230BE033
S1134FE0032309E03146504600F0D2F9439B43F0D5
S1134FF0400343930646012349931BE0439B43F03C
S1135000400343930023F7E7439AD0063FF55EAF8E
S113501012F0010F019A479B02F1040101911268F9
S113502014BF1380136051E70523E5E70323499375
S11350300A2344936368002B03DD439B590611D56F
S113504018E0A39B3846214698470028F5D0AAE7E4
S1135050479A013247926268013A002A626013DD7E
S1135060013323602368D9F800101A780A4452786F
S11350701207EDD4499B022B0DDC384643A9224686
S113508001AB00F033F819E0A39B3846214698475A
S11350900028E7D087E7042B06DC384643A92246DC
S11350A001AB00F083F809E00E4B002B3FF40EAF88
S11350B0384643A9224601ABAFF30080012803D050
S11350C002287FF403AF6EE7469801E04FF0FF300B
S11350D00DF5247DBDE8F0879D4D0000174E0000BE
S11350E0AC02002000000000495900002DE9F04105
S11350F015468A6880460C4632B98A69002A0CBF74
S113510001224FF0FF328A602268D1065FBF1A681D
S1135110111D196017680026A06900BB2368DA0610
S11351205EBF2B681B783B702A686B6802F1010232
S11351302A60A26803F1FF3302F1FF326B6006F1CB
S1135140010658BF0137A260EAB1002BE4DCD4F8B1
S113515080314046294698470028DDD013E00128D5
S113516007D12B6862691B78D35C002BD6D1C6B1FA
S113517009E0022807D12B680B4A1B7812681344F4
S11351805B781B07CAD5236813F0100305D1E268C6
S11351900132E260A26902B13B7023691E442661B8
S11351A00020BDE8F08100BFAC0200202DE9F04FE3
S11351B09A46734B0C468346164693E8070087B01D
S11351C003AB83E807006F4BA1696F4A032918BF3B
S11351D01A46A36800925A1EB2F5AE7F81BF6FF4DF
S11351E0AE7503EB050840F25D13A360236804F178
S11351F01C0943F45063236098BF4FF000084F46E6
S113520000233268019303A951F823001178022284
S113521000F0B1F9019B002836D0012B0BD1626854
S11352202AB908226260226842F40072226022686D
S113523022F4A0620BE0022B0AD1226802F4C061BE
S1135240B1F5007F20D11021616042F480722260A8
S1135250A268511EA160BAB13268511C3160127843
S11352603A707268013A002A07F1010572600ADC9B
S1135270D4F880210193584631469047002840D104
S11352802F46019B00E02F460133032BB9D16368FD
S11352900BB90A23636063683C496069C91A00F06A
S11352A077F83D460027A36863B3316860690A78DC
S11352B0805C38B3302A22680AD1100508D501373A
S11352C0B8F1000F0AD0013308F1FF38A36005E0FC
S11352D022F4106222600B782B7001357368013B55
S11352E0002B736003DD33680133336005E0D4F8C9
S11352F0803158463146984720B9A368013BA360E2
S1135300D1E700272368D9050DD54D4509D915F8EE
S1135310011CD4F87C3158463246984705F1FF38D1
S113532045464D4527D0226812F010021BD12A7041
S11353306368009E58464946B0472268DAF8003050
S113534012F0200F07D1D20705D51A1DCAF8002084
S11353501B68188004E01A1DCAF800201B68186036
S1135360E3680133E360C9EB05053D4427693D4427
S11353702561002000E0012007B0BDE8F08F00BFE8
S113538050590000854C0000F55300006C59000092
S1135390F0B50A785E2A13BF4B1C8B1C4A78002197
S11353A008BF0121441E00F1FF0504F8011FAC42AF
S11353B0FBD10AB9581EF0BDC1F10104E7B287540C
S11353C019782D2903F1010605D05D290ED079B194
S11353D00A463346F2E75D785D2DF9D09542F7DB56
S11353E002330132AA428754FBDBE9E73046F0BDC1
S11353F01846F0BD2DE9F047404CD4F800900F4614
S11354003D4615F801EB09EB0E04667806F0080436
S113541004F0FF060CB12F46F2E774462D2C03D19D
S1135420BD1C7C78012603E02B2C04BF7C78BD1CBA
S113543013B1102B0AD15AE0302C56D12C7804F039
S1135440DF04582C4CD16C7810230235002E14BF85
S11354504FF000486FF000480027B8FBF3FABE464F
S113546003FB1A8809EB040C9CF801C01CF0040F20
S113547001D0303C0BE01CF0030C1BD0BCF1010F3D
S11354800CBF4FF0370C4FF0570CCCEB04049C428C
S113549010DAB7F1FF3F0AD0D64506D801D144450A
S11354A003DC03FB0E4E012701E04FF0FF3715F834
S11354B0014BD7E77C1C73460AD1002E4FF0220122
S11354C014BF4FF000436FF0004301602AB911E0AC
S11354D00EB1CEF100036AB107B1691E116009E093
S11354E03024002BB2D10823B0E70A23AEE7302CD6
S11354F0ACD1A3E71846BDE8F08700BFAC0200209A
S11355002DE9F0410C46496B04F1440399421CD146
S11355104FF48061FEF7CEFF18B94FF0FF30BDE8BD
S1135520F0814FF48063A36394F84630606380F89D
S1135530FF3394F8453080F8FE3394F8443080F813
S1135540FD3300F2FD30206012E0A66B77003A468E
S113555000F02BF805460028DFD000EB0608404693
S11355602946324600F016F8C4F800806563A76344
S11355700020BDE8F08110B5C9B202449042034650
S113558006D01C788C4200F10100F7D1184610BDFA
S1135590002010BD10B5431E0A44914204D011F8F6
S11355A0014B03F8014FF8E710BDF8B5074615465F
S11355B00E4621B91146BDE8F840FEF77BBF1AB983
S11355C0FEF734FF2846F8BD00F015F8A8420ED2C5
S11355D038462946FEF76EFF044650B131462A4646
S11355E0FFF7D8FF38463146FEF720FF01E030468A
S11355F0F8BD2046F8BD51F8040C0028BEBF0918B8
S113560051F8043CC018043870470000044A0549A6
S11356101368002B08BF0B461844106018467047E7
S11356204803002068030020FEE700BFF8B500BF70
S1135630F8BC08BC9E467047F8B500BFF8BC08BC6F
S11356409E4670470000FFFFFBFFF6FFEEFFE3FFFF
S1135650D7FFC8FFB7FFA3FF8DFF75FF5BFF3EFFBA
S11356601FFFFEFEDAFEB5FE8CFE62FE35FE06FE70
S1135670D5FDA1FD6BFD33FDF9FCBCFC7DFC3BFCC1
S1135680F8FBB2FB6AFB1FFBD2FA83FA32FADEF9AB
S113569088F930F9D5F878F819F8B7F754F7EEF631
S11356A085F61BF6AEF53EF5CDF459F4E3F36AF353
S11356B0F0F273F2F3F172F1EEF068F0DFEF54EF11
S11356C0C7EE38EEA6ED12ED7CECE4EB49EBACEA68
S11356D00CEA000000000000000000000C000000C4
S11356E01C0000000200000075000000050000001E
S11356F000000000FFFFFFFF008000003C000000EE
S11357000000000000000000000000000000020093
S1135710000000004000000000000180600800005C
S11357208001060000008000000050000500000019
S11357300000000040420F000501000000000000CE
S113574000000000430000000002002000000000F0
S11357501F0000003B0000005A0000007800000019
S113576097000000B5000000D4000000F300000022
S113577011010000300100004E0100001F00000074
S11357801C0000001F0000001E0000001F0000009D
S11357901E0000001F0000001F0000001E0000008B
S11357A01F0000001E0000001F0000001F0000007A
S11357B01C0000001F0000001E0000001F0000006D
S11357C01E0000001F0000001F0000001E0000005B
S11357D01F0000001E0000001F0000001F0000004A
S11357E01D0000001F0000001E0000001F0000003C
S11357F01E0000001F0000001F0000001E0000002B
S11358001F0000001E0000001F000000545A004743
S11358104D54002531305B5E302D392C2B2D5D2508
S11358206E004D256875256E2E256875256E2E250E
S11358306875256E002F256875256E3A25687525CF
S11358406E3A256875256E00002020202020202037
S1135850202028282828282020202020202020201C
S1135860202020202020202020881010101010102C
S11358701010101010101010100404040404040478
S11358800404041010101010101041414141414112
S113589001010101010101010101010101010101F4
S11358A00101010110101010101042424242424204
S11358B002020202020202020202020202020202C4
S11358C0020202021010101020000000000000006C
S11358D000000000000000000000000000000000C4
S11358E000000000000000000000000000000000B4
S11358F000000000000000000000000000000000A4
S11359000000000000000000000000000000000093
S11359100000000000000000000000000000000083
S11359200000000000000000000000000000000073
S11359300000000000000000000000000000000063
S1135940000000000000000000686C4C0000000033
S11359506E5900007159000074590000412D4661D0
S11359602D66383930313233343536375D002B2DDE
S113597000303000785800000000000000000000F3
S11359800000000000000000000000000000000013
S11359900000000000000000000000000000000003
S11359A000000000000000000000000000000000F3
S11359B000000000000000000000000000000000E3
S11359C000000000000000000000000000000000D3
S11359D000000000000000001000000000000000B3
S11359E0017A5200027C0E011B0C0D001000000015
S11359F01800000028F2FFFF14000000000000005F
S1075A00000000009E
S10B5A0438A7FF7F0100000038
S1135A0C002D31010080000001000000002D310147
S1135A1C0800000003000000030000000002000066
S1135A2C010000003C0000000060090013000000AD
S1135A3C40420F0000080700010000000C00002089
S1135A4C54310000000000000000000000000000C1
S1135A5C0000020000000000400000000000018073
S1135A6C6008000080010600000080000000500067
S1135A7C0000000054320000000000000000000090
S1135A8C00000000000002000000000040000000C4
S1135A9C0000018060080000800106000000800006
S1135AAC000050000205000053310000000000000B
S1135ABC00000000000000000000020000000000D4
S1135ACC4000000000000180600800008001060016
S1135ADC0000800000005000020600005332000059
S1135AEC00000000000000000000000000000200A4
S1135AFC000000004000000000000180600800006D
S1135B0C8001060000008000000050000207000025
S1135B1C4331000000000000000000000000000001
S1135B2C00000200000000004000000000000180A2
S1135B3C6008000080010600000080000000500096
S1135B4C020C00004158000000000000000000009E
S1135B5C00000000000002000000000040000000F3
S1135B6C0000018060080000800106000000800035
S1135B7C00005000020E000041590000000000001B
S1135B8C0000000000000000000002000000000003
S1135B9C4000000000000180600800008001060045
S1135BAC0000800000005000020F0000415A000069
S1135BBC00000000000000000000000000000200D3
S1135BCC000000004000000000000180600800009C
S1135BDC800106000000800000005000000100005D
S1135BEC4000002074000020A8000020DC000020ED
S1135BFC100100204401002078010020AC01002099
S1135C0C000000007859000098590000B8590000B1
S1135C1C0000000000000000000000000000000074
S1135C2C44570000000000000000000000000000C9
S1135C3C0000000000000000000000000000000054
S1135C4C0000000000000000000000000000000044
S1135C5C0000000000000000000000000000000034
S1135C6C000200200F5800000F5800000100000033
S1135C7C000000004A0000000000000000000000CA
S1135C8C0000000000000000000000000000000004
S1135C9C4A000000000000000000000000000000AA
S1135CAC0000000000000000000000004858000044
S1135CBC4403002005010000E10000000000000086
S90301B14A
