:1000000000800020B1010000DD010000DD010000E2
:10001000DD010000DD010000DD010000DD01000068
:10002000DD010000DD010000DD010000DD01000058
:10003000DD010000DD010000DD010000DD01000048
:10004000DD010000DD010000DD010000DD01000038
:10005000DD010000DD010000DD010000F90300000A
:10006000DD010000DD010000DD0100006520000071
:10007000DD010000DD010000DD010000DD01000008
:1000800009240000DD010000DD010000DD010000A9
:10009000DD010000DD010000DD010000DD010000E8
:1000A000DD010000DD010000DD010000DD010000D8
:1000B000DD010000DD01000041040000DD01000061
:1000C00005170000DD010000DD010000DD0100007A
:1000D000DD010000DD010000DD010000DD010000A8
:1000E00010B5054C237833B9044B13B10448AFF372
:1000F00000800123237010BD70020020000000006A
:10010000F42F0000084B10B51BB108480849AFF3A5
:1001100000800848036803B910BD074B002BFBD0D3
:10012000BDE81040184700BF00000000F42F000099
:10013000740200206C02002000000000154B002B10
:1001400008BF134B9D46A3F5803A00218B460F460E
:100150001348144A121A02F06DFE0F4B002B00D008
:1001600098470E4B002B00D0984700200021040038
:100170000D000D48002802D00C48AFF3008002F0BB
:100180002BFE2000290002F0A7F902F011FE00BFAB
:1001900000000800008000200000000000000000B7
:1001A00070020020D40200200000000000000000C7
:1001B000064880470649074A074B9A42BEBF51F896
:1001C000040B42F8040BF8E7FFF7B8FF5D030000EB
:1001D000003000000000002070020020FEE700BF99
:1001E00080B400AF044BDB6C1B0EDBB21846BD467F
:1001F0005DF8047B704700BFB081E00F80B582B02E
:1002000000AF00F01FF87860074B5B6803F00F0346
:100210001A467B68D3407B60044A7B6813607B6826
:1002200018460837BD4680BD00800C40B002002053
:1002300080B400AF024B1846BD465DF8047B7047A2
:10024000003FAB0180B582B000AF334BDB6A03F4F3
:100250007053B3F5805F0AD0B3F5005F03D0B3F5F8
:10026000006F08D00BE02D4B1B687B6047E04FF41C
:1002700000437B6043E02A4B1B687B603FE0264BDA
:10028000DB6803F4E063B3F5007F1BD0B3F5007FB8
:1002900005D8002B24D0B3F5807F16D02BE0B3F522
:1002A000806F09D0B3F5A06F03D0B3F5407F06D0BF
:1002B00021E01C4B7B6021E01B4B7B601EE01B4B55
:1002C0007B601BE01A4B7B6018E0FFF789FF034659
:1002D000122B02D9174B7B6010E0174B7B600DE0AF
:1002E000FFF77EFF0346122B02D9144B7B6005E01B
:1002F000134B7B6002E000237B6000BF00BF064B16
:100300001B6803F4E0339B0B01337A68B2FBF3F311
:1003100018460837BD4680BD00800C400400002010
:1003200000000020003FAB01406F4001809FD500DE
:10033000C0D8A70040B56400C0CF6A00804F12004B
:1003400040420F0080B400AF034B1B681846BD4607
:100350005DF8047B704700BF0000002080B400AF50
:10036000054A054BD3F8883043F47003C2F888304F
:10037000BD465DF8047B704700ED00E080B400AF3F
:100380004FF400431846BD465DF8047B704700BF3C
:1003900080B400AF4FF47A731846BD465DF8047B15
:1003A000704700BF80B400AF034B1B681846BD46C2
:1003B0005DF8047B704700BF0400002080B483B068
:1003C00000AF786039607B683A681A620C37BD46C6
:1003D0005DF8047B704700BF80B400AF054B1B681D
:1003E0000133044A1360034B1B681846BD465DF891
:1003F000047B70478C02002080B500AF02480121C9
:10040000FFF7DCFF80BD00BF0020004080B483B058
:1004100000AF7860034A7B6893610C37BD465DF896
:10042000047B70470000084080B400AF034B1B6999
:100430001846BD465DF8047B704700BF00000840C9
:1004400080B500AFFFF7F0FF034603F00203002B77
:100450000DD00D4B9B6803F5F0130020194600F0FA
:10046000DFFE0220FFF7D2FF084B01221A70FFF7D0
:10047000DBFF034603F00103002B04D0FFF7ACFFC2
:100480000120FFF7C3FF80BD0000084008000020E6
:1004900080B487B000AFF860B9607A60FB6803F1A0
:1004A0000473DA00BB6813449B007B617B697A6844
:1004B0001A601C37BD465DF8047B704780B485B078
:1004C00000AF786039607B6803F10473DA003B6841
:1004D00013449B00FB60FB681B6818461437BD463D
:1004E0005DF8047B704700BF80B485B000AF7860D2
:1004F0007B68002B04D07B68B3F5004F00D800BFA9
:100500007B68B3FA83F3C3F11F03FB60FB681846F3
:100510001437BD465DF8047B704700BF80B400AF60
:10052000044BDB6C1B0EDBB21846BD465DF8047B4A
:10053000704700BFB081E00F80B584B000AF786035
:1005400039607A683B689A428CBF01230023DBB292
:10055000FB6006481E21FA68FFF79AFF044808214D
:10056000FA68FFF795FF1037BD4680BD00800C404C
:1005700004800C4080B582B000AF07481E21FFF711
:100580009DFF786005480821FFF798FF38607B6879
:1005900018460837BD4680BD00800C4004800C40E2
:1005A00080B582B000AF214B5B6903F4E063B3F523
:1005B000007F1CD0B3F5007F05D8002B25D0B3F504
:1005C000807F1FD02AE0B3F5C06F24D0B3F5E06F71
:1005D0001ED0B3F5407F21D1FFF7A0FF0346122BB9
:1005E00002D9134B7B601CE0124B7B6019E0FFF7D4
:1005F00095FF0346122B02D90F4B7B6011E00F4B86
:100600007B600EE00E4B7B600BE00E4B7B6008E0E6
:100610000D4B7B6005E00D4B7B6002E000237B60AF
:1006200000BF7B6818460837BD4680BD00800C407F
:10063000804F120040420F0040B56400C0CF6A00F6
:10064000C0D8A700809FD500406F4001003FAB019C
:1006500080B582B000AF0D4800F05EFA0346FB7033
:10066000FB78072B05D0082B07D1FFF7EBFD78604F
:1006700006E0FFF795FF786002E000237B6000BF93
:100680007B6818460837BD4680BD00BF06000C00D9
:1006900080B485B000AF7860284BDB6B002B14BFB3
:1006A00001230023BB72254B41F67132DA63234BE1
:1006B0005B6803F00703FB60FB68012B01D9042B87
:1006C00002D10023FB7202E00123FB7200BF7B68B2
:1006D0001B4A934207D9FB7A002B01D0052300E087
:1006E0000423FB6016E07B68154A93420BD87B68B5
:1006F000144A934207D9FB7A002B01D0032300E070
:100700000123FB6006E0FB7A002B01D0022300E00E
:100710000023FB600949094B5B6823F00702FB6873
:1007200013434B60BB7A002B02D0044B0022DA63E8
:100730001437BD465DF8047B704700BF00000C40D5
:100740000048E8010024F40080B500AFFFF770FD19
:1007500003461846FFF79CFF80BD00BF90B585B0EB
:1007600000AF78600023BB607B68344A934203D0BB
:10077000334A934200D000E000BF786800F0CCF923
:100780000346FB607B682D4A934203D02C4A934278
:1007900006D00CE02B4B9B6A03F00303FB6006E0E2
:1007A000284B9B6A03F00C039B08FB6000BFFB68AF
:1007B000032B3AD801A252F823F000BFF307000040
:1007C000CD070000D5070000DD070000FFF7D6FDCC
:1007D000B8602DE0FFF7E6FDB86029E0FFF70EFDF9
:1007E0000446FFF7C7FE0346013324FA03F3BB6058
:1007F0001EE00023BB607B68104A934203D07B68F5
:100800000F4A934210D10F4B9A6A7B680B498B4277
:1008100001D1102300E0142322FA03F3002B03D0AC
:10082000FFF7B6FDB86003E002E00023BB6000BF45
:10083000BB6818461437BD4690BD00BF02001A00C1
:1008400003001C0000800C4080B483B000AF7860CF
:10085000094B5B6D03F00103002B00D006E000BFE5
:10086000054B1A6D7B681340002BF9D10C37BD4640
:100870005DF8047B704700BF00800C4080B586B0F7
:1008800000AF78600B46FB7000233B617B681B0A5E
:1008900003F00F03013B092B46D801A252F823F0C5
:1008A000DF080000E5080000C90800002909000071
:1008B00029090000EB080000F508000029090000E4
:1008C00029090000FF080000194B7B61194800F05E
:1008D0003FF8034618461849FFF72EFE12E0174B63
:1008E0007B610FE0164B7B610CE0164B7B610123B3
:1008F0003B6107E0144B7B6110233B6102E0134B2B
:100900007B6100BF7B681B0B03F01F03FB603B692F
:10091000002B02D03869FFF797FFFB787869F968F8
:100920001A46FFF7B5FD00E000BF1837BD4680BD91
:1009300040800C400043020000366E0108800C40ED
:1009400044800C4058800C4060800C4078800C4003
:1009500090B585B000AF78607B6803F47813B3F589
:10096000A01F5DD0B3F5A01F17D8B3F5802F34D0EA
:10097000B3F5802F05D8002B2BD0B3F5003F38D02E
:10098000BBE0B3F5602F00F0B480B3F5801F39D021
:10099000B3F5402F00F0A980AFE0B3F5E01F00F001
:1009A0008480B3F5E01F0AD8B3F5C01F00F08F8034
:1009B000B3F5D01F21D0B3F5B01F7BD09DE0B3F5C8
:1009C000201F4ED0B3F5281F62D0B3F5181F35D0C5
:1009D00093E0FFF737FCF86092E0FFF733FCF86034
:1009E0004A4B9B6803F00F031A46FB68D340FB6039
:1009F00086E0FFF703FCF86082E04548FFF7AEFEB3
:100A0000F8607DE04248FFF7A9FEF8603F4B9B6E1F
:100A100003F0F0031B091A46FB68D340FB606FE04C
:100A20003B48FFF79BFEF860384B9B6E03F4706306
:100A30001B0A1A46FB68D340FB6061E03448FFF7AD
:100A40008DFEF860314B9B6E03F440531C0B10205D
:100A5000FFF74AFD034623441A46FB68D340FB6078
:100A60004EE02B48FFF77AFEF860284B9B6E03F4AC
:100A700040531B0B1A46FB68D340FB60234BDB6FD4
:100A800003F007030133FA68B2FBF3F3FB6037E0CE
:100A90001F48FFF763FEF8601C4B9B6E03F00303D7
:100AA0001A46FB68D340FB602AE01A48FFF756FE5F
:100AB000F86025E01748FFF751FEF860134B1B6FF5
:100AC00003F003031A46FB68D340FB6018E01148AB
:100AD000FFF744FEF8600D4B1B6F03F030031B095A
:100AE0001A46FB68D340FB600AE0FFF7B1FDF860EF
:100AF00006E0FFF755FDF86002E00023FB6000BF51
:100B0000FB6818461437BD4690BD00BF00800C40FE
:100B100002001A0003001C0080B485B000AF7860AA
:100B20000123FB737B6803F00F03BB60BB68013BD1
:100B3000052B77D801A252F823F000BF550B000017
:100B40008B0B0000C70B0000250C0000250C0000DB
:100B5000030C0000384BDB6A03F47053B3F5805F7D
:100B600009D0B3F5005F03D0B3F5006F06D008E0FD
:100B70000223FB7308E00323FB7305E00423FB73EC
:100B800002E00523FB7300BF4FE02B4B9B6A03F091
:100B90000303022B06D0032B07D0012B08D103231C
:100BA000FB730FE00223FB730CE00623FB7309E0E9
:100BB000214B9B6A03F48033002B02D00923FB7383
:100BC00000E000BF31E01C4B9B6A03F00C03082BD4
:100BD00006D00C2B07D0042B08D10323FB730FE0A6
:100BE0000223FB730CE00623FB7309E0124B9B6AA4
:100BF00003F48013002B02D00923FB7300E000BF35
:100C000013E00D4B1B6803F08053002B03D0B3F1AE
:100C1000805F03D009E00723FB7302E00823FB7326
:100C200000BF02E00023FB7300BFFB7B18461437B4
:100C3000BD465DF8047B704700800C4080B588B0ED
:100C400000AF78600B46FB700323FB610323FB7648
:100C500000233B617B6803F00F03FB60FB68013BF3
:100C6000052B00F2E98001A252F823F0850C000068
:100C70004F0D00004F0D0000390E0000390E00002E
:100C80000F0E0000FB78023B072B00F2D98001A277
:100C900052F823F0B50C0000BF0C0000C90C000096
:100CA000050D0000410E0000410E0000410E000045
:100CB000410E00000423FB610023FB762BE003239D
:100CC000FB610123FB7626E00223FB610223FB7616
:100CD0005E485F49FFF730FCFFF734FB02465D4B8F
:100CE0009A4206D95C4A5C4B1B6843F06003136070
:100CF00011E0594A584B1B6823F0600343F020036E
:100D0000136008E00123FB610323FB764F48504941
:100D1000FFF712FC00BFFB7E18460121012200F004
:100D2000A1F8FFF711FD4C4AFB6953624B48FFF7EE
:100D30000FFE034618464649FFF7FEFB00F0F2F8A7
:100D4000FFF75CFAB860B868FFF7A2FC75E0FB78C3
:100D5000013B082B76D801A252F823F0810D000048
:100D6000870D0000970D0000450E0000450E0000A5
:100D7000A70D0000450E0000450E0000C50D000047
:100D800000237B6123E000200121012200F06AF8AA
:100D900002237B611BE001200121012200F062F8A7
:100DA00001237B6113E0FFF729FAB860B86828498E
:100DB000FFF7C2FB2A4804210122FFF769FB032346
:100DC0007B6104E000237B6101233B6100BFFB6882
:100DD000022B0DD12049204B9B6A23F4803323F052
:100DE00003037A691A433B691B0413438B6224E0B3
:100DF0001949194B9B6A23F4801323F00C037A6979
:100E000092001A433B691B0513438B6215E0FB7884
:100E1000072B02D0082B07D015E00F4A0E4B1B689A
:100E200023F08053136006E00B4A0B4B1B6843F022
:100E30008053136000BF00E000BFFFF79BFB02E0A0
:100E400000BF00E000BF2037BD4680BD01366E0107
:100E500000366E010048E80100800C4000430200AB
:100E600040800C4080B586B000AF0346FB710B4656
:100E7000BB7113467B71FB79042B4AD801A252F84F
:100E800023F000BFD10E0000C30E0000A70E00002B
:100E9000990E0000B50E000001233B610223FB60A8
:100EA00001237B611DE004233B610823FB600323D6
:100EB0007B6116E010233B612023FB6005237B61EF
:100EC0000FE040233B618023FB6007237B6108E048
:100ED0004FF480733B614FF40073FB6009237B6127
:100EE00000BFBB79002B0ED00C4A3B6913627B79A3
:100EF000002B0BD000BF0A487969FFF7DFFA0346E1
:100F0000002BF8D002E0054AFB68136200F00AF8F3
:100F100000E000BF1837BD4680BD00BF00800C4018
:100F20002C800C4080B400AF034BDB6A034A136093
:100F3000BD465DF8047B704700800C4090020020A5
:100F400080B487B000AFF860B9607A60FB6803F1E5
:100F50000473DA00BB6813449B007B617B697A6889
:100F60001A601C37BD465DF8047B704780B485B0BD
:100F700000AFF860B9607A60FB681A68BB68DB4351
:100F80001A407B681A43FB681A601437BD465DF847
:100F9000047B704780B483B000AF03463960FB71B7
:100FA000FB79002B0DD0FB79012B0AD0FB79022BAA
:100FB00007D0FB79032B04D0FB79042B01D0FB79FC
:100FC000052B0949FA793B68012000FA03F318461A
:100FD0001346DB0013449B000B44103358600C375E
:100FE000BD465DF8047B70470060004080B483B06C
:100FF00000AF03463960FB71FB79002B0DD0FB7904
:10100000012B0AD0FB79022B07D0FB79032B04D0EC
:10101000FB79042B01D0FB79052B0949FA793B6850
:10102000012000FA03F318461346DB0013449B002B
:101030000B44103318600C37BD465DF8047B7047D5
:101040000060004080B586B000AFB9607A601A4693
:101050000346FB731346BB73FB7B002B0DD0FB7B5E
:10106000012B0AD0FB7B022B07D0FB7B032B04D088
:10107000FB7B042B01D0FB7B052B7B68072B0ED859
:101080007B689B001A46072303FA02F1FB7B7A6810
:101090009200934019481A46FFF768FF10E07B68FA
:1010A000083B7B617B699B001A46072303FA02F128
:1010B000FB7B7A699200934011481A46FFF756FF6E
:1010C000BB7B104879681A46FFF73AFF97F8203043
:1010D0000D4879681A46FFF733FF0C4A7B680121F7
:1010E00001FA03F3C2F81C3197F8243008487968F4
:1010F0001A46FFF725FF1837BD4680BD0061004046
:1011000004610040086100400C6100400060004044
:101110001061004090B585B000AFB9607B600346B8
:10112000FB731346BB73FB7B002B0DD0FB7B012BAA
:101130000AD0FB7B022B07D0FB7B032B04D0FB7B6D
:10114000042B01D0FB7B052BBB7B002B0DD07B68D8
:10115000002B05D0FB7B1846B968FFF747FF04E07A
:10116000FB7B1846B968FFF715FFBB68072B1CD837
:101170002A4CFA7B2948F97B0B46DB000B449B0089
:1011800003445B68B968890008460F218140C94360
:101190000B40B97BB8688000814019431346DB00DF
:1011A00013449B002344596024E01C4CFA7B1B48E9
:1011B000F97B0B46DB000B449B00034408331968A2
:1011C000BB6803F18043083B9B0018460F23834014
:1011D000DB431940B87BBB6803F18043083B9B00AD
:1011E00000FA03F319431346DB0013449B00234426
:1011F00008331960BB7B002B0DD17B68002B05D019
:10120000FB7B1846B968FFF7F1FE04E0FB7B18464C
:10121000B968FFF7BFFE1437BD4690BD00600040BF
:1012200080B485B000AF786039607B68012B05D849
:101230003B6803F07F43002B00D100BF7B68002B8D
:1012400002D0012B03D008E0064BFB6002E0064B06
:10125000FB6000BFFB683A681A601437BD465DF852
:10126000047B7047080008400C00084080B485B03B
:1012700000AFF860B9607A60FB681A68BB68DB434E
:101280001A407B681A43FB681A601437BD465DF844
:10129000047B704780B586B000AFF860B9607A60B3
:1012A000FB70BB68002B03D12448FFF751FBB860EB
:1012B000FB78202B0CD0202B02DC002B05D03AE051
:1012C000402B08D0602B09D035E010237B6108E06B
:1012D00008237B6105E006237B6102E004237B6138
:1012E00000BFBB689A007B69796801FB03F35B0868
:1012F00013443B617B697A6802FB03F33A69B2FBF2
:10130000F3F33B613B69043B3B613B699B013B6100
:101310003A690B4B13403B61FB681B6823F060028A
:10132000FB681A60FB681A68FB781A43FB681A604E
:10133000FB683A695A611837BD4680BD4081040098
:10134000C0FF1F0080B586B000AFF860B9607A605A
:10135000BB68002B03D11648FFF7FAFAB860BB68E8
:101360005B007B617A687B691344013B7B617A692E
:101370007B68B2FBF3F37B617B69043B7B617B6938
:101380009B017B617B69C0337B617B6923F0FF0339
:101390007B617A69074B13407B61FB681433184605
:1013A00004497A69FFF762FF1837BD4680BD00BF68
:1013B00040810400C0FF1F0080B485B000AF78609A
:1013C0000B46FB707B680F4A934207D07B680E4A3E
:1013D000934203D07B680D4A934200D100BFFB7853
:1013E000DB43FB60FB6803F00503FB60FB685A000E
:1013F0007B68DA60FA787B68DA601437BD465DF89E
:10140000047B704700C0004000C4004000C800409A
:1014100080B582B000AF786039607B68204A934223
:1014200007D07B681F4A934203D07B681E4A9342D1
:1014300000D100BF786800F09FF83B689B7C002BD0
:1014400005D07B681B6843F080427B681A603B686C
:10145000DB7C002B07D03B681B7D43F01003DBB225
:101460001A467B689A653B685B7B1A463B681B8A19
:1014700013433A68D2891A437B685A603B685968BB
:101480003B689A683B681B7B7868FFF703FF3B6803
:101490001B781A467B68DA600837BD4680BD00BFFE
:1014A00000C0004000C4004000C8004080B582B0C9
:1014B00000AF786039607B682C4A934207D07B6824
:1014C0002B4A934203D07B682A4A934200D100BF43
:1014D000786800F051F87B681A683B681B8A43F013
:1014E00001039BB219463B689B7B002B02D04FF453
:1014F000806300E000230B431A437B681A607B681B
:101500001A683B681B7D002B02D04FF0005300E0AF
:1015100000231A437B681A603B689B7C002B07D032
:101520003B68DB7C43F01003DBB21A467B689A65AC
:101530003B681B7B43F480527B685A603B685A6867
:101540003B689B68786811461A46FFF7FBFE3B68CC
:101550005B7B002B02D07B681022DA603B681B7833
:101560001A467B68DA600837BD4680BD00C000407F
:1015700000C4004000C8004080B483B000AF786071
:101580007B68204A934207D07B681F4A934203D06E
:101590007B681E4A934200D100BF7B6840F6AA6276
:1015A000DA607B6800221A607B6841F205025A60AB
:1015B0007B6800229A607B6800225A617B68002267
:1015C000DA647B6841F6F9729A647B6800225A6596
:1015D0007B680C4A934202D17B6800221A657B68C3
:1015E00000229A657B68084A934203D07B68074AC9
:1015F000934202D17B680022DA650C37BD465DF864
:10160000047B704700C0004000C4004000C8004098
:1016100080B483B000AF78600B46FB7000BF7B687E
:101620001B6903F04003002BF9D0FA787B685A63FA
:1016300000BF7B681B6903F02003002BF9D07B6897
:10164000DB69DBB218460C37BD465DF8047B70479A
:1016500080B483B000AF78600B46FB7000BF7B683E
:101660001B6903F04003002BF9D0FA787B685A63BA
:101670000C37BD465DF8047B704700BF80B483B073
:1016800000AF0346FB71084997F907305B09FA7907
:1016900002F01F02012000FA02F241F823200C3769
:1016A000BD465DF8047B704700E100E080B483B084
:1016B00000AF7860034A7B6893630C37BD465DF8E2
:1016C000047B704700800C4080B483B000AF78602A
:1016D0000549054BDA6B7B681343CB630C37BD467A
:1016E0005DF8047B704700BF00800C4080B400AF01
:1016F000034B1B6B1846BD465DF8047B704700BF6B
:1017000000800C4080B582B000AFFFF7EFFF78603B
:101710000320FFF7CBFF7B6803F00203002B0BD005
:1017200011200421FFF78AFA032000210022FFF78D
:1017300099FB034B01221A600837BD4680BD00BFEC
:101740009402002080B500AF11200521FFF776FA42
:101750001A480121FFF792F819480121FFF78EF886
:1017600018480121FFF78AF8174A174B1B6823F026
:10177000030343F002031360022001210022FFF75C
:1017800071FB0220FFF7A0FF2020FFF777FF00BFCB
:101790000E4B1B68012BFBD10B4A0B4B1B6823F430
:1017A000E00343F4A0031360074A074BD3F88030EB
:1017B00043F00103C2F8803080BD00BF00D20400B6
:1017C000005204000062040000800C4094020020DB
:1017D00080B582B000AF04200D2104220123FFF761
:1017E00099FC0520032104220123FFF793FC052027
:1017F000042104220023FFF78DFC0520052104228B
:101800000123FFF787FC0020022104220123FFF7B8
:1018100081FC0120072104220123FFF77BFC022029
:101820000D2104220123FFF775FC00237B600AE0F1
:10183000084A7B6852F823301846012100F074FBF7
:101840007B6801337B607B68072BF1DD0837BD4681
:1018500080BD00BFE001002080B483B000AF78609D
:101860003960584A574B1B6823F440331360554A7C
:10187000544B1B6823F070631360524A514B1B6832
:1018800023F0030313604F4A4E4BDB696FEA1343A7
:101890006FEA0343D3614B494A4BDB691B0C1B04C2
:1018A0007A681343CB61474A464B1B6D23F0030311
:1018B00043F002031365434A424B1B6D23F440730C
:1018C00043F4807313653F4A3E4B5B6D1B0C1B0456
:1018D00053653C4A3B4B1B6D43F004031365394988
:1018E000384B5B6D1B0C1B043A6813434B65354A40
:1018F000344B9B6A23F4E0239362324A314B9B6A58
:1019000023F0071323F4E06343F0040393622E4AA9
:101910002D4B1B6823F0030313602B4A2A4B1B68D3
:1019200043F010031360284A274B1B6823F0080379
:101930001360254A244B1B6823F4403343F40033DF
:101940001360214A204B1B6843F0100313601E4AAA
:101950001D4B1B6B23F0030343F0020313631A4A6E
:10196000194B1B6B43F004031363174A164B1B6B95
:1019700023F4407343F480731363134A124B1B6BBD
:1019800023F480131363104A0F4BDB691B0C1B04F9
:1019900043F01303D3610C4A0B4B9B6A23F00713EC
:1019A00023F4E06343F001039362074A064B9B6A0A
:1019B00023F4E02343F4403393620C37BD465DF8D3
:1019C000047B7047000001400004014080B483B0F4
:1019D00000AF0346FB71084997F907305B09FA79B4
:1019E00002F01F02012000FA02F241F823200C3716
:1019F000BD465DF8047B704700E100E080B483B031
:101A000000AF0346FB71094997F907305B09FA7982
:101A100002F01F02012000FA02F2603341F8232095
:101A20000C37BD465DF8047B704700BF00E100E065
:101A300080B483B000AF7860044A7B68C2F81C3180
:101A40000C37BD465DF8047B704700BF0060004066
:101A500080B483B000AF78600649064BD3F81021FC
:101A60007B68DB431340C1F810310C37BD465DF88D
:101A7000047B70470060004080B483B000AF7860A2
:101A80000649064BD3F810217B681343C1F8103187
:101A90000C37BD465DF8047B704700BF0060004016
:101AA00080B483B000AF786039607B68DA6C3B68E3
:101AB0001A437B68DA640C37BD465DF8047B7047D7
:101AC000F0B5CDB008AF844B07F1E0041D460FCD53
:101AD0000FC40FCD0FC495E8070084E807004FF44A
:101AE0000463C7F8F4304FF40163A7F8FC304FF4F7
:101AF000C173A7F8E230794BC7F8003107F1B4049D
:101B000007F1E0050FCD0FC40FCD0FC495E8070016
:101B100084E8070048F20103A7F8CE3007F18804F3
:101B200007F1E0050FCD0FC40FCD0FC495E80700F6
:101B300084E8070048F20103A7F8A23007F15C042B
:101B400007F1E0050FCD0FC40FCD0FC495E80700D6
:101B500084E8070048F20103A7F876300023A7F8CD
:101B6000783007F1300407F1E0050FCD0FC40FCD39
:101B70000FC495E8070084E8070048F20103A7F8BE
:101B80004A303B1D544A1C4615460FCD0FC40FCD9D
:101B90000FC495E8070084E807003B1D5B8843F00D
:101BA0000C039AB23B1D5A804FF6FF73C7F80C31F5
:101BB00000BFD7F80C315A1EC7F80C21002BF8D102
:101BC000474B1E686D4607F1C0040FCC0FC594E863
:101BD0000F0085E80F0007F1B4030ECB304600F08C
:101BE00045F93F4B5E686D4607F1C0040FCC0FC549
:101BF00094E80F0085E80F0007F1B4030ECB3046E0
:101C000000F034F9364B9E686D4607F194040FCC12
:101C10000FC594E80F0085E80F0007F188030ECB8D
:101C2000304600F023F92E4BDE686D4607F1940430
:101C30000FCC0FC594E80F0085E80F0007F188036B
:101C40000ECB304600F012F9254B1E696D4607F1A8
:101C50003C040FCC0FC594E80F0085E80F0007F196
:101C600030030ECB304600F001F91D4B5E696D4626
:101C700007F168040FCC0FC594E80F0085E80F004A
:101C800007F15C030ECB304600F0F0F8144B9E6970
:101C90006D4607F168040FCC0FC594E80F0085E886
:101CA0000F0007F15C030ECB304600F0DFF80C4B61
:101CB000DE696D4607F168040FCC0FC594E80F008C
:101CC00085E80F0007F15C030ECB304600F0CEF83C
:101CD00007F58A77BD46F0BD482F00003C0006009E
:101CE000E001002080B586B000AFF8607A601A4647
:101CF0000B46FB721346BB7200233B61FB7A3B74BD
:101D00000123FB7510E0FB7DB97AFA7D8A1AD200B7
:101D1000796821FA02F2D2B207F118010B4403F8F4
:101D2000082CFB7D0133FB75FA7DBB7A9A42EAD918
:101D3000F868002100F0F8F8BB7A013307F11002CF
:101D4000104600211A46002300F002F9F86801212C
:101D500000F0EAF81837BD4680BD00BF80B586B0F8
:101D600000AF78600B46FB701346BB700023BB814D
:101D70000023BB7300237B61FB7843F04003DBB29D
:101D8000BB747868002100F0CFF8BB7807F112012E
:101D900007F10C0208461146012200F0D9F87868D4
:101DA000012100F0C1F80023FB7414E0FB7C07F173
:101DB0001802134413F80C3C1946BA78FB7CD31A6A
:101DC000013BDB0001FA03F31A467B6913447B6194
:101DD000FB7C0133FB74FA7CBB789A42E6D37B69C7
:101DE00018461837BD4680BD80B582B000AFFF23CE
:101DF0003B70FF237B70FF23BB70FF23FB70FF232F
:101E00003B71FF237B71FF23BB71FF23FB713B46BB
:101E1000184600210822002300F09AF80837BD4632
:101E200080BD00BF80B582B000AF78600C4A0C4B1B
:101E30005B6843F0010353600A4A0A4B5B6843F056
:101E4000010353607868002100F06EF8064B1B68B0
:101E50001B691846FFF710FE0837BD4680BD00BF5E
:101E600000000140000401403C00002084B080B527
:101E700082B000AF786007F1140080E80E00BB6A02
:101E8000786807211A460323FFF72CFF786807219B
:101E90000322FFF763FF02467B689A61FB8D786837
:101EA00009211A460223FFF71DFF78680921022243
:101EB000FFF754FF03469AB27B68DA833B8E78685B
:101EC00019211A460223FFF70DFF78681921022213
:101ED000FFF744FF03469AB27B681A84FB8A78684E
:101EE00001211A460223FFF7FDFE78680121022234
:101EF000FFF734FF03469AB27B68DA807B6B786821
:101F000021211A460323FFF7EDFE786821210322E1
:101F1000FFF724FF02467B685A620837BD46BDE8DA
:101F2000804004B0704700BF80B582B000AF7860D9
:101F300039607B6893F830207B6893F8313019461C
:101F40003B6810460422FFF7E5F80837BD4680BD20
:101F500080B584B000AFF860B9607A603B600BE098
:101F6000FB681B7810481946FFF752FBFB680133EA
:101F7000FB607B68013B7B607B68002BF0DC0DE045
:101F800009480021FFF744FB03461A46BB681A7054
:101F9000BB680133BB603B68013B3B603B68002B87
:101FA000EEDC1037BD4680BD00C00040B0B586B045
:101FB00000AF1A4B3C461D460FCD0FC495E80300F9
:101FC00084E8030016480121FEF758FC042007218D
:101FD00004220023FFF79EF804200621012200239B
:101FE000FFF798F80420052104220123FFF792F857
:101FF0000C4B1B685B6ABB600123BB734FF44073DF
:102000003B823B4608481946FFF750FA064B40F220
:102010000B125A651837BD46B0BD00BF742F0000C3
:10202000000204003C00002000C0004080B582B0E7
:1020300002AF0420092102220123FFF76BF80123DC
:102040000093002301930420092109220023FEF7B5
:10205000F9FF0B20FFF7D2FC0B20FFF7B7FCBD46C2
:1020600080BD00BF90B587B000AF7D4B1B681B697A
:102070001846FFF7EDFC4223FB737A4BD3F814218B
:10208000774B1B681B699A4240F0E680764B1B68D1
:10209000012B02D1754B00221A60714B1B681B6922
:1020A0001846FFF7D5FC00237B616DE0704A7B6921
:1020B00052F8233018460021FFF736FFFB7B6D48AE
:1020C0001946FFF7A5FA00233B614FE06A4B1968F8
:1020D000664B1B68694A126802FB03F07A69134673
:1020E0005B001344C2183B691344654A1268B3FB92
:1020F000F2F002FB00F29B1ACC185E480021FFF7B9
:1021000087FA034623707B69022B2CD1574B1A6840
:102110005C4BA3FB02135B094FF4FA7101FB03F361
:10212000D31A3B603B46BB60534B19684F4B1B684F
:10213000524A126802FB03F07A6913465B001344AB
:10214000C2183B6913444E4A1268B3FBF2F002FB1B
:1021500000F29B1A0B443A69C2F102021146BA68B6
:102160000A4412781A703B6901333B613B69022BC8
:10217000ACDD3F4A7B6952F8233018460121FFF756
:10218000D3FE7B6901337B617A69354B1B685B68E1
:102190009A428BD3324B1B68DB6A002B41D0012360
:1021A000FB710123BB7101237B71334B19682F4BEA
:1021B0001B680133314A126802FB03F3033B304AC8
:1021C0001268B3FBF2F002FB00F29B1A0B447A791F
:1021D0001A70294B1968254B1B680133274A12686E
:1021E00002FB03F3023B264A1268B3FBF2F002FB48
:1021F00000F29B1A0B44BA791A701F4B19681B4BDB
:102200001B6801331D4A126802FB03F3013B1C4AA1
:102210001268B3FBF2F002FB00F29B1A0B44FA794E
:102220001A70124B1B680133104A1360104B1B6865
:1022300018460021FFF778FE13480221FFF730FC13
:10224000074B1B681B691846FFF7F2FB044B1B6822
:102250001B691846FFF710FC1C37BD4690BD00BF38
:102260003C00002000600040980200209C020020FA
:10227000E001002000C00040BC020020C402002099
:10228000B8020020D34D621000C4004080B483B077
:1022900000AF0346FB71084997F907305B09FA79EB
:1022A00002F01F02012000FA02F241F823200C374D
:1022B000BD465DF8047B704700E100E080B483B068
:1022C00000AF0346FB71094997F907305B09FA79BA
:1022D00002F01F02012000FA02F2603341F82320CD
:1022E0000C37BD465DF8047B704700BF00E100E09D
:1022F00080B483B000AF03463960FB7197F90730B3
:10230000002B0BDA0D49FB7903F00F03043B3A680D
:10231000D2B25201D2B20B441A7609E0084997F9B9
:1023200007303A68D2B25201D2B20B4483F800238C
:102330000C37BD465DF8047B704700BF00ED00E040
:1023400000E100E080B483B000AF786039607B6862
:10235000DA6C3B68DB431A407B68DA640C37BD46B5
:102360005DF8047B704700BF80B586B000AF23489E
:102370000121FEF783FA0320072104220123FEF73F
:10238000C9FE0320062101220023FEF7C3FE3B46BF
:1023900000221A60043300221A60043300221A60FB
:1023A000043300221A60043300221A60043300222E
:1023B0001A600433124B1B689B6ABB6005237B7356
:1023C0004FF480533B823B460E481946FFF720F8F6
:1023D0000C4B40F203225A651020FFF76FFF1020CC
:1023E000FFF754FF07480521FEF7E6FF1020012103
:1023F000FFF77EFF1837BD4680BD00BF0012040006
:102400003C00002000C4004080B582B000AF294BE2
:102410001B68294A126802FB03F2284B1B68D31A77
:10242000002B02D0012B09D020E025481E21FFF708
:102430000FF923480221FFF785FF38E0214B196887
:102440001E4B1B68204A1268B3FBF2F002FB00F23D
:102450009B1A0B441B78DBB219481946FFF7F8F8B2
:10246000164B1B680133154A136020E000237B6084
:1024700019E0144B1968114B1B68134A1268B3FB1F
:10248000F2F002FB00F29B1A0B441B78DBB20C4803
:102490001946FFF7DDF8094B1B680133074A136043
:1024A0007B6801337B607B68012BE2DD00BF08376E
:1024B000BD4680BD9C020020C4020020A002002076
:1024C00000C40040BC020020B802002080B400AF6D
:1024D000BD465DF8047B704780B584B000AFFFF760
:1024E000F5FFFFF72FF9FFF773F9FFF75FFDFFF730
:1024F0007BFCFFF79BFDFFF7E3FA2E4B1B685A6846
:102500002C4B1B68DB6A13442B4A13602A4B1A6856
:1025100013465B001344294A1360264B1B689B68D3
:10252000264A126802FB03F3254A1360214B1B68FD
:102530001A68204B1B68DB69B2FBF3F35B08013BB5
:10254000BB60B86800F08CF902460B46104619468D
:102550004FF000021B4B00F0F9F902460B46104603
:10256000194600F005FC03467B60154B1B681846B6
:1025700000F058FC0246144B1A60B8687968FFF7FF
:102580006BF90023FB60FFF7EFFE104B1B6818464A
:10259000FFF748FC0E4B1A680E4B1B68D31A012B31
:1025A00003D90D4B00221A6002E0FB680133FB6087
:1025B000F0E700BF3C000020B4020020C40200206D
:1025C000B80200200000E03FBC020020E001002033
:1025D0009C020020C80200209802002081F00041E7
:1025E00002E000BF83F0004330B54FEA41044FEAF8
:1025F000430594EA050F08BF90EA020F1FBF54EA93
:10260000000C55EA020C7FEA645C7FEA655C00F02E
:10261000E2804FEA5454D4EB5555B8BF6D420CDDFF
:102620002C4480EA020281EA030382EA000083EA82
:10263000010180EA020281EA0303362D88BF30BD22
:1026400011F0004F4FEA01314FF4801C4CEA113178
:1026500002D0404261EB410113F0004F4FEA0333D7
:102660004CEA133302D0524263EB430394EA050F62
:1026700000F0A780A4F10104D5F1200E0DDB02FAD1
:102680000EFC22FA05F2801841F1000103FA0EF265
:10269000801843FA05F359410EE0A5F120050EF12B
:1026A000200E012A03FA0EFC28BF4CF0020C43FA5C
:1026B00005F3C01851EBE37101F0004507D54FF069
:1026C000000EDCF1000C7EEB00006EEB0101B1F5B9
:1026D000801F1BD3B1F5001F0CD349085FEA3000FF
:1026E0004FEA3C0C04F101044FEA445212F5800F0A
:1026F00080F09A80BCF1004F08BF5FEA500C50F1A7
:10270000000041EB045141EA050130BD5FEA4C0C89
:10271000404141EB010111F4801FA4F10104E9D112
:1027200091F0000F04BF01460020B1FA81F308BF09
:102730002033A3F10B03B3F120020CDA0C3208DDD5
:1027400002F1140CC2F10C0201FA0CF021FA02F1B0
:102750000CE002F11402D8BFC2F1200C01FA02F120
:1027600020FA0CFCDCBF41EA0C019040E41AA2BF45
:1027700001EB0451294330BD6FEA04041F3C1CDA0D
:102780000C340EDC04F11404C4F1200220FA04F02D
:1027900001FA02F340EA030021FA04F345EA0301D7
:1027A00030BDC4F10C04C4F1200220FA02F001FA99
:1027B00004F340EA0300294630BD21FA04F029461B
:1027C00030BD94F0000F83F4801306BF81F48011B4
:1027D0000134013D4EE77FEA645C18BF7FEA655C27
:1027E00029D094EA050F08BF90EA020F05D054EAF9
:1027F000000C04BF1946104630BD91EA030F1EBFFE
:102800000021002030BD5FEA545C05D14000494101
:1028100028BF41F0004130BD14F580043CBF01F5F4
:10282000801130BD01F0004545F0FE4141F47001DA
:102830004FF0000030BD7FEA645C1ABF19461046B5
:102840007FEA655C1CBF0B46024650EA013406BFB6
:1028500052EA033591EA030F41F4002130BD00BF75
:1028600090F0000F04BF0021704730B54FF4806432
:1028700004F132044FF000054FF0000150E700BFB3
:1028800090F0000F04BF0021704730B54FF4806412
:1028900004F1320410F0004548BF40424FF00001FF
:1028A0003EE700BF42004FEAE2014FEA31014FEA42
:1028B00002701FBF12F07F4393F07F4F81F0605191
:1028C000704792F0000F14BF93F07F4F704730B500
:1028D0004FF4607401F0004521F0004120E700BF93
:1028E00050EA010208BF704730B54FF000050AE01A
:1028F00050EA010208BF704730B511F0004502D51B
:10290000404261EB41014FF4806404F132045FEA1C
:10291000915C3FF4DCAE4FF003025FEADC0C18BFC1
:1029200003325FEADC0C18BF033202EBDC02C2F1B7
:10293000200300FA03FC20FA02F001FA03FE40EA49
:102940000E0021FA02F11444C1E600BF70B54FF049
:10295000FF0C4CF4E06C1CEA11541DBF1CEA13552B
:1029600094EA0C0F95EA0C0F00F0DEF82C4481EA93
:10297000030621EA4C5123EA4C5350EA013518BFB3
:1029800052EA033541F4801143F4801338D0A0FBA0
:1029900002CE4FF00005E1FB02E506F00042E0FB4D
:1029A00003E54FF00006E1FB03569CF0000F18BF53
:1029B0004EF0010EA4F1FF04B6F5007F64F54074FB
:1029C00004D25FEA4E0E6D4146EB060642EAC6218E
:1029D00041EA55514FEAC52040EA5E504FEACE2EFB
:1029E000B4F1FD0C88BFBCF5E06F1ED8BEF1004FFE
:1029F00008BF5FEA500E50F1000041EB045170BD7A
:102A000006F0004646EA010140EA020081EA0301BD
:102A1000B4EB5C04C2BFD4EB0C0541EA045170BDB9
:102A200041F480114FF0000E013C00F3AB8014F133
:102A3000360FDEBF002001F0004170BDC4F100047C
:102A4000203C35DA0C341BDC04F11404C4F12005FD
:102A500000FA05F320FA04F001FA05F240EA020058
:102A600001F0004221F0004110EBD37021FA04F68E
:102A700042EB06015EEA430E08BF20EAD37070BD48
:102A8000C4F10C04C4F1200500FA04F320FA05F0A7
:102A900001FA04F240EA020001F0004110EBD370A9
:102AA00041F100015EEA430E08BF20EAD37070BD19
:102AB000C4F1200500FA05F24EEA020E20FA04F3F2
:102AC00001FA05F243EA020321FA04F001F00041A1
:102AD00021FA04F220EA020000EBD3705EEA430E12
:102AE00008BF20EAD37070BD94F0000F0FD101F041
:102AF0000046400041EB010111F4801F08BF013C7A
:102B0000F7D041EA060195F0000F18BF704703F0B7
:102B10000046520043EB030313F4801F08BF013D3E
:102B2000F7D043EA0603704794EA0C0F0CEA1355FA
:102B300018BF95EA0C0F0CD050EA410618BF52EAB4
:102B40004306D1D181EA030101F000414FF00000BA
:102B500070BD50EA410606BF1046194652EA4306C8
:102B600019D094EA0C0F02D150EA013613D195EA3C
:102B70000C0F05D152EA03361CBF104619460AD184
:102B800081EA030101F0004141F0FE4141F470018E
:102B90004FF0000070BD41F0FE4141F4780170BD7E
:102BA00070B54FF0FF0C4CF4E06C1CEA11541DBFE3
:102BB0001CEA135594EA0C0F95EA0C0F00F0A7F8E5
:102BC000A4EB050481EA030E52EA03354FEA013112
:102BD00000F088804FEA03334FF0805545EA131325
:102BE00043EA12634FEA022245EA111545EA1065ED
:102BF0004FEA00260EF000419D4208BF964244F184
:102C0000FD0404F5407402D25B084FEA3202B61AA2
:102C100065EB03055B084FEA32024FF480104FF476
:102C2000002CB6EB020E75EB030E22BFB61A7546EA
:102C300040EA0C005B084FEA3202B6EB020E75EB7D
:102C4000030E22BFB61A754640EA5C005B084FEAE5
:102C50003202B6EB020E75EB030E22BFB61A7546B2
:102C600040EA9C005B084FEA3202B6EB020E75EBBD
:102C7000030E22BFB61A754640EADC0055EA060E7E
:102C800018D04FEA051545EA16754FEA06164FEAC1
:102C9000C30343EA52734FEAC2025FEA1C1CC0D16D
:102CA00011F4801F0BD141EA00014FF000004FF0FA
:102CB000004CB6E711F4801F04BF01430020B4F1BB
:102CC000FD0C88BFBCF5E06F3FF6AFAEB5EB030C73
:102CD00004BFB6EB020C5FEA500C50F1000041EB70
:102CE000045170BD0EF0004E4EEA113114EB5C043D
:102CF000C2BFD4EB0C0541EA045170BD41F4801110
:102D00004FF0000E013C90E645EA060E8DE60CEA17
:102D1000135594EA0C0F08BF95EA0C0F3FF43BAF34
:102D200094EA0C0F0AD150EA01347FF434AF95EAEB
:102D30000C0F7FF425AF104619462CE795EA0C0FCF
:102D400006D152EA03353FF4FDAE1046194622E79C
:102D500050EA410618BF52EA43067FF4C5AE50EA76
:102D600041047FF40DAF52EA43057FF4EBAE12E766
:102D70004A0011D212F5001211D20DD56FF47873FA
:102D8000B3EB62520ED44FEAC12343F0004343EA4F
:102D9000505323FA02F070474FF00000704750EA9A
:102DA000013002D14FF0FF3070474FF00000704704
:102DB00008B5074B044613B10021AFF30080054B63
:102DC0001868836A03B19847204600F0AFF800BF47
:102DD00000000000902F000070B50E4B0E4CE41A5E
:102DE000A41000251E46A54204D056F82530984769
:102DF0000135F8E700F09CF8084C094BE41AA410E0
:102E000000251E46A54204D056F8253098470135C6
:102E1000F8E770BD64020020640200206802002010
:102E200064020020024B0146186800F00BB800BF96
:102E30006002002002440346934202D003F8011BC3
:102E4000FAE7704770B5CC1C24F0030408340C2C4E
:102E500038BF0C24002C064603DA0C233360002014
:102E600070BD8C42F9D3204A136810461946A1B1AF
:102E70000A68121B0ED40B2A03D90A608B188C50D7
:102E80001FE08B420DBF5A684A685A60026018BF43
:102E90000B4616E00B464968E9E7144D2B681BB951
:102EA000304600F025F828603046214600F020F832
:102EB000421C0346D1D0C51C25F0030585420AD12A
:102EC0001C6003F10B001A1D20F00700821A0AD0C3
:102ED0005142995070BD3046E91A00F009F80130AE
:102EE000BBD02B46ECE770BDA8020020A402002056
:102EF00038B5064C002305460846236000F008F864
:102F0000431C02D1236803B12B6038BDD0020020DE
:102F1000044A05491368002B08BF0B46184410608B
:102F200018467047AC020020D8020020FEE700BF20
:102F3000F8B500BFF8BC08BC9E467047F8B500BFA6
:102F4000F8BC08BC9E46704700000000000000006E
:102F5000000000000000020000000000400000002F
:102F60000000018060080000800106000000800071
:102F700000005000050000000000000040420F006B
:102F800005010000000000000000000043000000F8
:102F9000000200200000000000000000000000000F
:102FA0000000000000000000000000000000000021
:102FB0000000000000000000000000000000000011
:102FC0000000000000000000000000000000000001
:102FD00000000000000000000000000000000000F1
:102FE00000000000000000000000000000000000E1
:082FF0000000000000000000D9
:082FF80044D1FF7F010000003D
:10300000002D31010080000001000000002D310181
:1030100008000000020000000300000000020000A1
:10302000010000003C0000000060090013000000E7
:1030300040420F0000080700000000000C000020C4
:1030400054310000000000000000000000000000FB
:1030500000000200000000004000000000000180AD
:1030600060080000800106000000800000005000A1
:1030700000000000543200000000000000000000CA
:1030800000000000000002000000000040000000FE
:103090000000018060080000800106000000800040
:1030A0000000500002050000533100000000000045
:1030B000000000000000000000000200000000000E
:1030C0004000000000000180600800008001060050
:1030D0000000800000005000020600005332000093
:1030E00000000000000000000000000000000200DE
:1030F00000000000400000000000018060080000A7
:10310000800106000000800000005000020700005F
:10311000433100000000000000000000000000003B
:1031200000000200000000004000000000000180DC
:1031300060080000800106000000800000005000D0
:10314000020C0000415800000000000000000000D8
:10315000000000000000020000000000400000002D
:10316000000001806008000080010600000080006F
:1031700000005000020E0000415900000000000055
:10318000000000000000000000000200000000003D
:10319000400000000000018060080000800106007F
:1031A0000000800000005000020F0000415A0000A3
:1031B000000000000000000000000000000002000D
:1031C00000000000400000000000018060080000D6
:1031D0008001060000008000000050000001000097
:1031E0004000002074000020A8000020DC00002027
:1031F000100100204401002078010020AC010020D3
:1032000000000000942F0000B42F0000D42F000015
:1032100000000000000000000000000000000000AE
:103220008C2F0000000000000000000000000000E3
:10323000000000000000000000000000000000008E
:10324000000000000000000000000000000000007E
:10325000000000000000000000000000000000006E
:103260000002002005010000E10000000000000055
:04000003000001B147
:00000001FF
