:1000000000800020B1010000DD010000DD010000E2
:10001000DD010000DD010000DD010000DD01000068
:10002000DD010000DD010000DD010000DD01000058
:10003000DD010000DD010000DD010000DD01000048
:10004000DD010000DD010000DD010000DD01000038
:10005000DD010000DD010000DD010000F90300000A
:10006000DD010000DD010000DD010000C51A000017
:10007000DD010000DD010000DD010000DD01000008
:10008000E91C0000DD010000DD010000DD010000D1
:10009000DD010000DD010000DD010000DD010000E8
:1000A000DD010000DD010000DD010000DD010000D8
:1000B000DD010000DD01000041040000DD01000061
:1000C000DD010000DD010000DD010000DD010000B8
:1000D000DD010000DD010000DD010000DD010000A8
:1000E00010B5054C237833B9044B13B10448AFF372
:1000F00000800123237010BD5C420020000000003E
:10010000802E0000084B10B51BB108480849AFF31A
:1001100000800848036803B910BD074B002BFBD0D3
:10012000BDE81040184700BF00000000802E00000E
:10013000604200205842002000000000154B002BB8
:1001400008BF134B9D46A3F5803A00218B460F460E
:100150001348144A121A02F0E1F90F4B002B00D099
:1001600098470E4B002B00D0984700200021040038
:100170000D000D48002802D00C48AFF3008002F0BB
:10018000A7F92000290001F0D9FE02F08DF900BF87
:1001900000000800008000200000000000000000B7
:1001A0005C420020A052002000000000000000007F
:1001B000064880470649074A074B9A42BEBF51F896
:1001C000040B42F8040BF8E7FFF7B8FF5D030000EB
:1001D0008C2E0000000000205C420020FEE700BFE3
:1001E00080B400AF044BDB6C1B0EDBB21846BD467F
:1001F0005DF8047B704700BFB081E00F80B582B02E
:1002000000AF00F01FF87860074B5B6803F00F0346
:100210001A467B68D3407B60044A7B6813607B6826
:1002200018460837BD4680BD00800C40945200201F
:1002300080B400AF024B1846BD465DF8047B7047A2
:10024000006CDC0280B582B000AF334BDB6A03F494
:100250007053B3F5805F0AD0B3F5005F03D0B3F5F8
:10026000006F08D00BE02D4B1B687B6047E04FF41C
:1002700000437B6043E02A4B1B687B603FE0264BDA
:10028000DB6803F4E063B3F5007F1BD0B3F5007FB8
:1002900005D8002B24D0B3F5807F16D02BE0B3F522
:1002A000806F09D0B3F5A06F03D0B3F5407F06D0BF
:1002B00021E01C4B7B6021E01B4B7B601EE01B4B55
:1002C0007B601BE01A4B7B6018E0FFF789FF034659
:1002D000122B02D9174B7B6010E0174B7B600DE0AF
:1002E000FFF77EFF0346122B02D9144B7B6005E01B
:1002F000134B7B6002E000237B6000BF00BF064B16
:100300001B6803F4E0339B0B01337A68B2FBF3F311
:1003100018460837BD4680BD00800C400400002010
:1003200000000020003FAB01406F4001809FD500DE
:10033000C0D8A70040B56400C0CF6A00804F12004B
:1003400040420F0080B400AF034B1B681846BD4607
:100350005DF8047B704700BF0000002080B400AF50
:10036000054A054BD3F8883043F47003C2F888304F
:10037000BD465DF8047B704700ED00E080B400AF3F
:100380004FF400431846BD465DF8047B704700BF3C
:1003900080B400AF4FF47A731846BD465DF8047B15
:1003A000704700BF80B400AF034B1B681846BD46C2
:1003B0005DF8047B704700BF0400002080B483B068
:1003C00000AF786039607B683A681A620C37BD46C6
:1003D0005DF8047B704700BF80B400AF054B1B681D
:1003E0000133044A1360034B1B681846BD465DF891
:1003F000047B70477842002080B500AF024801219D
:10040000FFF7DCFF80BD00BF0020004080B483B058
:1004100000AF7860034A7B6893610C37BD465DF896
:10042000047B70470000084080B400AF034B1B6999
:100430001846BD465DF8047B704700BF00000840C9
:1004400080B500AFFFF7F0FF034603F00203002B77
:100450000DD00D4B9B6803F5F0130020194600F0FA
:10046000DFFE0220FFF7D2FF084B01221A70FFF7D0
:10047000DBFF034603F00103002B04D0FFF7ACFFC2
:100480000120FFF7C3FF80BD0000084008000020E6
:1004900080B487B000AFF860B9607A60FB6803F1A0
:1004A0000473DA00BB6813449B007B617B697A6844
:1004B0001A601C37BD465DF8047B704780B485B078
:1004C00000AF786039607B6803F10473DA003B6841
:1004D00013449B00FB60FB681B6818461437BD463D
:1004E0005DF8047B704700BF80B485B000AF7860D2
:1004F0007B68002B04D07B68B3F5004F00D800BFA9
:100500007B68B3FA83F3C3F11F03FB60FB681846F3
:100510001437BD465DF8047B704700BF80B400AF60
:10052000044BDB6C1B0EDBB21846BD465DF8047B4A
:10053000704700BFB081E00F80B584B000AF786035
:1005400039607A683B689A428CBF01230023DBB292
:10055000FB6006481E21FA68FFF79AFF044808214D
:10056000FA68FFF795FF1037BD4680BD00800C404C
:1005700004800C4080B582B000AF07481E21FFF711
:100580009DFF786005480821FFF798FF38607B6879
:1005900018460837BD4680BD00800C4004800C40E2
:1005A00080B582B000AF214B5B6903F4E063B3F523
:1005B000007F1CD0B3F5007F05D8002B25D0B3F504
:1005C000807F1FD02AE0B3F5C06F24D0B3F5E06F71
:1005D0001ED0B3F5407F21D1FFF7A0FF0346122BB9
:1005E00002D9134B7B601CE0124B7B6019E0FFF7D4
:1005F00095FF0346122B02D90F4B7B6011E00F4B86
:100600007B600EE00E4B7B600BE00E4B7B6008E0E6
:100610000D4B7B6005E00D4B7B6002E000237B60AF
:1006200000BF7B6818460837BD4680BD00800C407F
:10063000804F120040420F0040B56400C0CF6A00F6
:10064000C0D8A700809FD500406F4001003FAB019C
:1006500080B582B000AF0D4800F05EFA0346FB7033
:10066000FB78072B05D0082B07D1FFF7EBFD78604F
:1006700006E0FFF795FF786002E000237B6000BF93
:100680007B6818460837BD4680BD00BF06000C00D9
:1006900080B485B000AF7860284BDB6B002B14BFB3
:1006A00001230023BB72254B41F67132DA63234BE1
:1006B0005B6803F00703FB60FB68012B01D9042B87
:1006C00002D10023FB7202E00123FB7200BF7B68B2
:1006D0001B4A934207D9FB7A002B01D0052300E087
:1006E0000423FB6016E07B68154A93420BD87B68B5
:1006F000144A934207D9FB7A002B01D0032300E070
:100700000123FB6006E0FB7A002B01D0022300E00E
:100710000023FB600949094B5B6823F00702FB6873
:1007200013434B60BB7A002B02D0044B0022DA63E8
:100730001437BD465DF8047B704700BF00000C40D5
:100740000048E8010024F40080B500AFFFF770FD19
:1007500003461846FFF79CFF80BD00BF90B585B0EB
:1007600000AF78600023BB607B68344A934203D0BB
:10077000334A934200D000E000BF786800F0CCF923
:100780000346FB607B682D4A934203D02C4A934278
:1007900006D00CE02B4B9B6A03F00303FB6006E0E2
:1007A000284B9B6A03F00C039B08FB6000BFFB68AF
:1007B000032B3AD801A252F823F000BFF307000040
:1007C000CD070000D5070000DD070000FFF7D6FDCC
:1007D000B8602DE0FFF7E6FDB86029E0FFF70EFDF9
:1007E0000446FFF7C7FE0346013324FA03F3BB6058
:1007F0001EE00023BB607B68104A934203D07B68F5
:100800000F4A934210D10F4B9A6A7B680B498B4277
:1008100001D1102300E0142322FA03F3002B03D0AC
:10082000FFF7B6FDB86003E002E00023BB6000BF45
:10083000BB6818461437BD4690BD00BF02001A00C1
:1008400003001C0000800C4080B483B000AF7860CF
:10085000094B5B6D03F00103002B00D006E000BFE5
:10086000054B1A6D7B681340002BF9D10C37BD4640
:100870005DF8047B704700BF00800C4080B586B0F7
:1008800000AF78600B46FB7000233B617B681B0A5E
:1008900003F00F03013B092B46D801A252F823F0C5
:1008A000DF080000E5080000C90800002909000071
:1008B00029090000EB080000F508000029090000E4
:1008C00029090000FF080000194B7B61194800F05E
:1008D0003FF8034618461849FFF72EFE12E0174B63
:1008E0007B610FE0164B7B610CE0164B7B610123B3
:1008F0003B6107E0144B7B6110233B6102E0134B2B
:100900007B6100BF7B681B0B03F01F03FB603B692F
:10091000002B02D03869FFF797FFFB787869F968F8
:100920001A46FFF7B5FD00E000BF1837BD4680BD91
:1009300040800C400043020000366E0108800C40ED
:1009400044800C4058800C4060800C4078800C4003
:1009500090B585B000AF78607B6803F47813B3F589
:10096000A01F5DD0B3F5A01F17D8B3F5802F34D0EA
:10097000B3F5802F05D8002B2BD0B3F5003F38D02E
:10098000BBE0B3F5602F00F0B480B3F5801F39D021
:10099000B3F5402F00F0A980AFE0B3F5E01F00F001
:1009A0008480B3F5E01F0AD8B3F5C01F00F08F8034
:1009B000B3F5D01F21D0B3F5B01F7BD09DE0B3F5C8
:1009C000201F4ED0B3F5281F62D0B3F5181F35D0C5
:1009D00093E0FFF737FCF86092E0FFF733FCF86034
:1009E0004A4B9B6803F00F031A46FB68D340FB6039
:1009F00086E0FFF703FCF86082E04548FFF7AEFEB3
:100A0000F8607DE04248FFF7A9FEF8603F4B9B6E1F
:100A100003F0F0031B091A46FB68D340FB606FE04C
:100A20003B48FFF79BFEF860384B9B6E03F4706306
:100A30001B0A1A46FB68D340FB6061E03448FFF7AD
:100A40008DFEF860314B9B6E03F440531C0B10205D
:100A5000FFF74AFD034623441A46FB68D340FB6078
:100A60004EE02B48FFF77AFEF860284B9B6E03F4AC
:100A700040531B0B1A46FB68D340FB60234BDB6FD4
:100A800003F007030133FA68B2FBF3F3FB6037E0CE
:100A90001F48FFF763FEF8601C4B9B6E03F00303D7
:100AA0001A46FB68D340FB602AE01A48FFF756FE5F
:100AB000F86025E01748FFF751FEF860134B1B6FF5
:100AC00003F003031A46FB68D340FB6018E01148AB
:100AD000FFF744FEF8600D4B1B6F03F030031B095A
:100AE0001A46FB68D340FB600AE0FFF7B1FDF860EF
:100AF00006E0FFF755FDF86002E00023FB6000BF51
:100B0000FB6818461437BD4690BD00BF00800C40FE
:100B100002001A0003001C0080B485B000AF7860AA
:100B20000123FB737B6803F00F03BB60BB68013BD1
:100B3000052B77D801A252F823F000BF550B000017
:100B40008B0B0000C70B0000250C0000250C0000DB
:100B5000030C0000384BDB6A03F47053B3F5805F7D
:100B600009D0B3F5005F03D0B3F5006F06D008E0FD
:100B70000223FB7308E00323FB7305E00423FB73EC
:100B800002E00523FB7300BF4FE02B4B9B6A03F091
:100B90000303022B06D0032B07D0012B08D103231C
:100BA000FB730FE00223FB730CE00623FB7309E0E9
:100BB000214B9B6A03F48033002B02D00923FB7383
:100BC00000E000BF31E01C4B9B6A03F00C03082BD4
:100BD00006D00C2B07D0042B08D10323FB730FE0A6
:100BE0000223FB730CE00623FB7309E0124B9B6AA4
:100BF00003F48013002B02D00923FB7300E000BF35
:100C000013E00D4B1B6803F08053002B03D0B3F1AE
:100C1000805F03D009E00723FB7302E00823FB7326
:100C200000BF02E00023FB7300BFFB7B18461437B4
:100C3000BD465DF8047B704700800C4080B588B0ED
:100C400000AF78600B46FB700323FB610323FB7648
:100C500000233B617B6803F00F03FB60FB68013BF3
:100C6000052B00F2E98001A252F823F0850C000068
:100C70004F0D00004F0D0000390E0000390E00002E
:100C80000F0E0000FB78023B072B00F2D98001A277
:100C900052F823F0B50C0000BF0C0000C90C000096
:100CA000050D0000410E0000410E0000410E000045
:100CB000410E00000423FB610023FB762BE003239D
:100CC000FB610123FB7626E00223FB610223FB7616
:100CD0005E485F49FFF730FCFFF734FB02465D4B8F
:100CE0009A4206D95C4A5C4B1B6843F06003136070
:100CF00011E0594A584B1B6823F0600343F020036E
:100D0000136008E00123FB610323FB764F48504941
:100D1000FFF712FC00BFFB7E18460121012200F004
:100D2000A1F8FFF711FD4C4AFB6953624B48FFF7EE
:100D30000FFE034618464649FFF7FEFB00F0F2F8A7
:100D4000FFF75CFAB860B868FFF7A2FC75E0FB78C3
:100D5000013B082B76D801A252F823F0810D000048
:100D6000870D0000970D0000450E0000450E0000A5
:100D7000A70D0000450E0000450E0000C50D000047
:100D800000237B6123E000200121012200F06AF8AA
:100D900002237B611BE001200121012200F062F8A7
:100DA00001237B6113E0FFF729FAB860B86828498E
:100DB000FFF7C2FB2A4804210122FFF769FB032346
:100DC0007B6104E000237B6101233B6100BFFB6882
:100DD000022B0DD12049204B9B6A23F4803323F052
:100DE00003037A691A433B691B0413438B6224E0B3
:100DF0001949194B9B6A23F4801323F00C037A6979
:100E000092001A433B691B0513438B6215E0FB7884
:100E1000072B02D0082B07D015E00F4A0E4B1B689A
:100E200023F08053136006E00B4A0B4B1B6843F022
:100E30008053136000BF00E000BFFFF79BFB02E0A0
:100E400000BF00E000BF2037BD4680BD01366E0107
:100E500000366E010048E80100800C4000430200AB
:100E600040800C4080B586B000AF0346FB710B4656
:100E7000BB7113467B71FB79042B4AD801A252F84F
:100E800023F000BFD10E0000C30E0000A70E00002B
:100E9000990E0000B50E000001233B610223FB60A8
:100EA00001237B611DE004233B610823FB600323D6
:100EB0007B6116E010233B612023FB6005237B61EF
:100EC0000FE040233B618023FB6007237B6108E048
:100ED0004FF480733B614FF40073FB6009237B6127
:100EE00000BFBB79002B0ED00C4A3B6913627B79A3
:100EF000002B0BD000BF0A487969FFF7DFFA0346E1
:100F0000002BF8D002E0054AFB68136200F00AF8F3
:100F100000E000BF1837BD4680BD00BF00800C4018
:100F20002C800C4080B400AF034BDB6A034A136093
:100F3000BD465DF8047B704700800C407C42002079
:100F400080B487B000AFF860B9607A60FB6803F1E5
:100F50000473DA00BB6813449B007B617B697A6889
:100F60001A601C37BD465DF8047B704780B485B0BD
:100F700000AFF860B9607A60FB681A68BB68DB4351
:100F80001A407B681A43FB681A601437BD465DF847
:100F9000047B704780B483B000AF03463960FB71B7
:100FA000FB79002B0DD0FB79012B0AD0FB79022BAA
:100FB00007D0FB79032B04D0FB79042B01D0FB79FC
:100FC000052B0949FA793B68012000FA03F318461A
:100FD0001346DB0013449B000B44103358600C375E
:100FE000BD465DF8047B70470060004080B483B06C
:100FF00000AF03463960FB71FB79002B0DD0FB7904
:10100000012B0AD0FB79022B07D0FB79032B04D0EC
:10101000FB79042B01D0FB79052B0949FA793B6850
:10102000012000FA03F318461346DB0013449B002B
:101030000B44103318600C37BD465DF8047B7047D5
:101040000060004080B586B000AFB9607A601A4693
:101050000346FB731346BB73FB7B002B0DD0FB7B5E
:10106000012B0AD0FB7B022B07D0FB7B032B04D088
:10107000FB7B042B01D0FB7B052B7B68072B0ED859
:101080007B689B001A46072303FA02F1FB7B7A6810
:101090009200934019481A46FFF768FF10E07B68FA
:1010A000083B7B617B699B001A46072303FA02F128
:1010B000FB7B7A699200934011481A46FFF756FF6E
:1010C000BB7B104879681A46FFF73AFF97F8203043
:1010D0000D4879681A46FFF733FF0C4A7B680121F7
:1010E00001FA03F3C2F81C3197F8243008487968F4
:1010F0001A46FFF725FF1837BD4680BD0061004046
:1011000004610040086100400C6100400060004044
:101110001061004090B585B000AFB9607B600346B8
:10112000FB731346BB73FB7B002B0DD0FB7B012BAA
:101130000AD0FB7B022B07D0FB7B032B04D0FB7B6D
:10114000042B01D0FB7B052BBB7B002B0DD07B68D8
:10115000002B05D0FB7B1846B968FFF747FF04E07A
:10116000FB7B1846B968FFF715FFBB68072B1CD837
:101170002A4CFA7B2948F97B0B46DB000B449B0089
:1011800003445B68B968890008460F218140C94360
:101190000B40B97BB8688000814019431346DB00DF
:1011A00013449B002344596024E01C4CFA7B1B48E9
:1011B000F97B0B46DB000B449B00034408331968A2
:1011C000BB6803F18043083B9B0018460F23834014
:1011D000DB431940B87BBB6803F18043083B9B00AD
:1011E00000FA03F319431346DB0013449B00234426
:1011F00008331960BB7B002B0DD17B68002B05D019
:10120000FB7B1846B968FFF7F1FE04E0FB7B18464C
:10121000B968FFF7BFFE1437BD4690BD00600040BF
:1012200080B485B000AF786039607B68012B05D849
:101230003B6803F07F43002B00D100BF7B68002B8D
:1012400002D0012B03D008E0064BFB6002E0064B06
:10125000FB6000BFFB683A681A601437BD465DF852
:10126000047B7047080008400C00084080B485B03B
:1012700000AFF860B9607A60FB681A68BB68DB434E
:101280001A407B681A43FB681A601437BD465DF844
:10129000047B704780B586B000AFF860B9607A60B3
:1012A000FB70BB68002B03D12448FFF751FBB860EB
:1012B000FB78202B0CD0202B02DC002B05D03AE051
:1012C000402B08D0602B09D035E010237B6108E06B
:1012D00008237B6105E006237B6102E004237B6138
:1012E00000BFBB689A007B69796801FB03F35B0868
:1012F00013443B617B697A6802FB03F33A69B2FBF2
:10130000F3F33B613B69043B3B613B699B013B6100
:101310003A690B4B13403B61FB681B6823F060028A
:10132000FB681A60FB681A68FB781A43FB681A604E
:10133000FB683A695A611837BD4680BD4081040098
:10134000C0FF1F0080B586B000AFF860B9607A605A
:10135000BB68002B03D11648FFF7FAFAB860BB68E8
:101360005B007B617A687B691344013B7B617A692E
:101370007B68B2FBF3F37B617B69043B7B617B6938
:101380009B017B617B69C0337B617B6923F0FF0339
:101390007B617A69074B13407B61FB681433184605
:1013A00004497A69FFF762FF1837BD4680BD00BF68
:1013B00040810400C0FF1F0080B485B000AF78609A
:1013C0000B46FB707B680F4A934207D07B680E4A3E
:1013D000934203D07B680D4A934200D100BFFB7853
:1013E000DB43FB60FB6803F00503FB60FB685A000E
:1013F0007B68DA60FA787B68DA601437BD465DF89E
:10140000047B704700C0004000C4004000C800409A
:1014100080B582B000AF786039607B68204A934223
:1014200007D07B681F4A934203D07B681E4A9342D1
:1014300000D100BF786800F09FF83B689B7C002BD0
:1014400005D07B681B6843F080427B681A603B686C
:10145000DB7C002B07D03B681B7D43F01003DBB225
:101460001A467B689A653B685B7B1A463B681B8A19
:1014700013433A68D2891A437B685A603B685968BB
:101480003B689A683B681B7B7868FFF703FF3B6803
:101490001B781A467B68DA600837BD4680BD00BFFE
:1014A00000C0004000C4004000C8004080B582B0C9
:1014B00000AF786039607B682C4A934207D07B6824
:1014C0002B4A934203D07B682A4A934200D100BF43
:1014D000786800F051F87B681A683B681B8A43F013
:1014E00001039BB219463B689B7B002B02D04FF453
:1014F000806300E000230B431A437B681A607B681B
:101500001A683B681B7D002B02D04FF0005300E0AF
:1015100000231A437B681A603B689B7C002B07D032
:101520003B68DB7C43F01003DBB21A467B689A65AC
:101530003B681B7B43F480527B685A603B685A6867
:101540003B689B68786811461A46FFF7FBFE3B68CC
:101550005B7B002B02D07B681022DA603B681B7833
:101560001A467B68DA600837BD4680BD00C000407F
:1015700000C4004000C8004080B483B000AF786071
:101580007B68204A934207D07B681F4A934203D06E
:101590007B681E4A934200D100BF7B6840F6AA6276
:1015A000DA607B6800221A607B6841F205025A60AB
:1015B0007B6800229A607B6800225A617B68002267
:1015C000DA647B6841F6F9729A647B6800225A6596
:1015D0007B680C4A934202D17B6800221A657B68C3
:1015E00000229A657B68084A934203D07B68074AC9
:1015F000934202D17B680022DA650C37BD465DF864
:10160000047B704700C0004000C4004000C8004098
:1016100080B483B000AF78600B46FB7000BF7B687E
:101620001B6903F04003002BF9D0FA787B685A63FA
:1016300000BF7B681B6903F02003002BF9D07B6897
:10164000DB69DBB218460C37BD465DF8047B70479A
:1016500080B483B000AF78600B46FB7000BF7B683E
:101660001B6903F04003002BF9D0FA787B685A63BA
:101670000C37BD465DF8047B704700BF80B483B073
:1016800000AF0346FB71084997F907305B09FA7907
:1016900002F01F02012000FA02F241F823200C3769
:1016A000BD465DF8047B704700E100E080B483B084
:1016B00000AF0346FB71094997F907305B09FA79D6
:1016C00002F01F02012000FA02F2603341F82320E9
:1016D0000C37BD465DF8047B704700BF00E100E0B9
:1016E00080B483B000AF7860044A7B68C2F81C31D4
:1016F0000C37BD465DF8047B704700BF00600040BA
:1017000080B483B000AF78600649064BD3F810214F
:101710007B68DB431340C1F810310C37BD465DF8E0
:10172000047B70470060004080B483B000AF7860F5
:101730000649064BD3F810217B681343C1F81031DA
:101740000C37BD465DF8047B704700BF0060004069
:1017500080B586B000AFF8607A601A460B46FB721F
:101760001346BB7200233B61FB7A3B740123FB757C
:1017700010E0FB7DB97AFA7D8A1AD200796821FAE5
:1017800002F2D2B207F118010B4403F8082CFB7DDA
:101790000133FB75FA7DBB7A9A42EAD9F8680021D9
:1017A00000F0F4F8BB7A013307F110021046002173
:1017B0001A46002300F0FEF8F868012100F0E6F870
:1017C0001837BD4680BD00BF80B586B000AF7860D9
:1017D0000B46FB701346BB700023BB810023BB7319
:1017E00000237B61FB7843F04003DBB2BB74786875
:1017F000002100F0CBF8BB7807F1120107F10C02D1
:1018000008461146012200F0D5F87868012100F061
:10181000BDF80023FB7414E0FB7C07F118021344AD
:1018200013F80C3C1946BA78FB7CD31A013BDB0059
:1018300001FA03F31A467B6913447B61FB7C013395
:10184000FB74FA7CBB789A42E6D37B69184618375A
:10185000BD4680BD80B582B000AFFF233B70FF2343
:101860007B70FF23BB70FF23FB70FF233B71FF23C3
:101870007B71FF23BB71FF23FB713B4618460021A0
:101880000822002300F096F80837BD4680BD00BF4F
:1018900080B582B000AF78600B4A0B4B5B6843F0B9
:1018A00001035360094A094B5B6843F0010353602D
:1018B0007868002100F06AF84FF40070FFF734FFF9
:1018C0000837BD4680BD00BF000001400004014054
:1018D00084B080B582B000AF786007F1140080E872
:1018E0000E00BB6A786807211A460323FFF730FF12
:1018F000786807210322FFF767FF02467B689A6139
:10190000FB8D786809211A460223FFF721FF7868CA
:1019100009210222FFF758FF03469AB27B68DA8357
:101920003B8E786819211A460223FFF711FF786869
:1019300019210222FFF748FF03469AB27B681A84F6
:10194000FB8A786801211A460223FFF701FF7868B5
:1019500001210222FFF738FF03469AB27B68DA8042
:101960007B6B786821211A460323FFF7F1FE786824
:1019700021210322FFF728FF02467B685A620837BD
:10198000BD46BDE8804004B0704700BF80B582B05E
:1019900000AF786039607B6893F834287B6893F8EF
:1019A000353819463B6810460422FFF7B3FB083769
:1019B000BD4680BD80B584B000AFF860B9607A6084
:1019C0003B600BE0FB681B7810481946FFF720FED0
:1019D000FB680133FB607B68013B7B607B68002B0D
:1019E000F0DC0DE009480021FFF712FE03461A461D
:1019F000BB681A70BB680133BB603B68013B3B604E
:101A00003B68002BEEDC1037BD4680BD00C00040B7
:101A1000B0B586B000AF194B3C461D460FCD0FC484
:101A200095E8030084E8030015480121FEF726FF2E
:101A30000420072104220023FFF76CFB0420062169
:101A400001220023FFF766FB042005210422012365
:101A5000FFF760FB0B4BBB600123BB734FF440737C
:101A60003B823B4608481946FFF720FD064B40F2F3
:101A70000B125A651837BD46B0BD00BF902D00004F
:101A80000002040040420F0000C0004080B582B058
:101A900002AF0420092102220123FFF73BFB0123AF
:101AA0000093002301930420092109220023FFF75A
:101AB000C9FA0B20FFF7FAFD0B20FFF7DFFDBD464B
:101AC00080BD00BFB0B582B000AF354BD3F8143144
:101AD000B3F5007F00D060E04FF40070FFF710FE18
:101AE00000237B6043E02F4A7B6852F8233018467E
:101AF0000021FFF74BFF2B4A7B6852F82340294A0D
:101B00007B6852F82330B3F832389BB21D46254A21
:101B10007B6852F82330184602210322FFF754FE57
:101B2000024605F10C0344F823201E4A7B6852F854
:101B300023201C497B6851F82330B3F832389BB21C
:101B4000591C194B0B40002B03DA013B63F0FF03D8
:101B500001339BB2A2F83238124A7B6852F8233024
:101B600018460121FFF712FF7B6801337B607B6819
:101B7000072BB8DD0D4B1B6801330C4A1360094B72
:101B80001B6818460021FFF701FF4FF40070FFF7B4
:101B9000A7FD4FF40070FFF7C7FD0837BD46B0BD85
:101BA00000600040CC410020FF00008098520020DF
:101BB00080B483B000AF0346FB71084997F9073042
:101BC0005B09FA7902F01F02012000FA02F241F8E3
:101BD00023200C37BD465DF8047B704700E100E030
:101BE00080B483B000AF0346FB71094997F9073011
:101BF0005B09FA7902F01F02012000FA02F2603359
:101C000041F823200C37BD465DF8047B704700BFC8
:101C100000E100E080B483B000AF786039607B6899
:101C2000DA6C3B68DB431A407B68DA640C37BD46EC
:101C30005DF8047B704700BF80B483B000AF78606C
:101C400039607B68DA6C3B681A437B68DA640C376E
:101C5000BD465DF8047B704780B586B000AF204874
:101C60000121FEF70BFE0320072104220123FFF7C9
:101C700051FA0320062101220023FFF74BFA3B46CD
:101C800000221A60043300221A60043300221A6012
:101C9000043300221A60043300221A600433002245
:101CA0001A6004334FF4E133BB6005237B734FF4B8
:101CB00080533B823B460B481946FFF7A9FB094B73
:101CC00040F203225A651020FFF78AFF1020FFF729
:101CD0006FFF04480521FFF76FFB1837BD4680BD35
:101CE0000012040000C4004080B500AF254B1B6CFF
:101CF00003F00203002B43D0234B03F5805304333E
:101D00001B889BB2002B2FD01F4B03F580531B88E1
:101D10009BB21A461C4B9B5CDBB21A481946FFF774
:101D200097FC194B03F580531B889BB25A1C174B29
:101D300082FB030153189910D317C91A0B46DB0015
:101D40005B1AD11A8AB2104B03F580531A800E4BDE
:101D500003F5805304331B889BB2013B9AB20A4BB4
:101D600003F5805304331A80074B03F58053043383
:101D70001B889BB2002B03D102480221FFF74AFFC8
:101D800080BD00BF00C400408042002093244992DF
:101D900080B584B000AF786039600023FB602D4BC4
:101DA00003F5805304331B889BB21A463B681344E7
:101DB000B3F5805F0CD900BF264B03F58053043385
:101DC0001B889BB21A463B681344B3F5805FF3D877
:101DD00026E0204B03F5805302331B889BB2194643
:101DE0007A68FB6813441A781A4B5A54194B03F556
:101DF000805302331B889BB25A1C174B1340002B95
:101E000005DA013B6FEA03536FEA135301339AB2C9
:101E1000104B03F5805302331A80FB680133FB60DB
:101E2000FA683B689A42D4D30A4B03F580530433D3
:101E30001B889AB23B689BB213449AB2054B03F5D8
:101E4000805304331A8005480221FFF7F5FE10374E
:101E5000BD4680BD80420020FF0F008000C40040CE
:101E600080B584B000AF786039600023FB602D4BF3
:101E700003F5805304331B889BB21A463B68134416
:101E8000072B0BD900BF274B03F5805304331B8866
:101E90009BB21A463B681344072BF4D827E0214B2A
:101EA00003F5805302331B889BB219467A68FB689E
:101EB00013441A781B4B5A541A4B03F580530233C0
:101EC0001B889BB25A1C184B82FB030153189910B4
:101ED000D317C91A0B46DB005B1AD11A8AB2114B11
:101EE00003F5805302331A80FB680133FB60FA6804
:101EF0003B689A42D3D30B4B03F5805304331B88C2
:101F00009AB23B689BB213449AB2064B03F58053D6
:101F100004331A8005480221FFF78EFE1037BD46B4
:101F200080BD00BF804200209324499200C400403D
:101F300080B400AFBD465DF8047B7047B0B5D2B049
:101F400008AFFFF7F5FF11200521FEF777FE1A48CD
:101F50000121FEF793FC19480121FEF78FFC184878
:101F60000121FEF78BFC04200D2104220123FFF741
:101F7000D1F80520032104220123FFF7CBF8052027
:101F8000042104220023FFF7C5F8052005210422BF
:101F90000123FFF7BFF80020022104220123FFF7ED
:101FA000B9F80120072104220123FFF7B3F8002329
:101FB000C7F8243114E000BF00D20400005204002E
:101FC00000620400B84AD7F8243152F8233018468A
:101FD0000121FFF7DBFCD7F824310133C7F82431A6
:101FE000D7F82431072BEDDD02200D210422012337
:101FF000FFF790F8FFF730FEFFF70AFDFFF72AFC26
:10200000FFF744FDA94B07F1E4041D460FCD0FC4B3
:102010000FCD0FC495E8070084E807004FF4046370
:10202000C7F8F8304FF40163A7F8003140F282237B
:10203000A7F8E6309E4BC7F8043107F1B80407F162
:10204000E4050FCD0FC40FCD0FC495E8070084E859
:10205000070048F20103A7F8D23007F18C0407F11A
:10206000E4050FCD0FC40FCD0FC495E8070084E839
:10207000070048F20103A7F8A63007F1600407F152
:10208000E4050FCD0FC40FCD0FC495E8070084E819
:10209000070048F21103A7F87A301023A7F87C3024
:1020A00007F1340407F1E4050FCD0FC40FCD0FC4C1
:1020B00095E8070084E8070048F21123A7F84E309E
:1020C0001023A7F8503007F10803784A1C4615463C
:1020D0000FCD0FC40FCD0FC495E8070084E80700AB
:1020E00007F108035B8843F00C039AB207F1080379
:1020F0005A80704A6F4B1B6823F4403313606D4A5B
:102100006C4B1B6823F0706313606A4A694B1B6851
:1021100023F003031360674A664BDB696FEA1343DE
:102120006FEA0343D361634A624BDB691B0C1B04F8
:1021300043F00B03D3615F4A5E4B1B6D23F0030337
:1021400043F0020313655B4A5A4B1B6D23F4407343
:1021500043F480731365574A564B5B6D1B0C1B048D
:102160005365544A534B1B6D43F004031365514AA6
:10217000504B5B6D1B0C1B0443F0060353654D4A2B
:102180004C4B9B6A23F4E02393624A4A494B9B6A77
:1021900023F0071323F4E06343F004039362464AF9
:1021A000454B1B6823F003031360434A424B1B68F3
:1021B00043F010031360404A3F4B1B6823F00803B1
:1021C00013603D4A3C4B1B6823F4403343F4003317
:1021D0001360394A384B1B6843F010031360364ACA
:1021E000354B1B6B23F0030343F002031363324AA6
:1021F000314B1B6B43F0040313632F4A2E4B1B6BB5
:1022000023F4407343F4807313632B4A2A4B1B6BF4
:1022100023F480131363284A274BDB691B0C1B0430
:1022200043F01303D361244A234B9B6A23F0071323
:1022300023F4E06343F0010393621F4A1E4B9B6A41
:1022400023F4E02343F4403393624FF6FF73C7F85F
:10225000203100BFD7F820315A1EC7F82021002BAB
:10226000F8D16D4607F1C4040FCC0FC594E80F00F8
:1022700085E80F0007F1B8030ECB1048FFF728FBE5
:102280006D4607F1C4040FCC0FC594E80F0085E834
:102290000F0007F1B8030ECB0948FFF719FB6D4695
:1022A00007F198040FCC0DE0CC410020B82D0000C0
:1022B0003C00060000000140000401400C0000202A
:1022C000440800200FC594E80F0085E80F0007F1CF
:1022D0008C030ECB6848FFF7FBFA6D4607F19804B4
:1022E0000FCC0FC594E80F0085E80F0007F18C03B1
:1022F0000ECB6248FFF7ECFA6D4607F140040FCCB5
:102300000FC594E80F0085E80F0007F134030ECBEA
:102310005B48FFF7DDFA6D4607F16C040FCC0FC583
:1023200094E80F0085E80F0007F160030ECB5548D5
:10233000FFF7CEFA6D4607F16C040FCC0FC594E899
:102340000F0085E80F0007F160030ECB4E48FFF742
:10235000BFFA6D4607F16C040FCC0FC594E80F006F
:1023600085E80F0007F160030ECB4848FFF7B0FA8D
:10237000FB1D1E221A700023C7F81C310023C7F86A
:1023800014310023C7F810314148FFF781FA414B5F
:102390001B68002B5DDDFB1D18460121FFF7F8FCD3
:1023A0000023C7F818314BE03B4AD7F8183152F8F0
:1023B00023303949D7F8182151F82220B2F83028B3
:1023C00092B20C3253F82230C7F81431D7F81431D6
:1023D000C7F81031D7F81831012B07DC3B461846F7
:1023E0002E49D7F8102100F0A1F806E03B46184628
:1023F0002B49D7F8102100F099F83B4618460721E1
:10240000FFF72EFD244AD7F8183152F8232022492D
:10241000D7F8183151F82330B3F830389BB2591C33
:10242000204B0B40002B03DA013B63F0FF03013329
:102430009BB2A2F83038D7F818310133C7F81831F9
:10244000D7F81831022BAFDD124B1B68013B114A44
:102450001360104B1B68002B05D1D7F81C310133DA
:10246000C7F81C3107E0D7F81C31B3F5803F02DB19
:102470000023C7F81C318AE77C100020B418002024
:10248000EC200020242900205C3100209439002019
:102490000C00002098520020CC410020A82D000004
:1024A000B02D0000FF00008008B5074B044613B1B3
:1024B0000021AFF30080054B1868836A03B1984789
:1024C000204600F057FC00BF00000000E82D00008F
:1024D00070B50E4B0E4CE41AA41000251E46A54202
:1024E00004D056F8253098470135F8E700F044FC51
:1024F000084C094BE41AA41000251E46A54204D03E
:1025000056F8253098470135F8E770BD5042002055
:102510005042002054420020504200200244034612
:10252000934202D003F8011BFAE770470EB400B5DE
:102530009CB04FF40271ADF814106FF0004104919B
:1025400007914FF6FF711DABADF81610084953F80F
:10255000042B029006900868019302A900F0FEF88F
:10256000029B00221A701CB05DF804EB03B07047A8
:102570004C42002030B500293DD051F8042C0B1FEF
:102580001D49002AB8BF9B180A680C4612B95A6048
:102590000B6030BD93420DD219685818904201BFAC
:1025A0005A5852181A6042685A60236030BD9942E6
:1025B00003D80A4651680029F9D1146815199D42BB
:1025C0000AD11B682344D0188842136013D10868CD
:1025D000034413604B680DE002D90C23036030BD47
:1025E0001C681819884204BF08684968596004BF0C
:1025F00000191860536030BD8C52002070B5CC1C9F
:1026000024F0030408340C2C38BF0C24002C06469C
:1026100003DA0C233360002070BD8C42F9D3204ACA
:10262000136810461946A1B10A68121B0ED40B2A72
:1026300003D90A608B188C501FE08B420DBF5A687B
:102640004A685A60026018BF0B4616E00B4649689C
:10265000E9E7144D2B681BB9304600F007FB2860F2
:102660003046214600F002FB421C0346D1D0C51C77
:1026700025F0030585420AD11C6003F10B001A1DE9
:1026800020F00700821A0AD05142995070BD30469E
:10269000E91A00F0EBFA0130BBD02B46ECE770BD35
:1026A0008C520020885200202DE9F0478E68B342FA
:1026B00082460C469046994640D38A8912F4906F20
:1026C0003AD0256809696F1A6569022305EB45054B
:1026D00095FBF3F57B1C4B449D4238BF1D465305CB
:1026E0000FD52946FFF78AFF064698B121693A4679
:1026F00000F0DBFAA38923F4906343F08003A38105
:1027000013E02A4600F0F7FA064670B950462169F0
:10271000FFF730FF0C23CAF80030A38943F04003D1
:10272000A3814FF0FF30BDE8F087266165613E442C
:10273000ED1B2660A5604E46B14500D24E4632469E
:102740002068414600F0BCFAA3689B1BA360236885
:102750001E4426600020BDE8F08700002DE9F0430C
:102760009DB0064603938B891C060D4690460CD5FA
:102770000B6953B94021FFF741FF2860286110B968
:102780000C233360CCE040236B61002309932023AA
:102790008DF8293030238DF82A3043461C4613F833
:1027A000012B1AB9B4EB08090FD002E0252AF5D1A4
:1027B000F8E73046294642464B46FFF775FF0130A1
:1027C00000F0A980099B4B4409932378002B00F06B
:1027D000A28000234FF0FF320493079305920693E3
:1027E0008DF853301A9304F101084446DFF84891FC
:1027F00021784846052200F049FA08F10108049BB7
:1028000030B1C9EB00000122824013430493ECE78E
:10281000D80644BF20228DF85320190744BF2B222D
:102820008DF8532022782A2A02D0079923460EE0F9
:10283000039A111D12680391002ABBBF524243F054
:10284000020307920792B8BF049301340AE01C46C2
:1028500001332278303A092A03D80A2000FB0121EB
:10286000F5E7079123782E2B1AD163782A2B0AD10A
:10287000039B1A1D1B680392002BB8BF4FF0FF3358
:10288000023405930CE0611C00220C4601312378D0
:10289000303B092B03D80A2000FB0232F5E70592F2
:1028A000DFF8988021784046032200F0EFF938B134
:1028B000049AC8EB0000402383401343049301347F
:1028C00021781A488DF82810062204F1010800F03A
:1028D000DDF988B1164B33B9039B073323F00703A7
:1028E0000833039313E003AB0093304604A92A4650
:1028F000104BAFF3008007E003AB0093304604A910
:102900002A460C4B00F092F8421C074603D0099B64
:102910003B44099341E7AB895B0601D4099801E088
:102920004FF0FF301DB0BDE8F08300BFF62D000072
:1029300000000000A9260000EC2D0000F22D000090
:102940002DE9F84391461F468A680B69DDF820801F
:102950009342B8BF1346C9F8003091F843200646A9
:102960000C4612B10133C9F800302368990642BF02
:10297000D9F800300233C9F80030256815F0060593
:102980001CD094F843302268003318BF012392060C
:102990001FD5E1185A1C302081F84300224494F8D6
:1029A000451082F84310023313E03046394604F1F3
:1029B00019020123C047013007D00135E368D9F877
:1029C00000209B1A9D42F0DBDBE74FF0FF30BDE8B3
:1029D000F8833046394604F14302C0470130F4D051
:1029E0002268D9F80050E36802F00602042A08BF02
:1029F0005D1B2269A3680CBF25EAE575002593429B
:102A0000C4BF9B1AED184FF00009A9450ADA3046F9
:102A1000394604F11A020123C0470130D5D009F12B
:102A20000109F2E70020BDE8F88300002DE9FF412D
:102A30000C461746227E6E2A984606460A9B01F1EE
:102A4000430100F0AF8012D8632A23D00AD8002AAD
:102A500000F0BC80582A40F0CB8084F84520DFF895
:102A600004E257E0642A1ED0692A1CD0C0E0732A11
:102A700000F0B08009D86F2A2ED0702A40F0B880BC
:102A8000226842F0200222603FE0752A24D0782A92
:102A90003BD0ADE01A68111D1960136884F842300C
:102AA00004F14205A8E020681A6810F0800F02D0F7
:102AB000101D186008E010F0400F02F104001860CB
:102AC00002D0B2F9003000E01368002B3EDA2D226C
:102AD0005B4284F8432039E020681A6810F0800FC8
:102AE00002D0101D186007E010F0400F02F1040042
:102AF000186001D0138800E01368227EDFF864E1DB
:102B00006F2A0CBF08220A221CE07822DFF858E165
:102B100084F845202268186812F0800F00F104053F
:102B20001D6003D1550601D5038800E00368D00776
:102B300044BF42F0200222601BB9226822F020022A
:102B400022601022002084F8430002E0DFF814E144
:102B50000A226568A560002DA2BF206820F004004D
:102B6000206003B965B10D46B3FBF2F002FB1033F0
:102B70001EF8033005F8013D03460028F4D100E0BB
:102B80000D46082A0BD12368DA0708D52369626845
:102B90009A42DEBF302305F8013C05F1FF35491BA1
:102BA00021612EE025681A68606915F0800F03D056
:102BB000151D1D60136808E015F0400F02F10405B3
:102BC0001D60136801D0188000E0186000232361A5
:102BD0000D4616E01A68111D1960156862682846CE
:102BE000002100F053F808B1401B6060636804E006
:102BF00004F1420584F8422001232361002384F874
:102C00004330CDF800803046214603AA3B46FFF70B
:102C100097FE013002D14FF0FF301FE030463946B9
:102C20002A462369C0470130F5D023689B0705D4A5
:102C3000E068039B9842B8BF18460FE00025E368A0
:102C4000039A9B1A9D42F3DA3046394604F1190281
:102C50000123C0470130DED00135F0E704B0BDE804
:102C6000F08100BFFD2D00000E2E000038B5064C8F
:102C7000002305460846236000F06EF8431C02D18D
:102C8000236803B12B6038BD9C52002010B5C9B237
:102C900002449042034606D01C788C4200F10100A9
:102CA000F7D1184610BD002010BD10B5431E0A44D0
:102CB000914204D011F8014B03F8014FF8E710BD21
:102CC000814210B501EB020301D3421E0BE0984292
:102CD000FBD28118D21AD34204D013F8014D01F867
:102CE000014DF8E710BD994204D011F8014B02F8EC
:102CF000014FF8E710BDF8B5074615460E4621B955
:102D00001146BDE8F840FFF779BC1AB9FFF732FC6D
:102D10002846F8BD00F015F8A8420ED238462946DC
:102D2000FFF76CFC044650B131462A46FFF7BDFF61
:102D300038463146FFF71EFC01E03046F8BD20461C
:102D4000F8BD51F8040C0028BEBF091851F8043C26
:102D5000C018043870470000044A05491368002B66
:102D600008BF0B4618441060184670479052002068
:102D7000A0520020FEE700BFF8B500BFF8BC08BCB9
:102D80009E467047F8B500BFF8BC08BC9E46704729
:102D9000050000000000000040420F000501000097
:102DA00000000000000000002536782C0000000024
:102DB0002536780A2C00000000000000000000000A
:102DC00000000000000002000000000040000000C1
:102DD0000000018060080000800106000000800003
:102DE0000000500043000000EC410020232D302B58
:102DF0002000686C4C0065666745464700303132FC
:102E00003334353637383941424344454600303152
:102E100032333435363738396162636465660000B1
:102E200000000000000000000000000000000000A2
:102E30000000000000000000000000000000000092
:102E40000000000000000000000000000000000082
:102E50000000000000000000000000000000000072
:102E60000000000000000000000000000000000062
:102E70000000000000000000000000000000000052
:042E8000000000004E
:082E8400B8D2FF7F010000003D
:102E8C00006CDC02008000000100000054310000E6
:102E9C000000000000000000000000000000020024
:102EAC0000000000400000000000018060080000ED
:102EBC0080010600000080000000500000000000AF
:102ECC0000000000000000000000000000000000F6
:102EDC0000000000000000000000000000000000E6
:102EEC0000000000000000000000000000000000D6
:102EFC0000000000000000000000000000000000C6
:1036CC000000000054320000000000000000000068
:1036DC00000000000000020000000000400000009C
:1036EC0000000180600800008001060000008000DE
:1036FC00000050000000000000000000000000006E
:10370C0000000000000000000000000000000000AD
:10371C00000000000000000000000000000000009D
:10372C00000000000000000000000000000000008D
:10373C00000000000000000000000000000000007D
:103EFC00000000000000000002050000533100002B
:103F0C0000000000000000000000000000000200A3
:103F1C00000000004000000000000180600800006C
:103F2C00800106000000800000005000000000002E
:103F3C000000000000000000000000000000000075
:103F4C000000000000000000000000000000000065
:103F5C000000000000000000000000000000000055
:103F6C000000000000000000000000000000000045
:10473C0002060000533200000000000000000000E0
:10474C00000000000000020000000000400000001B
:10475C00000001806008000080010600000080005D
:10476C0000005000000000000000000000000000ED
:10477C00000000000000000000000000000000002D
:10478C00000000000000000000000000000000001D
:10479C00000000000000000000000000000000000D
:1047AC0000000000000000000000000000000000FD
:104F6C0000000000000000000207000043310000B8
:104F7C000000000000000000000000000000020023
:104F8C0000000000400000000000018060080000EC
:104F9C0080010600000080000000500000000000AE
:104FAC0000000000000000000000000000000000F5
:104FBC0000000000000000000000000000000000E5
:104FCC0000000000000000000000000000000000D5
:104FDC0000000000000000000000000000000000C5
:1057AC00020C000041580000000000000000000046
:1057BC00000000000000020000000000400000009B
:1057CC0000000180600800008001060000008000DD
:1057DC00000050000000000000000000000000006D
:1057EC0000000000000000000000000000000000AD
:1057FC00000000000000000000000000000000009D
:10580C00000000000000000000000000000000008C
:10581C00000000000000000000000000000000007C
:105FDC000000000000000000020E0000415900000B
:105FEC0000000000000000000000000000000200A3
:105FFC00000000004000000000000180600800006C
:10600C00800106000000800000005000000000002D
:10601C000000000000000000000000000000000074
:10602C000000000000000000000000000000000064
:10603C000000000000000000000000000000000054
:10604C000000000000000000000000000000000044
:10681C00020F0000415A00000000000000000000C0
:10682C00000000000000020000000000400000001A
:10683C00000001806008000080010600000080005C
:10684C0000005000000000000000000000000000EC
:10685C00000000000000000000000000000000002C
:10686C00000000000000000000000000000000001C
:10687C00000000000000000000000000000000000C
:10688C0000000000000000000000000000000000FC
:10704C000000000000000000000100000C00002007
:10705C00440800207C100020B4180020EC200020F4
:10706C00242900205C31002094390020000000000D
:10707C00202E0000402E0000602E000000000000BA
:10708C00000000000000000000000000E42D0000E3
:10709C0000000000000000000000000000000000E4
:1070AC0000000000000000000000000000000000D4
:1070BC0000000000000000000000000000000000C4
:1070CC00000000000000000000000000EC41002067
:0C70DC0005010000E100000000000000C1
:04000003000001B147
:00000001FF
