:1000000000800020B1010000DD010000DD010000E2
:10001000DD010000DD010000DD010000DD01000068
:10002000DD010000DD010000DD010000DD01000058
:10003000DD010000DD010000DD010000DD01000048
:10004000DD010000DD010000DD010000DD01000038
:10005000DD010000DD010000DD010000E103000022
:10006000DD010000DD010000DD0100007112000073
:10007000DD010000DD010000DD010000DD01000008
:1000800051140000DD010000DD010000DD01000071
:10009000DD010000DD010000DD010000DD010000E8
:1000A000DD010000DD010000DD010000DD010000D8
:1000B000DD010000DD010000ED030000DD010000B6
:1000C000DD010000DD010000DD010000DD010000B8
:1000D000DD010000DD010000DD010000DD010000A8
:1000E00010B5054C237833B9044B13B10448AFF372
:1000F00000800123237010BD70020020000000006A
:10010000341C0000084B10B51BB108480849AFF378
:1001100000800848036803B910BD074B002BFBD0D3
:10012000BDE81040184700BF00000000341C00006C
:10013000740200206C02002000000000154B002B10
:1001400008BF134B9D46A3F5803A00218B460F460E
:100150001348144A121A01F08CFC0F4B002B00D0EC
:1001600098470E4B002B00D0984700200021040038
:100170000D000D48002802D00C48AFF3008001F0BC
:100180003FFC2000290001F0B1F901F025FC00BF7F
:1001900000000800008000200000000000000000B7
:1001A00070020020D00200200000000000000000CB
:1001B000064880470649074A074B9A42BEBF51F896
:1001C000040B42F8040BF8E7FFF7B8FFA1030000A7
:1001D000401C00000000002070020020FEE700BF6D
:1001E000294AD36A03F47053B3F5805F2AD0B3F57C
:1001F000005F24D0B3F5006F11D0D36803F4E0633F
:10020000B3F5007F3DD020D9B3F5806F37D0B3F57B
:10021000A06F32D0B3F5407F24D0002301E01B4B08
:100220001B68194A1A4910685268C0F3823002F0FC
:100230000F020130B3FBF0F0D04008607047154B5F
:100240001B68EEE74FF40043EBE76BB1B3F5807F3B
:10025000E3D1114B114AD86C114BB0F1985F28BF14
:100260001346DEE70F4BDCE70B4B0F4AD86C0F4B06
:10027000B0F1985F28BF1346D3E70D4BD1E70D4B84
:10028000CFE70D4BCDE700BF00800C4004000020FD
:10029000B002002000000020B081E00F40B56400F3
:1002A000C0CF6A00809FD500804F120040420F00EF
:1002B000003FAB01406F4001C0D8A7000048704725
:1002C000006CDC02274AD36A03F47053B3F5805FF5
:1002D00024D0B3F5005F1ED0B3F5006F11D0D36802
:1002E00003F4E063B3F5007F39D01AD9B3F5806F1A
:1002F00033D0B3F5A06F2ED0B3F5407F1FD00020D0
:1003000001E0194B1868174B1B68C3F382330133A4
:10031000B0FBF3F07047154B1868F4E74FF400405A
:10032000F1E773B1B3F5807FE9D1114A114BD06C7D
:10033000114AB0F1985F2CBF18461046E3E70F480A
:10034000E1E70B4A0E4BD06C0E4AB0F1985F2CBF20
:1003500018461046D7E70C48D5E70C48D3E70C48B9
:10036000D1E700BF00800C40040000200000002006
:10037000B081E00F40B56400C0CF6A00809FD50017
:10038000804F120040420F00003FAB01406F400120
:10039000C0D8A700014B1868704700BF04000020B8
:1003A000034AD2F8883043F47003C2F888307047AB
:1003B00000ED00E04FF40040704700BF4FF47A704A
:1003C000704700BF014B1868704700BF0000002055
:1003D000024B186801301860704700BF8C02002083
:1003E000014B01221A6270470020004010B50C4CEE
:1003F00023699A0708D40A4C2369DB0703D5FFF762
:10040000E7FF0123A36110BDA168002001F5F011F1
:1004100000F006FC034B02210122A1611A70EAE7F9
:10042000000008407400002008B500F00F03013BF5
:10043000052B5ED8DFE803F03B4F265D5D03404BA4
:100440001B6813F080532AD04BBB3E4B984257D0C9
:100450003D4B984259D13A4B9B6AC3F38103022B1F
:1004600035D0032B5BD0012B4FD0364B98425FD059
:10047000354B984219D1324B9B6A142033FA00F065
:100480005AD108BD2E4A936A03F00C03082B18D0EA
:100490000C2B04D0042B3CD0936ADB02D5D5294B1E
:1004A00098422DD0284B9842D5D0002008BD244B2F
:1004B000DB6A03F47053B3F5805F2AD0B3F5005FB5
:1004C000EDD1204B98421BD01F4B9842C3D0BDE8C2
:1004D0000840FFF777BF1A4A936A03F00303022B21
:1004E000EFD0032BDBD0012B13D0936ADA03D6D4E1
:1004F000ABE7144B984203D0134B9842ABD0B4E710
:100500000F4B9B6A03F00303A9E7BDE80840FFF720
:1005100051BF0C4B9842F3D00B4B98429BD0FFF746
:100520005FFE0A4B0A4A1B6812680133D84008BDB7
:10053000034B10209B6AA1E7BDE80840FFF73EBFD0
:1005400000800C4002001A0003001C007800904359
:10055000A000904300F00F000138052843D8DFE8E1
:1005600000F0301F0E424203234B1B6813F08053F0
:100570003BD0B3F1805F0CBF0820012070471E4ABA
:10058000936A03F00C03082B31D00C2B31D0042BD1
:1005900027D0936A13F4801F0CBF012009207047F5
:1005A000154B986A00F0030002281BD0032820D0C6
:1005B000012816D09B6A13F4803F0CBF012009204C
:1005C00070470D4BDB6A03F47053B3F5805F08D0BE
:1005D000B3F5005F0BD0B3F5006F0CBF042005200E
:1005E00070470320704700207047072070470220A3
:1005F00070470620704700BF00800C4000F4781060
:10060000B0F5A01F08B500F09B800FD9B0F5E01F32
:1006100069D024D8B0F5C01F4DD0B0F5D01F00F080
:100620008A80B0F5B01F63D0002008BDB0F5802FE0
:1006300070D066D9B0F5602F24D0B0F5801F00F0DF
:100640008880B0F5402FEFD15148FFF783FF07288E
:1006500018D00828E8D1BDE80840FFF733BEB0F550
:10066000201F31D0B0F5281F5CD0B0F5181FDBD1AA
:100670004848FFF7D9FE484B9B6EC3F30133043360
:10068000D84008BD444B5B6903F4E063B3F5007FD9
:100690006FD067D9B3F5C06F77D0B3F5E06F72D084
:1006A000B3F5407FC0D13D4BDB6CB3F1985F2CBFFD
:1006B0003B483C4808BD3C48FFF7B6FE364B1B6F35
:1006C000C3F30113D84008BD3248FFF7ADFE324BEB
:1006D0009A6EDB6FC2F3013203F00703D04001339F
:1006E000B0FBF3F008BD3048BDE80840FFF79CBE02
:1006F0002D48FFF799FE284B1B6F03F00303D840EA
:1007000008BD0028A7D0B0F5003F8DD1BDE8084056
:10071000FFF766BDFFF7D6FD1F4B9B6803F00F0385
:10072000D84008BD1B48FFF77FFE1B4B9B6E03F0B4
:100730000303D84008BD1748BDE80840FFF774BE62
:100740001448FFF771FE144B9B6EC3F30323D8408C
:1007500008BD1048FFF768FE0F4B9B6EC3F30313F1
:10076000D84008BD6BB1B3F5807F7FF45DAF0F4813
:1007700008BD0A4BDB6CB3F1985F2CBF0C480D48E9
:1007800008BD0D4808BD0D4808BD0D4808BD00BF97
:1007900006000C0002001A0000800C40B081E00F3F
:1007A000804F120040420F0003001C00C0D8A70079
:1007B00040B56400C0CF6A00809FD500406F400103
:1007C000003FAB0170B5C0F30323013B82B0044688
:1007D000092B0CD8DFE803F0191E200B0B0D1B0BA7
:1007E0000B05154DC4F304342C44A400216002B061
:1007F00070BD124D0120124A536DDB07C4F304345F
:10080000F2D4136D1842FCD1EEE70E4DEAE70E4D1F
:100810001020F0E70D4DE5E70D480191FFF7EEFEE2
:100820000C4B0D4E0D4A0E4D0199984294BF00207D
:10083000012030601060D5E7C003E410C002E4106E
:1008400000800C404000E4100003E4102002E4109B
:100850000043020000366E0178009043A0009043F0
:100860000002E41038B500F00F04631E052B12D807
:10087000DFE803F02A1C1C111116914B984240F23C
:10088000BC8005228F494B6823F0070313434B605C
:100890000CB10023CB638C4A8C4B12681B6838BDAB
:1008A000072919D0082900F09A8038BD0139082994
:1008B00011D8DFE811F0AA00C500B8001000100040
:1008C000D30010001000E5000239032903D8DFE847
:1008D00001F04B092B4238BD7D4A136823F0805349
:1008E0001360D8E77B4A0324402379490B621368DD
:1008F000002BFCD000F000F9FFF7E0FC714B41F653
:100900007132DD6BDA635B6803F00703042B30D8C8
:10091000012202FA03F313F0130F2AD0684B984216
:1009200040F2B480042228E0684A674901230B6042
:100930001360FFF72FFD664A614B9842136896BF1C
:1009400023F0600343F0600343F0200313600224AC
:10095000614A0423C9E75C4B5C48604A0121196085
:100960000C460B460160C0E75D4A04244FF48073D7
:10097000BBE7534B984238D9052252494B6823F0C4
:10098000070313434B600DB10023CB63504B554815
:100990005C62FFF733FE544B4C4A4B49984294BF7C
:1009A000002001200860106000F0A6F8FFF718FC96
:1009B000444B41F67132DC6BDA635B6803F007038A
:1009C000042B3FF65AAF012202FA03F313F0130F80
:1009D0003FF453AF3A4B984260D9042252E73C4A65
:1009E000136843F08053136055E7404B404A03447B
:1009F00093428CBF02220322BFE73C4B3C4A034494
:100A000093428CBF022203223CE700252A46294656
:100A1000022C4BD02E498A6A22F4801323F00C0357
:100A20002B438B6237E72A4B2A4A4021196213680D
:100A3000002BFCD000F060F8042500220121E7E73C
:100A4000234B274A4FF4807119621368002BFCD0A6
:100A500000F052F8082500220221D9E7FFF7C0FB79
:100A6000214B194D194A2349984294BF0020012077
:100A70000123286010600C250B6000220321C7E7CA
:100A80004FF480154FF480320021C1E7174B184A0C
:100A9000034493428CBF002201226EE7134B144A99
:100AA000034493428CBF00220122EBE60848836A8C
:100AB00023F480330A4323F0030313438362EAE6FB
:100AC0000048E80100000C4078009043A0009043EB
:100AD00000800C409C0590438C0590438405904316
:100AE000A40590430043020000366E01FFDB0BFFBC
:100AF000FF23F40010089043024A034BD26A1A60A5
:100B0000704700BF00800C4090020020F0B5072A1B
:100B10009DF814509DF818401DD9DFF864E0A2F14B
:100B200008018900DEF8006007278F40884026EA28
:100B300007010843CEF800000E490F4E114489000A
:100B4000012000FA02F20B60C1F88050C6F81C21A7
:100B5000C1F80041F0BD094F4FEA820E3E680721FF
:100B600001FA0EF100FA0EF026EA0101084338609E
:100B7000E2E700BF400883100060004000610040D1
:100B800004610040F0B5C4004AB1B3B32518AD000C
:100B900005F1804505F5C04501268E402E612518DA
:100BA000AD0005F18045072905F5C04515D84FEA88
:100BB000810E6F680F2606FA0EF627EA060702FA7C
:100BC0000EF63E436E603AB92044F3B9134B8000F1
:100BD000034401228A405A60F0BD01F18046083E7C
:100BE000AF68B6004FF00F0E0EFA06FE27EA0E07AA
:100BF00002FA06F63E43AE60E5E72618074DB6005A
:100C0000354401268E406E60C9E7800000F18040C7
:100C100000F5C04001238B400361F0BD106000402F
:100C200020B1012801D1024B19607047014BFBE74D
:100C30000C00084008000840CB4303F005035B00AC
:100C4000C360C160704700BF314AF8B50446002355
:100C500040F6AA6741F2050641F6F9709442E76052
:100C60000D4623606660A3606361E364A06463650E
:100C70004AD0284AA365944243D0274B9C4240D097
:100C8000AB7C1BB1236843F080432360EB7C1BB13A
:100C90002B7D43F01003A365298A6B7BEA89686882
:100CA000AE682F7B0B431343636018B3202F26D00D
:100CB0001CD9402F18D0602F13D104232168174A64
:100CC00021F06001216006FB03F38000216800EB46
:100CD0005300B0FBF3F3043B9B011A400F43276022
:100CE00062612B78E360F8BD0623E7E7002FF8D1B7
:100CF0001023E3E70A48FFF781FC202FD8D108230F
:100D0000DCE70023E365BBE72365A365B8E700BF25
:100D100000C0004000C4004000C80040C0FF1F00E9
:100D200040810400314AF8B50446002340F6AA6722
:100D300041F2050641F6F9709442E7600D462360E2
:100D40006660A3606361E364A06463654BD0284A76
:100D5000A365944244D0274B9C4241D02B8AAE7B62
:100D60002268287DA97C43F00103002E9BB243EA50
:100D7000020314BF4FF480620022134323602368F0
:100D8000002814BF4FF0005200221343236019B112
:100D9000EB7C43F01003A3652A7B6868AF6842F4DC
:100DA0008052626010B91448FFF728FC7A1E61690E
:100DB000124E95F80DE002EB4000B0FBF7F39B01FB
:100DC000403B21F4FF121E4022F4FE523243626186
:100DD000BEF1000F01D01023E3602B78E360F8BD73
:100DE0000023E365BAE72365A365B7E700C00040C9
:100DF00000C4004000C800404081040000FF1F0004
:100E000003695A06FCD5416303699B06FCD5C0699A
:100E1000C0B2704703695B06FCD54163704700BFF1
:100E200010B582B04FF0FF33009301936C4614F875
:100E3000011B0448FFF7E4FF02AB9C42F7D102B06C
:100E400010BD00BF00C000400D4A0E4908B55368F0
:100E500043F0010353604B68024643F001034B60CB
:100E600092F8311090F8300004220023FFF78AFE38
:100E7000054AD2F8103143F40073C2F8103108BDAE
:100E800000000140000401400060004084B02DE9F2
:100E9000F04182B004460E9D8DF8075009AE86E8F9
:100EA0000E002F0C90F8300094F831108DF805707A
:100EB0002D0A0726042200238DF806508DF80460C1
:100EC000FFF760FE01AD15F8011BB648FFF798FF6C
:100ED00002AB9D42F7D1002594F8300094F8311010
:100EE00004220123FFF74EFE2B4694F8300094F8BD
:100EF0003110ADF8045004228DF80650FFF742FE81
:100F0000A8484721FFF77CFF01AD0DF10706A54872
:100F10000021FFF775FF05F8010BB542F7D194F8F2
:100F2000300094F8311004220123FFF72BFE9DF8C6
:100F300005209DF804309DF80650BDF83E7094F8E9
:100F4000300094F83110120202EB03432B440025C9
:100F5000A3614FEA172C2B464FF0090E042201958E
:100F60008DF805C08DF806708DF804E0FFF70AFED5
:100F700001AD15F8011B8B48FFF742FFB542F8D1D0
:100F800094F8300094F8311004220123FFF7FAFDA1
:100F90000422002394F8300094F83110FFF7F2FD9A
:100FA00049218048FFF72CFF00217E48FFF728FFEA
:100FB000002180467B48FFF723FF94F83110054657
:100FC000042294F830000123FFF7DCFDBDF84070E7
:100FD00094F8300094F831104FF0000E05EB08251E
:100FE000E5834FEA172C192573460422CDF804E057
:100FF0008DF804508DF805C08DF80670FFF7C2FD1E
:1010000001AD15F8011B6748FFF7FAFEB542F8D1AC
:1010100094F8300094F8311004220123FFF7B2FD58
:101020000422002394F8300094F83110FFF7AAFD51
:1010300059215C48FFF7E4FE00215A48FFF7E0FE23
:10104000002180465748FFF7DBFE94F83110054633
:10105000042294F830000123FFF794FDBDF82670B8
:1010600094F8300094F831104FF0000E05EB08258D
:1010700025844FEA172C012573460422CDF804E09D
:101080008DF804508DF805C08DF80670FFF77AFDD5
:1010900001AD15F8011B4348FFF7B2FEB542F8D188
:1010A00094F8300094F8311004220123FFF76AFD10
:1010B0000422002394F8300094F83110FFF762FD09
:1010C00041213848FFF79CFE00213648FFF798FE83
:1010D000002107463348FFF793FE94F83110054688
:1010E000042294F830000123FFF74CFD119B8DF88A
:1010F000073005EB07254FEA134EE58094F83000E2
:1011000094F831108DF805E01D0A212704220023F0
:101110008DF806508DF80470FFF734FD01AD15F819
:10112000011B2048FFF76CFE02AB9D42F7D1002562
:1011300094F8300094F8311004220123FFF722FDC7
:101140002B4694F8300094F83110ADF80450042286
:101150008DF80650FFF716FD12486121FFF750FE8B
:1011600001AD10480021FFF74BFE05F8010BB54219
:10117000F7D194F8311094F8300004220123FFF7DE
:1011800001FD9DF805209DF804309DF8061012021F
:1011900002EB03430B44636202B0BDE8F04104B0CC
:1011A000704700BF00C0004002460B4690F8300078
:1011B00092F831100422FFF7E5BC00BF70B51A4D5C
:1011C0001A4E0FCD86B06C460FC495E8030084E834
:1011D000030017480121FFF7F5FA04200246072112
:1011E0000023FFF7CFFC0420062101220023FFF794
:1011F000C9FC0420024605210123FFF7C3FC0D4B67
:101200001B681B6A029301224FF440733046694603
:10121000ADF810308DF80E20FFF784FD40F20B136F
:10122000736506B070BD00BF881B000000C00040A1
:10123000000204009401002000B5042083B00921BD
:1012400002220123FFF79EFC0023092101228DE8E1
:101250000C0004200A46FFF759FC044B4FF40062CF
:10126000C3F880211A6003B05DF804FB00E100E0E0
:101270004E4BD3F81431B3F5007F00D070472DE901
:10128000F04F4B4B1B68012B85B04A4B00F0878019
:101290000193464ADFF834A1D2F8103123F40073E9
:1012A000C2F81031DAF800305A68002A7CD00025E4
:1012B000414FA8460DF10F043B6853F82530042236
:1012C00093F8300093F831100023FFF75BFC3B6884
:1012D000ADF80C8053F825608DF80E8096F830003C
:1012E00096F8311004220023FFF74CFC33484221CA
:1012F000FFF786FD4FEA85090DF10C0B2F48002101
:10130000FFF77EFD0BF8010BA345F7D196F83000EF
:1013100096F8311004220123FFF734FC3B6853F8A0
:101320000930042293F8300093F831100123FFF7BD
:1013300029FCDAF800305A6801359542BCD39B6A23
:101340008BB11F49019B0C681B681E491E48096828
:10135000006804FB03230133B3FBF1F201FB1233FA
:10136000012240F82320019C3A6823681268013367
:1013700092F8300092F83110236004220023FFF726
:1013800001FC0A4B4FF40072C3F81C21D3F8102162
:1013900042F40072C3F8102105B0BDE8F08F1A4680
:1013A00001930023136074E7034FC8E70060004017
:1013B0009C02002098020020B802002000C00040DB
:1013C000B4020020BC020020C002002094010020D2
:1013D00030B51B481B4C87B00121FFF7F3F9032000
:1013E000072104220123FFF7CDFB03200621012260
:1013F0000023FFF7C7FB144B1A68526A02920023BE
:10140000204605254FF480526946039304930093C8
:1014100001930593ADF810208DF80D50FFF714FCE3
:101420000A4B4FF4803240F2032060652946C3F82E
:10143000802120461A60FFF7FFFB07B030BD00BFD8
:101440000012040000C400409401002000E100E00C
:101450001D48F8B5036C9B0700D4F8BD1B4B1C4A14
:101460001C491B6812680C681B4D1C49D5F800E02C
:101470001B4F1C4D09781C4E02FB03F3B3FBF4F227
:1014800004FB12335EF823302B60FFF7C3FC3B688C
:1014900032681B6903FB02F383B12B6800241978BF
:1014A0000948FFF7B7FC3B6831681A692B680134BB
:1014B00002FB01F2013394422B60F0D3024AD36C59
:1014C00023F00203D364F8BD00C40040940200205E
:1014D000B4020020BC020020C0020020080000204E
:1014E00094010020C8020020C40200202DE9F04F22
:1014F0001120C1B00521FFF7B5F9E848DFF8DC831A
:10150000E74FE84E0121FFF75DF9E7480121FFF7BA
:1015100059F9E6480121FFF755F9D8F80020E449C8
:101520005468936A9268234402FB03F29D00900082
:101530000D603A60336000F089FADE4A34231060AF
:1015400003FB04F000F082FA05461CB1A200DA4960
:1015500000F084FA042002460D210123FFF712FB5C
:101560000520032104220123FFF70CFB04210A4676
:1015700005200023FFF706FB052001460422012376
:10158000FFF700FB0020022104220123FFF7FAFAF3
:101590000120034607210422FFF7F4FA2C1F1C3513
:1015A00054F8040F0121FFF7FFFDAC42F8D1C34FFF
:1015B000DFF82CA3C24CC34EDFF8289302200D2184
:1015C00004220123FFF7DEFAFFF702FFFFF7F6FD23
:1015D000FFF726FCFFF730FE0FCF09AD0FC50FCF89
:1015E0000FC597E8070040F2822B4FF404674FF4D1
:1015F000016385E80700ADF826B00E97CDF844A04A
:10160000ADF840300DF1240ABAE80F0014AF0FC74F
:10161000BAE80F000FC795E807000DF1240A87E824
:101620000700BAE80F001FAF0FC7BAE80F0048F273
:10163000010B0FC7ADF86AB095E807000DF1240A59
:1016400087E80700BAE80F002AAF0FC7BAE80F0013
:101650000FC795E807000DF1240A87E80700BAE8EC
:101660000F0048F21107ADF896B0ADF8C2704FF018
:10167000100B35AFADF8C4B00FC7BAE80F000FC7F5
:1016800095E8070087E80700DFF85CC2DFF85CE256
:10169000DCF80030ADF8F0B023F4403348F211220A
:1016A000ADF8EE20CCF80030DCF80030DFF840B2C6
:1016B000854D23F07063CCF80030DCF8003023F067
:1016C0000303CCF80030DCF81C306FEA13436FEAF8
:1016D0000343CCF81C30DCF81C301B0C1B0443F01B
:1016E0000B03CCF81C30DCF8503023F0030343F03C
:1016F0000203CCF85030DCF8503023F4407343F44C
:101700008073CCF85030DCF854301B0C1B04CCF840
:101710005430DCF8503043F00403CCF85030DCF89F
:1017200054301B0C1B0443F00603CCF85430DCF897
:10173000283023F4E023CCF82830DCF8283023F0DC
:10174000071323F4E06343F00403CCF82830DEF8F9
:10175000003023F00303CEF80030DEF8003043F011
:101760001003CEF80030DEF8003023F00803CEF886
:101770000030DEF8003023F4403343F40033CEF879
:101780000030DEF8003043F01003CEF80030DEF811
:10179000303023F0030343F00203CEF83030DEF89C
:1017A000303043F00403CEF83030DEF8303023F42C
:1017B000407343F48073CEF83030DEF8303023F4D9
:1017C0008013CEF83030DEF81C301B0C1B0443F0C5
:1017D0001303CEF81C30DEF8283023F0071323F46F
:1017E000E06343F00103CEF82830DEF8283023F41C
:1017F000E02343F440330DF15C0CCEF82830BCE814
:101800000F00EE46AEE80F009CE80F008EE80F00D8
:101810000DF1500A9AE80E002C48FFF737FB0DF146
:101820005C0CBCE80F00EE46AEE80F009CE80F0031
:101830008EE80F0026489AE80E00FFF727FB0DF10F
:10184000880CBCE80F00EE46AEE80F009CE80F00E5
:101850008EE80F000DF17C0A9AE80E001D48FFF794
:1018600015FB0DF1880CBCE80F00EE46AEE80F004A
:101870009CE80F008EE80F0017489AE80E00FFF76B
:1018800005FB0DF1E00CBCE80F00EE46AEE80F00E2
:101890009CE80F008EE80F002CE000BF00D204008F
:1018A000BC020020B40200200052040000620400C8
:1018B000C4020020C002002040010020A01B000044
:1018C000940200209802002000C40040A4000020E0
:1018D000D80000200C0100206001002094010020AD
:1018E0003C0006009C020020000001400004014072
:1018F000A00200200DF1D40C9CE80E003148FFF747
:10190000C5FA0DF1B40CBCE80F00EE46AEE80F00CE
:101910009CE80F008EE80F000DF1A80A9AE80E006F
:101920002948FFF7B3FA0DF1B40CBCE80F00EE46FE
:10193000AEE80F009CE80F008EE80F0023489AE8FD
:101940000E00FFF7A3FA0DF1B40CBCE80F00EE4651
:10195000AEE80F009CE80F008EE80F001C489AE8E4
:101960000E00FFF793FA1B48FFF76EFAA246D8F86D
:1019700000300022196910460DE0C9F80000EB6C38
:1019800043F00203EB64DAF80030B2F5803F0B4419
:10199000CAF8003008DA33682768DB1B8B42ECD8C2
:1019A0000132B2F5803FF6DB0A48FFF74DFA00231B
:1019B0002360DBF8003001221344CBF80030C9F873
:1019C0000020D4E798010020CC0100200C0000206A
:1019D00040000020A400002008B5074B044613B1C6
:1019E0000021AFF30080054B1868836A03B1984764
:1019F000204600F0BBF800BF00000000D01B000034
:101A000070B50E4B0E4CE41AA41000251E46A542DC
:101A100004D056F8253098470135F8E700F0A8F8CB
:101A2000084C094BE41AA41000251E46A54204D018
:101A300056F8253098470135F8E770BD640200205C
:101A4000640200206802002064020020024B01466C
:101A5000186800F017B800BF6002002010B5431EE0
:101A60000A44914204D011F8014B03F8014FF8E702
:101A700010BD02440346934202D003F8011BFAE76B
:101A80007047000070B5CC1C24F0030408340C2C03
:101A900038BF0C24002C064603DA0C2333600020E8
:101AA00070BD8C42F9D3204A136810461946A1B183
:101AB0000A68121B0ED40B2A03D90A608B188C50AB
:101AC0001FE08B420DBF5A684A685A60026018BF17
:101AD0000B4616E00B464968E9E7144D2B681BB925
:101AE000304600F025F828603046214600F020F806
:101AF000421C0346D1D0C51C25F0030585420AD1FE
:101B00001C6003F10B001A1D20F00700821A0AD096
:101B10005142995070BD3046E91A00F009F8013081
:101B2000BBD02B46ECE770BDA8020020A402002029
:101B300038B5064C002305460846236000F008F837
:101B4000431C02D1236803B12B6038BDCC020020B6
:101B5000044A05491368002B08BF0B46184410605F
:101B600018467047AC020020D0020020FEE700BFFC
:101B7000F8B500BFF8BC08BC9E467047F8B500BF7A
:101B8000F8BC08BC9E46704705000000000000003D
:101B900040420F00050100000000000000000000AE
:101BA0000000000000000000000000000000020033
:101BB00000000000400000000000018060080000FC
:101BC000800106000000800000005000430000007B
:101BD00000020020000000000000000000000000E3
:101BE00000000000000000000000000000000000F5
:101BF00000000000000000000000000000000000E5
:101C000000000000000000000000000000000000D4
:101C100000000000000000000000000000000000C4
:101C200000000000000000000000000000000000B4
:081C30000000000000000000AC
:081C380004E5FF7F010000003C
:101C400000800000006CDC021E0000004159000012
:101C50000000000000000000000000000000020082
:101C6000000000004000000000000180600800004B
:101C7000800106000000800000005000020F0000FC
:101C8000415A0000000000000000000000000000B9
:101C90000000020000000000400000000000018081
:101CA0006008000080010600000080000000500075
:101CB0000001000001000000809FD5000800000026
:101CC00000100000000200000A0000003C000000BC
:101CD0000B0000001300000040420F0000C2010092
:101CE000010000005431000000000000000000006E
:101CF00000000000000002000000000040000000A2
:101D000000000180600800008001060000008000E3
:101D100000005000000000005432000000000000ED
:101D200000000000000000000000020000000000B1
:101D300040000000000001806008000080010600F3
:101D40000000800000005000020500005331000038
:101D50000000000000000000000000000000020081
:101D6000000000004000000000000180600800004A
:101D70008001060000008000000050000206000004
:101D8000A4000020D80000200C01002060010020E9
:101D900098010020CC0100200C0000204000002011
:101DA00053320000000000000000000000000000AE
:101DB0000000020000000000400000000000018060
:101DC0006008000080010600000080000000500054
:101DD00002070000780000204331000000000000EE
:101DE00000000000000000000000020000000000F1
:101DF0004000000000000180600800008001060033
:101E00000000800000005000020C0000415800005B
:101E100000000000000000000000000000000200C0
:101E20000000000040000000000001806008000089
:101E3000800106000000800000005000020E00003B
:101E400000000000D41B0000F41B0000141C000064
:101E50000000000000000000000000000000000082
:101E6000CC1B00000000000000000000000000008B
:101E70000000000000000000000000000000000062
:101E80000000000000000000000000000000000052
:101E90000000000000000000000000000000000042
:101EA0000002002005010000E10000000000000029
:04000003000001B147
:00000001FF
